:020000040800F2
:1000000070560020E90100081707000821050008C4
:1000100013070008B1030008710F0008000000007A
:100020000000000000000000000000004501000882
:10003000070400080000000089010008CD0900083D
:10004000030200080302000803020008030200087C
:10005000030200080302000803020008030200086C
:10006000030200080302000803020008030200085C
:10007000030200080302000803020008030200084C
:10008000030200080302000803020008030200083C
:10009000030200080302000803020008030200082C
:1000A000030200080302000803020008030200081C
:1000B0004D0A0008030200080302000803020008BA
:1000C00003020008030200080302000803020008FC
:1000D00003020008210C00080302000803020008C4
:1000E00003020008030200080302000803020008DC
:1000F00003020008030200080302000803020008CC
:1001000003020008030200080302000803020008BB
:100110000302000803020008E90A000803020008BD
:10012000030200080302000803020008030200089B
:10013000DFF80CD000F0B4F800480047551900086B
:1001400070560020204B19680868B0E8F00F80F363
:100150000988BFF36F8F4FF0000080F311884EF0D5
:100160000D0E70470000000006480068006880F32C
:10017000088862B661B6BFF34F8FBFF36F8F00DFA1
:1001800000BF00BF08ED00E0EFF30980BFF36F8F01
:100190000D4B1A6820E9F00F106008B54FF0100001
:1001A00080F3118802F0F4FA4FF0000080F3118818
:1001B000BDE8084019680868B0E8F00F80F30988C6
:1001C000BFF36F8F704700BF58000020EFF311801E
:1001D0004FF0100181F31188704780F31188704748
:1001E000EFF3058070470000064880470648004747
:1001F000FEE7FEE7FEE7FEE7FEE7FEE7FEE7FEE7D7
:10020000FEE7FEE7ED0900083101000840EA0103BE
:100210009B0703D009E008C9121F08C0042AFAD2BC
:1002200003E011F8013B00F8013B521EF9D2704780
:10023000D2B201E000F8012B491EFBD27047002228
:10024000F6E710B513460A4604461946FFF7F0FFD5
:10025000204610BD421C10F8011B0029FBD1801A5A
:100260007047034611F8012B00F8012B002AF9D141
:100270001846704730B50B46014600202022012465
:1002800009E021FA02F59D4205D303FA02F5491B64
:1002900004FA02F52844151EA2F10102F1DC30BD7A
:1002A000064C074D06E0E06840F0010394E80700C3
:1002B00098471034AC42F6D3FFF73EFFCC3200082B
:1002C000EC32000810B5002201210A2002F03AFCAD
:1002D00004490860002204210A2002F033FC02498C
:1002E000086010BD10000020140000201FB5002081
:1002F0001B4A0123CDE901200093039003464FF4EC
:10030000007218A11A4802F0EDFD0020194A0223DC
:10031000CDE901200093039003464FF4007216A12B
:10032000184802F0DFFD0020174A0323CDE9012021
:100330000093039003464FF4007214A1164802F094
:10034000D1FD0020154A0423CDE90120009303903C
:1003500003464FF4007212A1144802F0C3FD1FBD02
:1003600000000020765461736B5573657249460036
:100370006D28000804000020765461736B4C4544DE
:1003800000000000D12300080800002076546173AB
:100390006B4D736750726F00712500080C000020D0
:1003A000765461736B537461727400009D2600086B
:1003B00000BFFEE7014609B909487047012901D18C
:1003C0000020FAE7022901D10020F6E7032901D134
:1003D0000020F2E7042901D10020EEE70020ECE73D
:1003E0008001002008B525208DF8000001208DF83F
:1003F000010000208DF8020001208DF803006846FE
:1004000000F08AF908BD70472DE9F0410246002549
:100410000026002000230024002791F803C00CF0E0
:100420000F0591F803C00CF0100CBCF1000F03D0C5
:1004300091F802C04CEA050591F800C0BCF1000F2C
:1004400031D0146800202BE04FF0010C0CFA00F3BF
:10045000B1F800C00CEA03069E4220D183004FF0A1
:100460000F0C0CFA03F7BC4305FA03FC4CEA040436
:1004700091F803C0BCF1280F06D14FF0010C0CFA23
:1004800000FCC2F814C00AE091F803C0BCF1480FA8
:1004900005D14FF0010C0CFA00FCC2F810C0401C52
:1004A0000828D1D31460B1F800C0BCF1FF0F34DDCF
:1004B000546800202EE000F1080C4FF0010808FA03
:1004C0000CF3B1F800C00CEA03069E4221D1830070
:1004D0004FF00F0C0CFA03F7BC4305FA03FC4CEA8F
:1004E000040491F803C0BCF1280F05D100F1080CF9
:1004F00008FA0CF8C2F8148091F803C0BCF1480F58
:1005000007D100F1080C4FF0010808FA0CF8C2F806
:100510001080401C0828CED35460BDE8F081000054
:1005200009A100200CE00A5C124B1A8000BF114A9E
:10053000121F128802F04002002AF8D0421CD0B2EA
:100540002A28F0D300BFFEE70D0A456E74657220BD
:10055000486172644661756C745F48616E646C6575
:10056000722C2053797374656D2048616C742E0D64
:100570000A0000000438014010B500F001F810BD79
:100580004AF6AA2001490860704700000030004088
:1005900000B585B00121052000F010F90121880384
:1005A00000F00CF94FF40070ADF8100018208DF831
:1005B000130003208DF8120004A91848FFF724FF48
:1005C0004FF48060ADF8100004208DF8130004A9EA
:1005D0001248FFF719FF4FF4E13000900020ADF80A
:1005E0000400ADF80600ADF80800ADF80C000C20D2
:1005F000ADF80A0069460A4800F07EFB012240F28D
:100600002551074800F053FB0121054800F019FB74
:100610004021034800F00CFB05B000BD000801407C
:10062000003801400448806800F4006008B90120E7
:1006300070470020FCE700000010014010B500F0FA
:1006400009F820B100F012F808B1012010BD002017
:10065000FCE700000448806800F4805008B90120DD
:1006600070470020FCE700000010014004480068CB
:1006700000F0040008B9012070470020FCE70000EA
:10068000081401400448806800F4005008B90120B3
:1006900070470020FCE7000000100140044800689B
:1006A00000F0080008B9012070470020FCE70000B6
:1006B000081401400448806800F4804008B9012013
:1006C00070470020FCE700000020014004488068DB
:1006D00000F4005008B9012070470020FCE700003A
:1006E000002001400448806800F0800008B9012023
:1006F00070470020FCE700000020014010B5FFF724
:1007000091FF20B1FFF7A6FF08B1012010BD002026
:10071000FCE700BFFEE7704770B5002100230F2201
:10072000C47804B3154C246804F4E064C4F5E064B0
:10073000210AC1F10403CA40447804FA03F1847821
:100740001440214309010E4C0678A155047804F0A9
:100750001F050124AC4005786D11AD0005F1E025C1
:10076000C5F8004109E0047804F01F050124AC40FD
:10077000044D0678761145F8264070BD0CED00E07A
:1007800000E400E080E100E002490143024A116018
:10079000704700000000FA050CED00E029B1064AA0
:1007A000D2690243044BDA6104E0034AD26982430E
:1007B000014BDA61704700000010024029B1064A7F
:1007C00092690243044B9A6104E0034A92698243AE
:1007D000014B9A61704700000010024030B50021C3
:1007E0000022002400232D4D6D6805F00C0121B17D
:1007F000042905D0082923D105E0294D056022E010
:10080000284D05601FE0254D6D6805F47012234DDD
:100810006D6805F48034022505EB92421CB9224D27
:10082000554305600BE01D4D6D6805F400351DB1A5
:100830001E4D5543056002E01A4D5543056002E028
:10084000174D056000BF00BF144D6D6805F0F00145
:100850000909174D6B5C0568DD4045600F4D6D68FB
:1008600005F4E061090A124D6B5C4568DD40856066
:100870000A4D6D6805F46051C90A0D4D6B5C456801
:10088000DD40C560054D6D6805F44041890B094D9B
:100890006B5CC568B5FBF3F5056130BD0010024027
:1008A00000127A00001BB70000093D00808D5B003C
:1008B000300000204000002008B501210820FFF78B
:1008C0007DFF03208DF8020010208DF80300042026
:1008D000ADF8000069460248FFF796FD08BD00002C
:1008E000000C014010B500F001F810BD0CB500205F
:1008F000019000903348006840F48030314908602E
:1009000000BF3048006800F4003000900198401C9F
:100910000190009818B90198B0F5A06FF1D129485D
:10092000006800F4003010B10120009001E00020C8
:1009300000900098012843D12348006840F010003F
:10094000214908600846006820F003000860084656
:10095000006840F0020008601A4840681949486081
:100960000846406848600846406840F48060486037
:100970000846406820F47C1048600846406840F40F
:10098000881048600846006840F08070086000BF2A
:100990000C48006800F000700028F9D00948406851
:1009A00020F00300074948600846406840F0020014
:1009B000486000BF0348406800F00C000828F9D1E7
:1009C0000CBD0000001002400020024010B5FFF7EF
:1009D000FDFB02F023FB18B14FF080500249086084
:1009E0000020FFF7FAFB10BD04ED00E010B513483E
:1009F000006840F00100114908600846406810494D
:100A000008400E494860084600680E4908400B49F6
:100A100008600846006820F48020086008464068A6
:100A200020F4FE0048604FF41F008860FFF75AFF73
:100A30004FF000600449086010BD00000010024043
:100A40000000FFF8FFFFF6FE08ED00E010B5022100
:100A5000480700F078F858B10221480700F064F820
:100A600000220221480700F07FF81B4800688047F9
:100A70000421080700F067F858B10421080700F0C6
:100A800053F800220421080700F06EF813480068AC
:100A900080470821C80600F056F858B10821C8065A
:100AA00000F042F800220821C80600F05DF80C486A
:100AB000006880471021880600F045F858B11021E1
:100AC000880600F031F800221021880600F04CF86A
:100AD00004480068804710BD20000020240000204A
:100AE000280000202C00002010B50121064800F04D
:100AF0002AF840B105480068401C044908600121FB
:100B0000014800F011F810BD001000401C0000204A
:100B100021B1028842F08002028004E002884FF690
:100B20007F731A4002807047CA430282704721B126
:100B3000028842F00102028004E002884FF6FE7350
:100B40001A400280704730B502460020002300247E
:100B5000158A05EA0103958905EA010413B10CB170
:100B6000012000E0002030BD1AB183890B4383814E
:100B700002E083898B438381704700000022028852
:100B80001D4B98420ED01D4B98420BD0B0F1804FB8
:100B900008D01B4B984205D01A4B984202D01A4BF2
:100BA000984204D14FF68F731A404B881A43174B63
:100BB000984207D0164B984204D04FF6FF431A4094
:100BC000CB881A4302808B8883850B8803850A4B68
:100BD00098420BD0094B984208D00E4B984205D052
:100BE0000D4B984202D00D4B984201D10B7A0386EF
:100BF0000123838270470000002C01400034014033
:100C00000004004000080040000C004000100040BC
:100C100000140040004001400044014000480140F1
:100C200010B5024800F0DDF810BD00008001002082
:100C300001F40072B2F5007F00D100BFCA43028008
:100C4000704721B1828942F40052828104E0828996
:100C50004DF6FF731A408281704770B5024600243A
:100C600000230025002040F66A16B14200D100BFE3
:100C7000C1F3421501F01F03012606FA03F3012D0B
:100C800002D19689334006E0022D02D1168A334004
:100C900001E0968A33400C12012606FA04F4168805
:100CA000344013B10CB1012000E0002070BDF0B55C
:100CB0000346002400260025002040F66A17B942AA
:100CC00000D100BF1846C1F3421401F01F060127EE
:100CD00007FA06F5012C01D10C3004E0022C01D1F9
:100CE000103000E014301AB107682F43076002E0AB
:100CF0000768AF430760F0BD2DE9F04786B00546B1
:100D00000E460024A24600BFA1460027B08900B1CC
:100D100000BF2F462C8A4CF6FF700440F088044335
:100D20002C82AC894EF6F3100440B0883189084318
:100D3000718908430443AC81AC8A4FF6FF400440FC
:100D4000B0890443AC8201A8FFF748FD1F488742E1
:100D500002D1DDF810A001E0DDF80CA0A88900F4B4
:100D6000004040B10AEBCA0000EB0A1031684900AC
:100D7000B0FBF1F807E00AEBCA0000EB0A1031689B
:100D80008900B0FBF1F86420B8FBF0F00401200901
:100D9000642101FB1089A88900F4004040B1322091
:100DA00000EBC900B0FBF1F000F00700044308E0DD
:100DB000322000EB09106421B0FBF1F000F00F00CD
:100DC00004432C8106B0BDE8F087000000380140E4
:100DD00001468888C0F308007047C1F3080282808A
:100DE000704770B5044640F225512068FFF735FF83
:100DF000E0B12068FFF7ECFFC5B2E18AA068455476
:100E0000E08A401C80B2E082E189884201DB002058
:100E1000E082608BE189884202DA608B401C60834B
:100E2000606A10B12846616A884700BF40F22771A6
:100E30002068FFF712FF08B3A08A60B9002240F2D1
:100E400027712068FFF733FF012240F226612068F6
:100E5000FFF72DFF37E0638A6268D15C2068FFF7F7
:100E6000BCFF608A401C80B26082A189884201DB9D
:100E700000206082A08A401EA08224E040F2266109
:100E80002068FFF7EAFEF0B1A08A50B9002240F2D4
:100E900026612068FFF70BFF206AA0B1206A804717
:100EA00011E0638A6268D15C2068FFF796FF608A70
:100EB000401C80B26082A189884201DB00206082F0
:100EC000A08A401EA08270BDF8B504460E461746A3
:100ED000002525E00CE001F04DF9A08A009001F01A
:100EE0006BF9A089BDF80010884200DD01E000BF69
:100EF000F1E700BF705D228A6168885401F03AF919
:100F0000208A401C80B22082A189884201DB002017
:100F10002082A08A401CA08201F04EF9681C85B294
:100F2000BD42D7DB012240F227712068FFF7BFFEE8
:100F3000F8BD00000A480B4908600B4848600B48A0
:100F400088604FF480608881C881002008824882D0
:100F5000C882088348838882C861086248627047F3
:100F60000038014080010020A8010020A8050020D1
:100F700000BFFEE70FB4054B10B503A9044A029861
:100F800000F02CF810BC5DF814FB000043190008B9
:100F9000BC0000200FB4084B10B504A902AA0398A6
:100FA00000F01CF8044602A9002000F0F3F82046E7
:100FB00010BC5DF814FB00009511000802E008C8A1
:100FC000121F08C1002AFAD170477047002001E0C3
:100FD00001C1121F002AFBD1704700002DE9FF4F0D
:100FE0008BB09A460F460546002606E025280BD012
:100FF00052460D9990476D1C761C28780028F5D133
:101000000FB03046BDE8F08F0024A04601226049B1
:1010100000E0044315F8013F203B02FA03F00842C8
:10102000F7D128782E2817D115F8010F44F00404C1
:101030002A280ED06FF02F022878A0F1300109295C
:101040000AD808EB880102EB410100EB01086D1C96
:10105000F2E757F8048B6D1C287869283ED006DC2F
:101060000028CDD063280BD0642804D136E0732843
:1010700010D075284BD052460D999047761C85E0CC
:1010800017F8040B8DF8000000208DF80100E946E8
:10109000012003E057F8049B4FF0FF3061074FF049
:1010A000000401D40AE0641C44450DDA8442FADBF2
:1010B00019F804100029F6D106E0641C8442FCDB18
:1010C00019F804100029F8D1264404E019F8010B9E
:1010D00052460D999047641EF8D257E001CF4FF069
:1010E0000A0B002802DA40422D2102E0210504D536
:1010F0002B218DF82410012103E0E10705D02021E8
:10110000F7E70DF1200908910CE00021F9E701CF84
:101110004FF00A0BF9E75946FFF7ACF801F130023E
:1011200009F8012D0028F6D1ADEB090000F1200BE4
:10113000600701D44FF00108D84502DDA8EB0B0091
:1011400000E000208046002406E009A85246005D29
:101150000D999047641C761C08988442F5DB04E0E6
:10116000302052460D999047761CB8F10001A8F145
:101170000108F5DC05E019F8010B52460D9990477E
:10118000761CBBF10001ABF1010BF4DC6D1C34E704
:10119000092801000A68531C0B601070704700009A
:1011A00070B50546304800EB0514206880470028DC
:1011B0003ED02079052802DA0520207152E02079FE
:1011C0000A2803DA2079401C20714BE0A07A38B954
:1011D0000120A07205EB4501491CC8B200F07CFA61
:1011E000208900283EDDE088218988420DDAE088E8
:1011F000401C80B2E0802189884233D105EB450153
:10120000C91CC8B200F068FA2CE0E07A002829DD99
:10121000207B401CC0B22073E17A884222DB002090
:10122000207305EB4501491CC8B200F055FA19E0DE
:101230002079052802DD0520207110E0207918B101
:101240002079401E20710AE0A07A012807D10020F1
:10125000A07205EB4501891CC8B200F03DFA0020E0
:10126000E080207370BD0000D00000200B48807A21
:101270000A4AD27A904201D1002070470748807A0A
:10128000064A115C1046807A401CC0B290720A284F
:1012900001DB002090720846EFE70000700100209B
:1012A00001460020244A914201D1C81442E0234A59
:1012B000914201D148143DE0214A914202D14FF4BC
:1012C000002037E01F4A914202D14FF4801031E0F4
:1012D0001D4A914202D14FF400102BE0B1F1804F32
:1012E00001D1012026E0194A914201D1022021E0DA
:1012F000174A914201D104201CE0164A914201D1C3
:10130000082017E0144A914201D1102012E0134A3C
:10131000914201D120200DE0114A914201D140209B
:1013200008E0104A914201D1802003E00E4A914228
:1013300000D1881570470000002C014000340140A6
:10134000004C0140005001400054014000040040A6
:1013500000080040000C0040001000400014004055
:1013600000180040001C00400020004010B54FF461
:101370004070FFF709FA00F035F900F0F7F800F0D7
:1013800037F800F001F810BD7FB501210846FFF7DE
:1013900005FA1548006846081448B6FBF0F085B217
:1013A0004FF6FF74ADF80840ADF804500020ADF8DA
:1013B0000A00ADF8060001A94FF08040FFF7DEFB00
:1013C00001218807FFF7B3FB1C208DF800000420E3
:1013D0008DF8010000208DF8020001208DF8030037
:1013E0006846FFF799F97FBD4400002040420F0096
:1013F00010B500F051F800F001F810BD08B501215A
:101400003020FFF7DBF903208DF8020004208DF86F
:1014100003004002ADF8000069461C48FEF7F4FFE7
:101420004FF48050ADF8000069461848FEF7ECFF15
:101430000420ADF8000069461548FEF7E5FF4FF4BB
:101440000050ADF8000069461048FEF7DDFF0820A7
:10145000ADF8000069460E48FEF7D6FF4FF4804015
:10146000ADF8000069460B48FEF7CEFF4FF4005080
:10147000ADF8000069460748FEF7C6FF8020ADF8CA
:10148000000069460348FEF7BFFF08BD0010014099
:1014900000140140002001400021284A9172D172BD
:1014A0001173002018E06421254A02EB001211811B
:1014B0000221234A02EB001211710021204A02EBA3
:1014C000001291721E4A02EB0012D1721C4A02EB0A
:1014D00000121173411CC8B20A28E4DB64221849C7
:1014E0000A87052281F83B206422A1F848200522C2
:1014F00081F84B206422A1F85820052281F85B2056
:101500006422A1F86820052281F86B200D490C4A5D
:1015100011600D4911610D4911620D4911630D49A9
:1015200011640D4911650D4911660D4911670D4989
:10153000C2F880100C49C2F890107047700100206A
:10154000D000002025060008550600086D0600089A
:10155000850600089D060008B5060008CD060008AF
:10156000E5060008FD0600083D06000808B5012153
:101570001420FFF723F9012000F04AF8022000F0C0
:1015800047F8032000F044F8042000F041F803205D
:101590008DF8020010208DF803008020ADF80000C7
:1015A00069460E48FEF730FF4FF48070ADF800003A
:1015B00069460A48FEF728FF4FF48050ADF8000056
:1015C00069460748FEF720FF4FF48060ADF8000041
:1015D00069460248FEF718FF08BD000000100140F0
:1015E0000008014010B5FFF7A5FCFEF7D1FFFFF79B
:1015F00063F9FEF7F7FE10BD10B5002404E02046A5
:10160000FFF7CEFD601CC4B2032CF8DB10BD000058
:10161000411EC8B218B980210A4A116111E001289F
:1016200003D10102074A11610BE0022803D1C10274
:10163000054A116005E0032803D14FF48061014A97
:10164000116170470010014010080140411EC8B2EE
:1016500018B980210A4A516111E0012803D1010221
:10166000074A51610BE0022803D1C102054A11600B
:1016700005E0032803D14FF48061014A51617047AE
:101680000010014014080140012806D11049C96822
:1016900081F080010E4AD16019E0022806D10C4980
:1016A000C96881F480710A4AD16010E0032806D12C
:1016B0000849096881F48051064A116007E004284E
:1016C00005D10349C96881F48061014AD16070473E
:1016D000001001400C0801400649C97A054A5054DF
:1016E0001146C97A491CC9B2D1720A2901DB00210D
:1016F000D1727047700100202DE9FF5F04460D464E
:1017000091469A467448844202D07448844207D174
:101710002046FFF7C5FD83460121FFF74FF806E09D
:101720002046FFF7BDFD83460121FFF737F8002D66
:1017300041D100212046FFF7FAF9AB4666488442C2
:1017400002D14FF0190B28E0B4F1804F02D14FF0D5
:101750001C0B22E06248844202D14FF01D0B1CE0BA
:101760006048844202D14FF01E0B16E05E4884426E
:1017700002D14FF0320B10E05C48844202D14FF0AE
:10178000360B0AE05A48844202D14FF0370B04E08E
:101790005248844201D14FF02C0B8DF800B08DF8E7
:1017A00001908DF802A000208DF803006846FEF736
:1017B000B3FFBDE8FF9F484884420BD047488442AE
:1017C00008D04C48844205D04B48844202D04B4854
:1017D000844202D14A48066801E049480668642DFF
:1017E0000AD242F20F7842F21070B6FBF0F0B0FB72
:1017F000F5F0401E87B213E040F6B830854209D2BA
:101800004FF063086420B6FBF0F0B0FBF5F0401E2B
:1018100087B205E04FF00008B6FBF5F0401E87B236
:10182000ADF80870ADF804800020ADF80A00ADF8FE
:1018300006008DF80C0001A92046FFF79FF9012151
:101840002046FFF765F9012211462046FFF78CF983
:1018500001212046FFF76BF94FF0000B1E48844230
:1018600002D14FF0190B28E0B4F1804F02D14FF0B4
:101870001C0B22E01A48844202D14FF01D0B1CE0E1
:101880001848844202D14FF01E0B16E016488442DD
:1018900002D14FF0320B10E01448844202D14FF0D5
:1018A000360B0AE01248844202D14FF0370B04E0B5
:1018B0000A48844201D14FF02C0B8DF800B08DF80E
:1018C00001908DF802A001208DF803006846FEF714
:1018D00023FF00BF6DE70000002C014000340140F1
:1018E0000004004000080040000C004000100040D0
:1018F00000140040004C01400050014000540140E1
:10190000440000202DE9F04105460E4617462846C2
:10191000FEF750FD04460CB9BDE8F081E06908B15E
:10192000E06980473A4631462046FFF7CDFA00BFCE
:10193000F2E713B50446012201A92046FFF7E2FFB2
:101940001CBD70B504460D46E1B20020FFF7F1FF63
:10195000204670BD012080F3108800BFFFF706FD10
:1019600000F092FCFEF7C2FCFEF7ACFC00F0D4FEE7
:1019700000BFFEE710B504460E48006844600E48FC
:101980000068844207D20B480168091D0B480068B3
:1019900000F0CAFB0CE007480168091D0848006810
:1019A00000F0C2FB07480068844201D20548046089
:1019B00010BD0000580000206C00002060000020D6
:1019C0005C000020880000202DE9F04105460F460C
:1019D0001FB9A80000F084FA00E03846064656B168
:1019E000582000F07DFA04460CB1266304E030462E
:1019F00000F0F8FB00E0002424B1A900A522206B30
:101A0000FEF716FC2046BDE8F081000070B523E02B
:101A100000F0B6FE1348006808B9012000E000207D
:101A2000054601F0DFFBBDB900F0A4FB0D48C0681E
:101A3000C468201D00F0EEFA0B480068401E0A49F9
:101A400008600A480068401E0849086000F0B4FBBE
:101A5000204600F059F800BF044800680028D7D19C
:101A600070BD0000480A00206800002064000020CB
:101A700070B504460D46206C70B1216CE0680844D6
:101A8000E0606168E068884201D32068E060284631
:101A9000226CE168FEF7BAFB70BD2DE9F041044607
:101AA0000E4615460027206C40B37DB93146226CA6
:101AB000A068FEF7ABFB216CA0680844A060D4E9E5
:101AC000011088421AD32068A06017E03146226CCA
:101AD000E068FEF79BFB216CE068401AE06021683B
:101AE000E068884203D2216C6068401AE060022DF1
:101AF00004D1A06B10B1A06B401EA063A06B401C72
:101B0000A0633846BDE8F08110B50446206B00F0B4
:101B100069FB204600F066FB10BD000030B54FF4B5
:101B20008843174800F007042CB1C01D20F00700BF
:101B3000134C041B1B1B0246124C22600024114D47
:101B40006C60D018083820F007000F4C206000248B
:101B50000D4D2D686C600C4D2D682C601146441A9B
:101B60004C60094C24680C60084D4C682C60084D92
:101B70004C682C604FF00044064D2C6030BD0000D6
:101B8000700A0020A4000020AC000020B400002057
:101B9000B0000020B800002000BFFFF737FF034867
:101BA00000680128F9D900F063FBF6E7A8090020D6
:101BB0002DE9F04704460F4616469946DDF8208089
:101BC000002507E0795D04F134004155785D00B9E6
:101BD00002E06D1C102DF5D300BF002143200155FC
:101BE000052E00D30426E662201D00F09AFA04F1C7
:101BF000180000F096FA2461C6F10500A061646245
:101C00000020E064206584F85400BDE8F0870000FF
:101C100010B5002407E004EB84010F4A02EB8100B9
:101C200000F072FA641C052CF5D30C4800F06CFA35
:101C30000B4800F069FA0B4800F066FA0A4800F019
:101C400063FA0A4800F060FA044809490860044849
:101C50000849086010BD0000A80900200C0A0020F7
:101C6000200A0020340A0020480A00205C0A0020D4
:101C70005C0000206000002010B50146164800E01E
:101C8000006803688B42FBD30246436813448B42CF
:101C900004D143684C682344436001460A464B68BC
:101CA00013440468A34211D10C4C03682468A34276
:101CB00008D04B680468646823444B6003681B6861
:101CC0000B6005E0054B1B680B6001E003680B60CF
:101CD000884200D0016010BDA4000020AC000020AC
:101CE00070B5054600F046FAA86B08B9012400E07B
:101CF000002400F061FA204670BD70B5054600F082
:101D000039FAA86BE96B884201D1012400E0002474
:101D100000F052FA204670BD2DE9F04706460C4609
:101D200090460025206800284BD02046416849682D
:101D3000416000F1080142688A4202D14168496865
:101D400041604168D1F80C9000BF20464168496865
:101D5000416000F1080142688A4202D14168496845
:101D600041604168CF6806EB4510076007F1340019
:101D700006EB45114860786C06EB4511886006EB70
:101D8000451080F80C80F86A06EB45110861B8F13F
:101D9000030F05D1B86A18B1022006EB451108738C
:101DA000002006EB45114861F86C06EB451188618F
:101DB000386B00F023F806EB451188836D1C4F4506
:101DC000C3D12846BDE8F0870A490968096809B9FE
:101DD000012100E0002121B14FF0FF31064A1160DE
:101DE00006E004490968C968C868034A4168116087
:101DF000704700005C00002088000020024600219F
:101E000001E0521C491C1078A528FAD0890888B234
:101E10007047000007480068401C08B9012000E036
:101E2000002018B9FEF7D2F900BFFEE7FEF7CEF9A1
:101E300000BFFEE79800002010B5044600F09AF9B4
:101E400011E0606A08B9012000E0002038B904F10F
:101E5000240001F081F918B100F084FB00E005E0F6
:101E6000A06C401EA064A06C0028EADC00BF4FF00C
:101E7000FF30A06400F0A0F900F07CF911E02069C7
:101E800008B9012000E0002050B904F1100001F071
:101E900063F908B100F066FB606C401E606400E00E
:101EA00002E0606C0028EADC00BF4FF0FF306064A5
:101EB00000F082F910BD70B505460E463146284641
:101EC000FEF7CFF92846FEF7C5F9044602E02020C8
:101ED0002855641C0F2CFAD300202855281970BDF2
:101EE0002DE9F04104464FF0000800F049FC3C4861
:101EF000006808B9FFF712FE3A4800682040002841
:101F00005DD19CB1083404F0070078B104F00700FB
:101F1000C0F10800044404F0070008B9012000E003
:101F2000002018B9FEF752F900BFFEE7002C46D09A
:101F30002D480068844242D82C4E3046056801E0A6
:101F40002E462D686868A04202D228680028F7D182
:101F500023480068854232D0306800F108082868BC
:101F600030606868001B102812D92F1907F007008D
:101F700008B9012000E0002018B9FEF727F900BFDA
:101F8000FEE76868001B78606C603846FFF774FEF7
:101F9000154968680968081A134908600846006806
:101FA00013490968884203D20F4800681049086045
:101FB0000C4968680968084368600020286001F0DF
:101FC00011F908F0070008B9012000E0002018B955
:101FD000FEF7FCF800BFFEE74046BDE8F0810000D8
:101FE000AC000020B8000020B0000020A4000020B9
:101FF000B4000020001F4FF080730360001F0160D9
:10200000001F034B03601438026020387047000043
:10201000151E000801460A69D1E901309860D1E92E
:10202000010358605068884201D1886850600020E0
:1020300008611068401E1060106870472DE9F0417B
:102040000546884616460024052700F099FB1D48E2
:102050000068804530D300BF7F1E07EB87021A4B14
:1020600003EB820105EB44100122FFF755FE044407
:10207000002FF1D105EB4410022214490968FFF743
:102080004BFE044405EB4410022211490968FFF796
:1020900043FE044405EB441004220E49FFF73CFEC6
:1020A000044405EB441003220B49FFF735FE0444BA
:1020B00016B10A480068306001F094F82046BDE887
:1020C000F081000068000020A80900205C000020CA
:1020D00060000020480A00205C0A00201C0000204C
:1020E00070B505460C46214601A0FEF743FF70BDC2
:1020F000C8CECEF1A3BA257320B7A2CFD6D5BBD216
:10210000E7B3F60D0A00000000F1080141604FF04E
:10211000FF31816000F10801C160016100210160AF
:10212000704700210161704710B502460B685C1CC6
:102130000CB9106907E002F1080000E0406844684B
:1021400024689C42FAD944684C604C68A16088605D
:1021500041600A611468641C146010BD42684A60E2
:1021600093688B60936859609160086103685B1C99
:102170000360704710B5FEF729F80D480068401C51
:102180000B490860BFF34F8FBFF36F8F084600689D
:1021900001280BD107480068C0B208B9012000E04F
:1021A000002018B9FEF712F800BFFEE710BD0000CE
:1021B0009800002004ED00E010B50948006818B947
:1021C000FEF704F800BFFEE705480068401E04491A
:1021D00008600846006810B90020FDF7FEFF10BD3A
:1021E0009800002070B506463546002E31D0083DD7
:1021F0002C46184960680968084008B1012000E0D1
:10220000002018B9FDF7E2FF00BFFEE7206808B91B
:10221000012000E0002018B9FDF7D8FF00BFFEE75D
:102220000C4960680968084098B1206888B9094974
:10223000606809688843606000F0A2FA0649606837
:1022400009680844044908602046FFF715FD00F0BE
:10225000C9FF70BDB8000020B000002003484FF057
:10226000E021486107200861704700003F19010024
:102270004FF0805003490860BFF34F8FBFF36F8F5B
:102280007047000004ED00E010B50023012244F681
:1022900020610248FFF730FA10BD00000010004036
:1022A00070B50446002634B31548006808B901200B
:1022B00000E0002018B9FDF789FF00BFFEE700F03D
:1022C0005FFA1048006805190F480068001DFFF705
:1022D000A1FE50B90C48006890F82C1001208840ED
:1022E0000A4909688143094801602846FFF742FB13
:1022F00000F078FF06460EB9FFF7BAFF70BD000088
:102300008C0000206C00002058000020700000208D
:10231000FEB5054600202870264800680290254931
:1023200009684801FFF7DCFD0446002C40D06A46EE
:1023300020460299FFF782FE029064210098B0FBCC
:10234000F1F00090009800282FD00020019028E0A4
:10235000019804EB401080690099B0FBF1F60198F8
:1023600004EB401041682846FFF7A5FD05464EB135
:10237000019804EB401033460FA182692846FEF70E
:1023800009FE07E0019804EB40100EA1826928467F
:10239000FEF700FE2846FDF75DFF05440198401C4E
:1023A0000190DDE901018842D2D32046FFF71AFFF0
:1023B000FEBD000068000020092575090925752566
:1023C000250D0A0009257509093C3125250D0A004E
:1023D00008B500BF1CE00023C82269460D4800680C
:1023E00000F0E5FB0446012C0FD1009801780AA00B
:1023F000FEF7C0FD0098816812A0FEF7BBFD0098B3
:1024000041881BA0FEF7B6FD02E00220FFF73CF971
:10241000E1E7000014000020BDD3CAD5B5BDCFFB55
:10242000CFA2B6D3C1D0CAFDBEDD70744D73672D87
:102430003E75634D6573736167654944203D202592
:10244000640D0A00BDD3CAD5B5BDCFFBCFA2B6D3AC
:10245000C1D0CAFDBEDD70744D73672D3E756C44EE
:102460006174615B305D203D2025640D0A00000031
:10247000BDD3CAD5B5BDCFFBCFA2B6D3C1D0CAFD9F
:10248000BEDD70744D73672D3E7573446174615B7E
:10249000305D203D2025640D0A0000007FB5054613
:1024A000002028702A4800680390294909684801DB
:1024B000FFF716FD0446002C49D000222046039960
:1024C000FFF7BCFD03900020029039E0029804EB76
:1024D0004010007B012806D0022806D0032806D031
:1024E000042808D105E0522607E0422605E05326DD
:1024F00003E0442601E0002600BF00BF029804EB81
:10250000401041682846FFF7D6FC0546029804EBC8
:1025100040108068029904EB4111898BCDE90010CD
:10252000029804EB401032460AA103692846FEF7E0
:1025300031FD2846FDF78EFE05440298401C0290AE
:10254000DDE902018842C1D32046FFF74BFE7FBD83
:102550006800002009256309257509257509257579
:102560000D0A000001200149086070477C0000202E
:10257000002700BF43E022480068C821B0FBF1F209
:1025800001FB12041F480068B04238D0D7B914B913
:10259000AC4200D001271B480068C821B0FBF1F213
:1025A00001FB1200A04206D30320FFF74FF80420DE
:1025B000FFF74CF820E00320FFF72AF80420FFF78C
:1025C00027F819E014B9AC4200D000270D48006884
:1025D000C821B0FBF1F201FB1200A04206D3032098
:1025E000FFF716F80420FFF713F805E00320FFF7C4
:1025F0002DF80420FFF72AF8024806682546BAE7B6
:10260000180000201C00002070B505460C461DB9BE
:10261000FDF7DCFD00BFFEE71348016818312846CE
:10262000FFF782FD10480068001DFFF7F3FC50B96A
:102630000D48006890F82C10012088400B4909686B
:1026400081430A480160601C30B907480168091DD0
:102650000748FFF783FD05E0064800680619304685
:10266000FFF788F970BD00005800002070000020BE
:102670005C0A00206C00002010B504461CB9FDF770
:10268000A5FD00BFFEE7034800682060024800681F
:10269000606010BD800000206C0000200BA0FEF7E1
:1026A00069FC18A0FEF766FC08A0FEF763FC0BE0CF
:1026B00018480068401C17490860FDF75DFFFEF7E9
:1026C0009BFF1420FFF7ECFDF2E700003D3D3D3D90
:1026D0003D3D3D3D3D3D3D3D3D3D3D3D3D3D3D3D2A
:1026E0003D3D3D3D3D3D3D3D3D3D3D3D3D3D3D3D1A
:1026F0003D3D3D3D3D3D3D3D3D3D3D3D3D3D3D3D0A
:102700003D0D0A003DCFB5CDB3BFAABBFAD6B4D0BC
:10271000D00D0A00180000201FB500200090019085
:102720000290034680220FA10390104800F0DAFBCC
:102730000446012C0FD1FDF749FDA01E0C4908608D
:1027400001200C49086000200B4908600B49086013
:1027500000F0A8F904E01CB9FDF738FD00BFFEE762
:102760001FBD000049444C4500000000991B0008B3
:1027700088000020740000206C0000201C00002055
:1027800002480068401C0149086070478C00002026
:1027900010B52E48006818B101202D49086053E09B
:1027A00000202B4908602B4800682B490860084628
:1027B00000682A49096888420BD92949096801F14A
:1027C0004C00C96C244A1268244B1B68D21A11446D
:1027D00001602148006821490860214800680068BC
:1027E0001F490968096B884205D81D4801683431C2
:1027F0000068FFF775FC1B480068B0FA80F0C0F174
:102800001F0404EB8400184951F8200008B101208E
:1028100000E0002018B9FDF7D9FC00BFFEE704EB8B
:102820008401114A02EB810041684968416000F16E
:10283000080142688A4202D14168496841604168A2
:10284000C968074A116000BF10BD00008C0000205D
:102850007C0000201C00002094000020900000203C
:102860005800002070000020A8090020ADF5007D70
:1028700000207E9033487F9063E0FEF7F7FC04462B
:10288000002C56D0012C04D0042C1AD0072C4ED189
:102890002DE02DA0FEF76EFB38A0FEF76BFB01A824
:1028A000FFF7FCFD01A941A0FEF764FB41A0FEF784
:1028B00061FB01A8FFF72CFD01A93CA0FEF75AFB24
:1028C00036E09DF8F801401CC0B27E9000230A2239
:1028D0007EA94348006800F037FA012803D041A0E0
:1028E000FEF748FB02E04EA0FEF744FB20E07F9895
:1028F0000078401C7F9908707F988068401C7F9901
:1029000088607F984088401C7F99488000230A2275
:102910007FA93348006800F017FA012803D049A0C6
:10292000FEF728FB02E056A0FEF724FB00BF00BF25
:1029300000BF0120FEF7A8FEFDF71EFE1420FFF7E2
:10294000AFFC9AE7C00000203D3D3D3D3D3D3D3D93
:102950003D3D3D3D3D3D3D3D3D3D3D3D3D3D3D3DA7
:102960003D3D3D3D3D3D3D3D3D3D3D3D3D3D3D3D97
:102970003D3D3D3D3D3D3D3D3D0D0A00C8CECEF1C6
:10298000C3FB202020202020C8CECEF1D7B4CCAC71
:1029900020D3C5CFC8BCB6202020CAA3D3E0D5BB66
:1029A00020C8CECEF1D0F2BAC50D0A0025730D0AAB
:1029B000000000000D0AC8CECEF1C3FB202020206D
:1029C000202020D4CBD0D0BCC6CAFD20202020207F
:1029D00020202020CAB9D3C3C2CA0D0A00000000BB
:1029E000140000204B32BCFCB0B4CFC2A3ACCFF279
:1029F00078517565756531B7A2CBCDCAFDBEDDCA0C
:102A0000A7B0DCA3ACBCB4CAB9B5C8B4FDC1CB3166
:102A100030B8F6CAB1D6D3BDDAC5C40D0A0000007D
:102A20004B32BCFCB0B4CFC2A3ACCFF278517565C9
:102A3000756531B7A2CBCDCAFDBEDDB3C9B9A60D50
:102A40000A0000004B33BCFCB0B4CFC2A3ACCFF241
:102A500078517565756532B7A2CBCDCAFDBEDDCAAA
:102A6000A7B0DCA3ACBCB4CAB9B5C8B4FDC1CB3106
:102A700030B8F6CAB1D6D3BDDAC5C40D0A0000001D
:102A80004B33BCFCB0B4CFC2A3ACCFF27851756568
:102A9000756532B7A2CBCDCAFDBEDDB3C9B9A60DEF
:102AA0000A0000001CB52248014609780191FF2167
:102AB000024611700146097800919DF8001001F05E
:102AC00010011C4A117007211B4A116009E01A49C4
:102AD0000968491E184A11609DF800104906090E40
:102AE00000919DF8001001F080018029EFD012497B
:102AF00009680902104A11601146098801F4E06171
:102B000011600B4A019911700C48006840F4700084
:102B10000A4908600846006840F070400860FFF706
:102B20009DFB002006490860FDF71EFB00201CBD30
:102B300000E400E09C000020A000002020ED00E068
:102B4000980000202DE9F04706460D4690464FF0CC
:102B500000090EB1012000E0002018B9FDF736FB96
:102B600000BFFEE70DB9002702E006FB05F0471C99
:102B700007F15400FFF7B4F9044674B10DB92460AD
:102B800002E004F154002060E66325640121204640
:102B900000F09EF884F85080A146B9F1000F03D1EF
:102BA000FDF714FB00BFFEE74846BDE8F0872DE9BE
:102BB000FF4383B005460E461F464FF000092C46E2
:102BC0001CB9FDF703FB00BFFEE70EB9206C08B986
:102BD000012000E0002018B9FDF7F8FA00BFFEE779
:102BE00000BFFFF7C7FAA06B68B3D4F80C8031467A
:102BF0002046FEF73DFF8FB9A06B401EA063206901
:102C000008B9012000E00020B8B904F1100000F07C
:102C1000A3FA012811D1FFF72BFB0EE0C4F80C80BA
:102C2000606A08B9012000E0002030B904F12400F6
:102C300000F092FA08B1FFF71BFBFFF7BDFA012085
:102C400007B0BDE8F083059818B9FFF7B5FA002082
:102C5000F6E7B9F1000F04D101A8FFF70DFD4FF021
:102C60000109FFF7A9FAFFF78BFDFFF783FA606C04
:102C7000401C08B900206064A06C401C08B900200A
:102C8000A064FFF799FA05A901A800F0F1F8C0B90E
:102C90002046FFF725F870B104F124000599FFF7ED
:102CA000B3FC2046FFF7C8F800F09CFA002898D142
:102CB000FFF7DEFA95E72046FFF7BEF800F092FA3C
:102CC0008FE72046FFF7B8F800F08CFA0020B7E74E
:102CD00070B505460E462C461CB9FDF777FA00BFC5
:102CE000FEE7FFF747FAD4E90F12206801FB020064
:102CF00060600020A0632068A060E06B401E226C32
:102D0000216800FB0210E0604FF0FF306064A064B7
:102D100076B9206908B9012000E0002080B904F1EB
:102D2000100000F019FA01280AD1FFF7A1FA07E014
:102D300004F11000FFF7E8F904F12400FFF7E4F9CB
:102D4000FFF73AFA012070BD2DE9FF4383B0064634
:102D500088461D464FF0000934461CB9FDF736FA87
:102D600000BFFEE7B8F1000F01D1206C08B90120C7
:102D700000E0002018B9FDF729FA00BFFEE7022D98
:102D800002D1E06B012801D1012000E0002018B938
:102D9000FDF71CFA00BFFEE700BFFFF7EBF9A06BE1
:102DA000E16B884201D3022D1DD12A4641462046BF
:102DB000FEF773FE0746606A08B9012000E00020B4
:102DC00040B904F1240000F0C7F9012805D1FFF74C
:102DD0004FFA02E00FB1FFF74BFAFFF7EDF90120D0
:102DE00007B0BDE8F083059818B9FFF7E5F90020B2
:102DF000F6E7B9F1000F04D101A8FFF73DFC4FF051
:102E00000109FFF7D9F9FFF7BBFCFFF7B3F9606CD5
:102E1000401C08B900206064A06C401C08B9002068
:102E2000A064FFF7C9F905A901A800F021F8C0B90D
:102E30002046FEF762FF70B104F110000599FFF71C
:102E4000E3FB2046FEF7F8FF00F0CCF90028A4D100
:102E5000FFF70EFAA1E72046FEF7EEFF00F0C2F9F9
:102E60009BE72046FEF7E8FF00F0BCF90020B7E73B
:102E70002DE9F04104460D461CB9FDF7A7F900BF46
:102E8000FEE71DB9FDF7A2F900BFFEE7FFF772F9F3
:102E9000124807682868401C08B9002619E0104944
:102EA00020680968884204D06068B84201D80126C9
:102EB0000FE06068381A2968884209D2286861687A
:102EC000791A401A28602046FFF7D6FB002600E05A
:102ED0000126FFF771F93046BDE8F0816C00002053
:102EE000800000202DE9FF4F81B0804616469A46AB
:102EF000DDE90E5BB8F1000F03D1FDF767F900BF04
:102F0000FEE7052D01D2012000E0002018B9FDF7F1
:102F10005DF900BFFEE730461099FEF755FD044607
:102F2000002C5DD0701E216B01EB800929F0070990
:102F300009F0070008B9012000E0002018B9FDF7EA
:102F400045F900BFFEE700962A462046119B0299EC
:102F5000FEF72EFE524641464846FFF74BF82060EA
:102F6000BBF1000F01D0CBF80040FFF703F9254873
:102F70000068401C234908602348006840B9224883
:102F800004600846006801280CD1FEF741FE09E004
:102F90001E48006830B91C480068C06AA84201D8C1
:102FA000194804601A480068401C1949086008461E
:102FB0000068606494F82C10012088401549096865
:102FC000084314490860E16A01EB8101124A02EBEF
:102FD0008100211DFFF7C2F80127FFF7EDF801E09E
:102FE0004FF0FF37012F09D10848006830B106487B
:102FF0000068C06AA84201D2FFF73AF9384605B026
:10300000BDE8F08F68000020580000207400002008
:103010008400002070000020A80900202DE9F04164
:103020004FF0000841480068002872D1404800680D
:10303000401C3F49086008460668DEB93D48006804
:10304000006808B9012000E0002018B9FDF7BEF8BB
:1030500000BFFEE737480768374800683549086011
:103060003548076035480068401C34490860FEF761
:10307000ABFE00BF3248006886423CD300BF2D48FB
:103080000068006808B9012000E0002020B14FF07E
:10309000FF302B4908602DE026480068C068C468EE
:1030A0006568AE4202D22648056023E0201DFEF787
:1030B000B1FFA06A18B104F11800FEF7ABFF94F855
:1030C0002C10012088401F49096808431D490860E9
:1030D000E16A01EB81011C4A02EB8100211DFFF72F
:1030E0003DF81A49E06A0968C96A8842C7D34FF0B7
:1030F0000108C4E700BF15480068C06A00EB800003
:10310000114951F82000012808D94FF0010805E0C5
:10311000FFE70F480068401C0D4908600D48006833
:1031200008B14FF001084046BDE8F0818C00002056
:103130006C0000205C000020600000208000002067
:103140008800002070000020A809002058000020FE
:10315000780000207C00002070B50646F068C46846
:103160001CB9FDF733F800BFFEE704F11800FEF7C5
:1031700051FF16480068A8B9201DFEF74BFF94F8D0
:103180002C10012088401249096808431049086042
:10319000E16A01EB81010F4A02EB8100211DFEF77C
:1031A000DDFF04E004F118010B48FEF7D7FF0B49DF
:1031B000E06A0968C96A884204D9012501200849E2
:1031C000086000E00025284670BD00008C0000204B
:1031D00070000020A8090020340A002058000020B8
:1031E0007C00002070B500253048006818B9FCF755
:1031F000EDFF00BFFEE7FEF7BDFF2C480068401E54
:103200002A4908600846006800284BD12848006811
:10321000002847D024E02748C068C46804F118009B
:10322000FEF7F8FE201DFEF7F5FE94F82C100120A5
:1032300088402149096808431F490860E16A01EB99
:1032400081011E4A02EB8100211DFEF787FF1C4908
:10325000E06A0968C96A884202D3012019490860F6
:103260001448006808B9012000E000200028D2D0EE
:103270001548006878B10AE0FFF7D0FE10B10120D0
:103280001049086010480068401E0F4908600E4849
:1032900000680028F0D10B480068012802D1012500
:1032A000FEF7E6FFFEF788FF284670BD8C00002081
:1032B00068000020340A002070000020A8090020C7
:1032C000580000207C00002078000020EC3200082C
:1032D00000000020C0000000BC0F0008AC33000854
:1032E000C0000020B0550000CC0F00080000000016
:1032F00000000000000000000000000000000000CE
:1033000000000000000000000000000000000000BD
:1033100000000000000000000000000000000000AD
:103320000102030401020304060708090204060857
:1033300000A24A0400000000000000000102030493
:10334000060708090000000000000000000000005F
:10335000000000000000000000000000000000006D
:10336000000000000000000000000000000000005D
:10337000000000000000000000000000000000004D
:1033800000000000AAAAAAAA000000000000000095
:10339000000000000000000000000000000000002D
:0C33A00000000000000000000000000021
:0400000508000131BD
:00000001FF
