:020000040800F2
:1000000060560020E90100080F070008E504000819
:100010000B07000875030008BD0F00080000000072
:100020000000000000000000000000004501000882
:10003000CB0300080000000089010008190A00082D
:10004000030200080302000803020008030200087C
:10005000030200080302000803020008030200086C
:10006000030200080302000803020008030200085C
:10007000030200080302000803020008030200084C
:10008000030200080302000803020008030200083C
:10009000030200080302000803020008030200082C
:1000A000030200080302000803020008030200081C
:1000B000990A00080302000803020008030200086E
:1000C00003020008030200080302000803020008FC
:1000D000030200086D0C0008030200080302000878
:1000E00003020008030200080302000803020008DC
:1000F00003020008030200080302000803020008CC
:1001000003020008030200080302000803020008BB
:100110000302000803020008350B00080302000870
:10012000030200080302000803020008030200089B
:10013000DFF80CD000F0A2F800480047A119000831
:1001400060560020204B19680868B0E8F00F80F373
:100150000988BFF36F8F4FF0000080F311884EF0D5
:100160000D0E70470000000006480068006880F32C
:10017000088862B661B6BFF34F8FBFF36F8F00DFA1
:1001800000BF00BF08ED00E0EFF30980BFF36F8F01
:100190000D4B1A6820E9F00F106008B54FF0100001
:1001A00080F3118802F030FA4FF0000080F31188DC
:1001B000BDE8084019680868B0E8F00F80F30988C6
:1001C000BFF36F8F704700BF54000020EFF3118022
:1001D0004FF0100181F31188704780F31188704748
:1001E000EFF3058070470000064880470648004747
:1001F000FEE7FEE7FEE7FEE7FEE7FEE7FEE7FEE7D7
:10020000FEE7FEE7390A000831010008D2B201E03A
:1002100000F8012B491EFBD270470022F6E710B50B
:1002200013460A4604461946FFF7F0FF204610BD64
:10023000421C10F8011B0029FBD1801A70470346AD
:1002400011F8012B00F8012B002AF9D1184670474C
:1002500030B50B46014600202022012409E021FA96
:1002600002F59D4205D303FA02F5491B04FA02F593
:100270002844151EA2F10102F1DC30BD064C074DE9
:1002800006E0E06840F0010394E807009847103466
:10029000AC42F6D3FFF750FF882F0008A82F0008C4
:1002A00010B502F0F3FA0149086010BD10000020FB
:1002B0001FB500201B4A0123CDE9012000930390C4
:1002C00003464FF4007218A11A4802F00DFC0020FA
:1002D000194A0223CDE901200093039003464FF40D
:1002E000007216A1184802F0FFFB0020174A0323F2
:1002F000CDE901200093039003464FF4007214A14E
:10030000164802F0F1FB0020154A0423CDE9012034
:100310000093039003464FF4007212A1144802F0B8
:10032000E3FB1FBD00000020765461736B557365BD
:1003300072494600FD2600080400002076546173CF
:100340006B4C454400000000092300080800002011
:10035000765461736B4D736750726F0029240008E7
:100360000C000020765461736B537461727400004A
:100370001D25000800BFFEE7014609B9094870477E
:10038000012901D10020FAE7022901D10020F6E776
:10039000032901D10020F2E7042901D10020EEE772
:1003A0000020ECE76C01002008B525208DF8000046
:1003B00001208DF8010000208DF8020001208DF849
:1003C0000300684600F0A4F908BD70472DE9F0412C
:1003D000024600250026002000230024002791F873
:1003E00003C00CF00F0591F803C00CF0100CBCF129
:1003F000000F03D091F802C04CEA050591F800C047
:10040000BCF1000F31D0146800202BE04FF0010C3C
:100410000CFA00F3B1F800C00CEA03069E4220D1AA
:1004200083004FF00F0C0CFA03F7BC4305FA03FCF2
:100430004CEA040491F803C0BCF1280F06D14FF038
:10044000010C0CFA00FCC2F814C00AE091F803C0D9
:10045000BCF1480F05D14FF0010C0CFA00FCC2F8BA
:1004600010C0401C0828D1D31460B1F800C0BCF102
:10047000FF0F34DD546800202EE000F1080C4FF02F
:10048000010808FA0CF3B1F800C00CEA03069E421A
:1004900021D183004FF00F0C0CFA03F7BC4305FA8F
:1004A00003FC4CEA040491F803C0BCF1280F05D109
:1004B00000F1080C08FA0CF8C2F8148091F803C097
:1004C000BCF1480F07D100F1080C4FF0010808FA01
:1004D0000CF8C2F81080401C0828CED35460BDE848
:1004E000F081000009A100200CE00A5C124B1A8088
:1004F00000BF114A121F128802F04002002AF8D0F1
:10050000421CD0B22A28F0D300BFFEE70D0A456E88
:1005100074657220486172644661756C745F4861ED
:100520006E646C65722C2053797374656D2048611C
:100530006C742E0D0A000000043801404CF6CC40CB
:1005400001490860704700000030004010B500F01D
:1005500001F810BD4AF6AA20014908607047000062
:100560000030004001494860704700000030004002
:100570000149886070470000003000400149086070
:10058000704700000030004000B585B00121052013
:1005900000F010F90121880300F00CF94FF400700D
:1005A000ADF8100018208DF8130003208DF812000C
:1005B00004A91848FFF70AFF4FF48060ADF8100057
:1005C00004208DF8130004A91248FFF7FFFE4FF432
:1005D000E13000900020ADF80400ADF80600ADF861
:1005E0000800ADF80C000C20ADF80A0069460A4876
:1005F00000F0A8FB012240F22551074800F07DFBE6
:100600000121054800F043FB4021034800F036FB80
:1006100005B000BD000801400038014004480068F2
:1006200000F0200008B9012070470020FCE700001E
:100630000818014010B500F009F820B100F012F8D8
:1006400008B1012010BD0020FCE70000044800684C
:1006500000F0100008B9012070470020FCE70000FE
:10066000081801400448006800F0080008B901209B
:1006700070470020FCE7000008180140044880682B
:1006800000F4004008B9012070470020FCE700009A
:10069000002001400448006800F0080008B901206B
:1006A00070470020FCE700000814014004488068FF
:1006B00000F4804008B9012070470020FCE70000EA
:1006C000002001400448806800F4005008B901206F
:1006D00070470020FCE700000020014004488068CB
:1006E00000F0800008B9012070470020FCE70000FE
:1006F0000020014010B5FFF791FF20B1FFF7A6FFE2
:1007000008B1012010BD0020FCE700BFFEE77047E4
:1007100070B5002100230F22C47804B3154C24685F
:1007200004F4E064C4F5E064210AC1F10403CA40A2
:10073000447804FA03F184781440214309010E4CF3
:100740000678A155047804F01F050124AC40057813
:100750006D11AD0005F1E025C5F8004109E0047810
:1007600004F01F050124AC40044D0678761145F8CD
:10077000264070BD0CED00E000E400E080E100E008
:1007800002490143024A1160704700000000FA0567
:100790000CED00E029B1064AD2690243044BDA614C
:1007A00004E0034AD2698243014BDA6170470000DA
:1007B0000010024029B1064A92690243044B9A6133
:1007C00004E0034A92698243014B9A61704700003A
:1007D000001002400348406A40F0807001494862BE
:1007E000704700000010024030B5002100220024B4
:1007F00000232D4D6D6805F00C0121B1042905D0B1
:10080000082923D105E0294D056022E0274D056028
:100810001FE0254D6D6805F47012234D6D6805F4D9
:100820008034022505EB92421CB9214D55430560E9
:100830000BE01D4D6D6805F400351DB11C4D554391
:10084000056002E0194D5543056002E0174D056053
:1008500000BF00BF144D6D6805F0F0010909154D8A
:100860006B5C0568DD4045600F4D6D6805F4E06127
:10087000090A104D6B5C4568DD4085600A4D6D6866
:1008800005F46051C90A0B4D6B5C4568DD40C560DD
:10089000054D6D6805F44041890B074D6B5CC568DB
:1008A000B5FBF3F5056130BD0010024000127A007F
:1008B00000093D002C0000203C00002010B501463E
:1008C0000022002300204A11012A02D1094C23688A
:1008D00006E0022A02D1074C236A01E0054C636A54
:1008E00001F01F02012494401C400CB1012000E0E3
:1008F000002010BD00100240014908607047000050
:100900008004424208B501210820FFF753FF03206D
:100910008DF8020010208DF803000420ADF80000CF
:1009200069460248FFF752FD08BD0000000C014077
:1009300010B500F001F810BD0CB50020019000903A
:100940003348006840F480303149086000BF3048C7
:10095000006800F4003000900198401C019000985D
:1009600018B90198B0F5A06FF1D12948006800F4DA
:10097000003010B10120009001E0002000900098AC
:10098000012843D12348006840F010002149086045
:100990000846006820F0030008600846006840F040
:1009A000020008601A4840681949486008464068D3
:1009B00048600846406840F48060486008464068E7
:1009C00020F47C1048600846406840F4E810486015
:1009D0000846006840F08070086000BF0C4800685E
:1009E00000F000700028F9D00948406820F00300AA
:1009F000074948600846406840F00200486000BF70
:100A00000348406800F00C000828F9D10CBD000034
:100A1000001002400020024010B5FFF7D7FB02F0A3
:100A2000FFF818B14FF08050024908600020FFF72E
:100A3000D4FB10BD04ED00E010B51348006840F091
:100A400001001149086008464068104908400E49F5
:100A50004860084600680E4908400B49086008468F
:100A6000006820F4802008600846406820F4FE00FA
:100A700048604FF41F008860FFF75AFF4FF0006096
:100A80000449086010BD0000001002400000FFF89B
:100A9000FFFFF6FE08ED00E010B50221480700F068
:100AA00078F858B10221480700F064F800220221CA
:100AB000480700F07FF81B480068804704210807BA
:100AC00000F067F858B10421080700F053F800223D
:100AD0000421080700F06EF81348006880470821D9
:100AE000C80600F056F858B10821C80600F042F8D0
:100AF00000220821C80600F05DF80C480068804715
:100B00001021880600F045F858B11021880600F041
:100B100031F800221021880600F04CF804480068E3
:100B2000804710BD1C000020200000202400002071
:100B30002800002010B50121064800F02AF840B135
:100B400005480068401C044908600121014800F084
:100B500011F810BD001000401800002021B10288DB
:100B600042F08002028004E002884FF67F731A4050
:100B700002807047CA430282704721B1028842F066
:100B80000102028004E002884FF6FE731A400280E0
:100B9000704730B50246002000230024158A05EA7C
:100BA0000103958905EA010413B10CB1012000E0AD
:100BB000002030BD1AB183890B43838102E0838911
:100BC0008B43838170470000002202881D4B9842AE
:100BD0000ED01D4B98420BD0B0F1804F08D01B4B6C
:100BE000984205D01A4B984202D01A4B984204D131
:100BF0004FF68F731A404B881A43174B984207D011
:100C0000164B984204D04FF6FF431A40CB881A4344
:100C100002808B8883850B8803850A4B98420BD012
:100C2000094B984208D00E4B984205D00D4B984284
:100C300002D00D4B984201D10B7A038601238382A7
:100C400070470000002C01400034014000040040C7
:100C500000080040000C004000100040001400405C
:100C600000400140004401400048014010B50248E6
:100C700000F0DDF810BD00006C01002001F40072EE
:100C8000B2F5007F00D100BFCA430280704721B196
:100C9000828942F40052828104E082894DF6FF731A
:100CA0001A408281704770B5024600240023002557
:100CB000002040F66A16B14200D100BFC1F34215D0
:100CC00001F01F03012606FA03F3012D02D19689D4
:100CD000334006E0022D02D1168A334001E0968AA5
:100CE00033400C12012606FA04F41688344013B17E
:100CF0000CB1012000E0002070BDF0B503460024D7
:100D000000260025002040F66A17B94200D100BF36
:100D10001846C1F3421401F01F06012707FA06F531
:100D2000012C01D10C3004E0022C01D1103000E084
:100D300014301AB107682F43076002E00768AF4319
:100D40000760F0BD2DE9F04786B005460E46002449
:100D5000A24600BFA1460027B08900B100BF2F46C0
:100D60002C8A4CF6FF700440F08804432C82AC8936
:100D70004EF6F3100440B088318908437189084366
:100D80000443AC81AC8A4FF6FF400440B089044371
:100D9000AC8201A8FFF728FD1F48874202D1DDF889
:100DA00010A001E0DDF80CA0A88900F4004040B1DB
:100DB0000AEBCA0000EB0A1031684900B0FBF1F8F9
:100DC00007E00AEBCA0000EB0A1031688900B0FBAB
:100DD000F1F86420B8FBF0F004012009642101FB64
:100DE0001089A88900F4004040B1322000EBC9000E
:100DF000B0FBF1F000F00700044308E0322000EB04
:100E000009106421B0FBF1F000F00F0004432C81C5
:100E100006B0BDE8F0870000003801400146888830
:100E2000C0F308007047C1F308028280704770B5B4
:100E3000044640F225512068FFF735FFE0B12068F5
:100E4000FFF7ECFFC5B2E18AA0684554E08A401C78
:100E500080B2E082E189884201DB0020E082608B81
:100E6000E189884202DA608B401C6083606A10B1BD
:100E70002846616A884700BF40F227712068FFF763
:100E800012FF08B3A08A60B9002240F227712068DF
:100E9000FFF733FF012240F226612068FFF72DFFA4
:100EA00037E0638A6268D15C2068FFF7BCFF608A24
:100EB000401C80B26082A189884201DB00206082F0
:100EC000A08A401EA08224E040F226612068FFF73D
:100ED000EAFEF0B1A08A50B9002240F226612068F3
:100EE000FFF70BFF206AA0B1206A804711E0638AF8
:100EF0006268D15C2068FFF796FF608A401C80B270
:100F00006082A189884201DB00206082A08A401EA5
:100F1000A08270BDF8B504460E461746002525E0B0
:100F20000CE001F0C3F8A08A009001F0E1F8A0897C
:100F3000BDF80010884200DD01E000BFF1E700BF0E
:100F4000705D228A6168885401F0B0F8208A401CE4
:100F500080B22082A189884201DB00202082A08A01
:100F6000401CA08201F0C4F8681C85B2BD42D7DBEA
:100F7000012240F227712068FFF7BFFEF8BD000094
:100F80000A480B4908600B4848600B4888604FF4DA
:100F900080608881C881002008824882C8820883D6
:100FA00048838882C86108624862704700380140FF
:100FB0006C010020940100209405002000BFFEE792
:100FC0000FB4054B10B503A9044A029800F02CF8A1
:100FD00010BC5DF814FB00008F190008B800002059
:100FE0000FB4084B10B504A902AA039800F01CF82E
:100FF000044602A9002000F0F3F8204610BC5DF87A
:1010000014FB0000E111000802E008C8121F08C12B
:10101000002AFAD170477047002001E001C1121F79
:10102000002AFBD1704700002DE9FF4F8BB09A4694
:101030000F460546002606E025280BD052460D999E
:1010400090476D1C761C28780028F5D10FB03046EB
:10105000BDE8F08F0024A0460122604900E004436F
:1010600015F8013F203B02FA03F00842F7D1287837
:101070002E2817D115F8010F44F004042A280ED0A9
:101080006FF02F022878A0F1300109290AD808EB67
:10109000880102EB410100EB01086D1CF2E757F8F3
:1010A000048B6D1C287869283ED006DC0028CDD042
:1010B00063280BD0642804D136E0732810D075283B
:1010C0004BD052460D999047761C85E017F8040BDB
:1010D0008DF8000000208DF80100E946012003E0B2
:1010E00057F8049B4FF0FF3061074FF0000401D424
:1010F0000AE0641C44450DDA8442FADB19F8041056
:101100000029F6D106E0641C8442FCDB19F80410C7
:101110000029F8D1264404E019F8010B52460D9934
:101120009047641EF8D257E001CF4FF00A0B002819
:1011300002DA40422D2102E0210504D52B218DF851
:101140002410012103E0E10705D02021F7E70DF18C
:10115000200908910CE00021F9E701CF4FF00A0BBC
:10116000F9E75946FFF774F801F1300209F8012D4B
:101170000028F6D1ADEB090000F1200B600701D487
:101180004FF00108D84502DDA8EB0B0000E000207D
:101190008046002406E009A85246005D0D9990475C
:1011A000641C761C08988442F5DB04E0302052462B
:1011B0000D999047761CB8F10001A8F10108F5DC03
:1011C00005E019F8010B52460D999047761CBBF1CA
:1011D0000001ABF1010BF4DC6D1C34E709280100C0
:1011E0000A68531C0B6010707047000070B505460C
:1011F000304800EB05142068804700283ED0207955
:10120000052802DA0520207152E020790A2803DA45
:101210002079401C20714BE0A07A38B90120A072DF
:1012200005EB4501491CC8B200F07CFA2089002872
:101230003EDDE088218988420DDAE088401C80B2DA
:10124000E0802189884233D105EB4501C91CC8B231
:1012500000F068FA2CE0E07A002829DD207B401CB1
:10126000C0B22073E17A884222DB0020207305EBB4
:101270004501491CC8B200F055FA19E0207905284B
:1012800002DD0520207110E0207918B12079401E80
:1012900020710AE0A07A012807D10020A07205EB96
:1012A0004501891CC8B200F03DFA0020E08020739F
:1012B00070BD0000BC0000200B48807A0A4AD27A38
:1012C000904201D1002070470748807A064A115C9D
:1012D0001046807A401CC0B290720A2801DB0020C0
:1012E00090720846EFE700005C01002001460020F4
:1012F000244A914201D1C81442E0234A914201D1CB
:1013000048143DE0214A914202D14FF4002037E0D9
:101310001F4A914202D14FF4801031E01D4A9142A0
:1013200002D14FF400102BE0B1F1804F01D1012028
:1013300026E0194A914201D1022021E0174A914248
:1013400001D104201CE0164A914201D1082017E087
:10135000144A914201D1102012E0134A914201D166
:1013600020200DE0114A914201D1402008E0104AAE
:10137000914201D1802003E00E4A914200D18815AC
:1013800070470000002C014000340140004C014037
:10139000005001400054014000040040000800409B
:1013A000000C0040001000400014004000180040F5
:1013B000001C00400020004010B54FF44070FFF7C3
:1013C000DFF900F053F900F017F900F057F800F0DA
:1013D00001F810BD7FB501210846FFF7DBF915487C
:1013E000006846081448B6FBF0F085B24FF6FF746B
:1013F000ADF80840ADF804500020ADF80A00ADF893
:10140000060001A94FF08040FFF7DEFB01218807AD
:10141000FFF7B3FB1C208DF8000004208DF80100BD
:1014200000208DF8020001208DF803006846FFF7C8
:101430006FF97FBD4000002040420F0010B5044608
:101440007D20FFF73BFA08B1FFF7C4F90120FFF751
:1014500053FA00BF6120FFF731FA0028FAD045F2B5
:101460005550FFF78BF80520FFF77CF8A0B2FFF787
:101470007FF8FFF76FF8FFF761F810BD10B500F0C7
:1014800051F800F001F810BD08B501214020FFF728
:1014900091F903208DF8020004208DF8030020202C
:1014A000ADF8000069461C48FEF790FF1020ADF82B
:1014B000000069461848FEF789FF0820ADF80000D3
:1014C00069461548FEF782FF4FF40040ADF8000072
:1014D00069461248FEF77AFF0820ADF80000694619
:1014E0000F48FEF773FF4FF48040ADF800006946E7
:1014F0000A48FEF76BFF4FF40050ADF80000694654
:101500000648FEF763FF8020ADF8000069460348F7
:10151000FEF75CFF08BD00000018014000200140FC
:10152000001401400021284A9172D17211730020E9
:1015300018E06421254A02EB001211810221234A9E
:1015400002EB001211710021204A02EB001291728D
:101550001E4A02EB0012D1721C4A02EB00121173F8
:10156000411CC8B20A28E4DB642218490A87052214
:1015700081F83B206422A1F84820052281F84B2005
:101580006422A1F85820052281F85B206422A1F88A
:101590006820052281F86B200D490C4A11600D4925
:1015A00011610D4911620D4911630D4911640D4915
:1015B00011650D4911660D4911670D49C2F880107A
:1015C0000C49C2F8901070475C010020BC0000205C
:1015D0001D0600084D060008650600087D06000887
:1015E00095060008AD060008C5060008DD060008DF
:1015F000F50600083506000808B501213020FFF780
:10160000D9F8012000F048F8022000F045F8032046
:1016100000F042F8042000F03FF803208DF80200AB
:1016200010208DF803004020ADF8000069460D48F9
:10163000FEF7CCFE8020ADF8000069460948FEF7B1
:10164000C5FE4FF40050ADF8000069460648FEF7AD
:10165000BDFE4020ADF8000069460348FEF7B6FE27
:1016600008BD0000001001400014014010B5FFF754
:1016700087FCFEF789FFFFF745F9FEF795FE10BDE1
:1016800010B5002404E02046FFF7B0FD601CC4B292
:10169000032CF8DB10BD0000411EC8B218B9402170
:1016A0000A4A116110E0012803D18021074A116123
:1016B0000AE0022803D10103054A116004E003286F
:1016C00002D14021024A1160704700000010014021
:1016D00010140140012806D11049C96881F0400169
:1016E0000E4AD16019E0022806D10C49C96881F080
:1016F00080010A4AD16010E0032806D10849096830
:1017000081F40051064A116007E0042805D104491C
:10171000096881F04001024A1160704700100140E1
:101720000C1401400649C97A054A50541146C97A39
:10173000491CC9B2D1720A2901DB0021D17270475C
:101740005C0100202DE9FF5F04460D4691469A4654
:101750007448844202D07448844207D12046FFF77F
:10176000C5FD83460121FFF725F806E02046FFF777
:10177000BDFD83460121FFF70DF8002D41D1002169
:101780002046FFF7FAF9AB466648844202D14FF093
:10179000190B28E0B4F1804F02D14FF01C0B22E06E
:1017A0006248844202D14FF01D0B1CE06048844225
:1017B00002D14FF01E0B16E05E48844202D14FF07A
:1017C000320B10E05C48844202D14FF0360B0AE045
:1017D0005A48844202D14FF0370B04E05248844209
:1017E00001D14FF02C0B8DF800B08DF801908DF8E1
:1017F00002A000208DF803006846FEF789FFBDE8CF
:10180000FF9F484884420BD04748844208D04C4848
:10181000844205D04B48844202D04B48844202D1D6
:101820004A48066801E049480668642D0AD242F237
:101830000F7842F21070B6FBF0F0B0FBF5F0401EEE
:1018400087B213E040F6B830854209D24FF0630802
:101850006420B6FBF0F0B0FBF5F0401E87B205E067
:101860004FF00008B6FBF5F0401E87B2ADF80870E7
:10187000ADF804800020ADF80A00ADF806008DF840
:101880000C0001A92046FFF79FF901212046FFF730
:1018900065F9012211462046FFF78CF90121204607
:1018A000FFF76BF94FF0000B1E48844202D14FF056
:1018B000190B28E0B4F1804F02D14FF01C0B22E04D
:1018C0001A48844202D14FF01D0B1CE01848844294
:1018D00002D14FF01E0B16E01648844202D14FF0A1
:1018E000320B10E01448844202D14FF0360B0AE06C
:1018F0001248844202D14FF0370B04E00A48844278
:1019000001D14FF02C0B8DF800B08DF801908DF8BF
:1019100002A001208DF803006846FEF7F9FE00BF23
:101920006DE70000002C014000340140000400403D
:1019300000080040000C004000100040001400406F
:10194000004C014000500140005401404000002084
:101950002DE9F04105460E4617462846FEF70CFDD8
:1019600004460CB9BDE8F081E06908B1E069804740
:101970003A4631462046FFF7CDFA00BFF2E713B5ED
:101980000446012201A92046FFF7E2FF1CBD70B505
:1019900004460D46E1B20020FFF7F1FF204670BD7E
:1019A000012080F3108800BFFFF706FD00F008FC5F
:1019B000FEF77EFCFEF774FC00F0EAFD00BFFEE7D8
:1019C00010B504460E48006844600E480068844222
:1019D00007D20B480168091D0B48006800F040FB66
:1019E0000CE007480168091D0848006800F038FB52
:1019F00007480068844201D20548046010BD000019
:101A000054000020680000205C00002058000020E6
:101A1000840000202DE9F04105460F461FB9A800BB
:101A200000F0ECF900E03846064656B1582000F0C8
:101A3000E5F904460CB1266304E0304600F06EFB85
:101A400000E0002424B1A900A522206BFEF7DEFBF4
:101A50002046BDE8F081000070B523E000F0CCFD29
:101A60001348006808B9012000E00020054601F095
:101A7000BFF9BDB900F01AFB0D48C068C468201D4D
:101A800000F056FA0B480068401E0A4908600A48F0
:101A90000068401E0849086000F02AFB204600F05C
:101AA0000DF800BF044800680028D7D170BD0000C1
:101AB000340A0020640000206000002010B50446B5
:101AC000206B00F02BFB204600F028FB10BD00002F
:101AD00030B54FF48843174800F007042CB1C01DFF
:101AE00020F00700134C041B1B1B0246124C226003
:101AF0000024114D6C60D018083820F007000F4CFE
:101B0000206000240D4D2D686C600C4D2D682C60FC
:101B10001146441A4C60094C24680C60084D4C680E
:101B20002C60084D4C682C604FF00044064D2C6032
:101B300030BD00005C0A0020A0000020A8000020AA
:101B4000B0000020AC000020B400002000BFFFF770
:101B500083FF034800680128F9D900F025FBF6E768
:101B6000940900202DE9F04704460F461646994691
:101B7000DDF82080002507E0795D04F1340041554F
:101B8000785D00B902E06D1C102DF5D300BF002177
:101B900043200155052E00D30426E662201D00F0E7
:101BA0005CFA04F1180000F058FA2461C6F105004F
:101BB000A06164620020E064206584F85400BDE800
:101BC000F087000010B5002407E004EB84010F4A01
:101BD00002EB810000F034FA641C052CF5D30C48AC
:101BE00000F02EFA0B4800F02BFA0B4800F028FA10
:101BF0000A4800F025FA0A4800F022FA0448094988
:101C0000086004480849086010BD000094090020DD
:101C1000F80900200C0A0020200A0020340A0020C5
:101C2000480A0020580000205C00002010B5014642
:101C3000164800E0006803688B42FBD30246436805
:101C400013448B4204D143684C68234443600146EB
:101C50000A464B6813440468A34211D10C4C036834
:101C60002468A34208D04B680468646823444B602E
:101C700003681B680B6005E0054B1B680B6001E007
:101C800003680B60884200D0016010BDA0000020F6
:101C9000A80000202DE9F04706460C469046002596
:101CA000206800284BD0204641684968416000F117
:101CB000080142688A4202D141684968416041682E
:101CC000D1F80C9000BF204641684968416000F19E
:101CD000080142688A4202D141684968416041680E
:101CE000CF6806EB4510076007F1340006EB45119D
:101CF0004860786C06EB4511886006EB451080F86B
:101D00000C80F86A06EB45110861B8F1030F05D1A4
:101D1000B86A18B1022006EB45110873002006EBE3
:101D200045114861F86C06EB45118861386B00F08D
:101D300023F806EB451188836D1C4F45C3D1284617
:101D4000BDE8F0870A490968096809B9012100E07E
:101D5000002121B14FF0FF31064A116006E004492D
:101D60000968C968C868034A416811607047000083
:101D700058000020840000200246002101E0521C8F
:101D8000491C1078A528FAD0890888B2704700004D
:101D900007480068401C08B9012000E0002018B97D
:101DA000FEF714FA00BFFEE7FEF710FA00BFFEE7E9
:101DB0009400002010B50346002022B903EA010474
:101DC00034B1012004E003EA01048C4200D1012077
:101DD00010BD70B505460E4631462846FEF72FFA6F
:101DE0002846FEF725FA044602E020202855641C08
:101DF0000F2CFAD300202855281970BD2DE9F04189
:101E000004464FF0000800F0F7FB3C48006808B9B2
:101E1000FFF75EFE3A480068204000285DD19CB183
:101E2000083404F0070078B104F00700C0F108009E
:101E3000044404F0070008B9012000E0002018B9AC
:101E4000FEF7C4F900BFFEE7002C46D02D4800681D
:101E5000844242D82C4E3046056801E02E462D685B
:101E60006868A04202D228680028F7D12348006899
:101E7000854232D0306800F1080828683060686810
:101E8000001B102812D92F1907F0070008B90120EC
:101E900000E0002018B9FEF799F900BFFEE7686876
:101EA000001B78606C603846FFF7C0FE1549686813
:101EB0000968081A13490860084600681349096848
:101EC000884203D20F480068104908600C496868CE
:101ED0000968084368600020286000F089FF08F066
:101EE000070008B9012000E0002018B9FEF76EF9DC
:101EF00000BFFEE74046BDE8F0810000A8000020DA
:101F0000B4000020AC000020A0000020B0000020A1
:101F1000001F4FF080730360001F0160001F034B20
:101F2000036014380260203870470000911D0008DB
:101F300001460A69D1E901309860D1E9010358608E
:101F40005068884201D1886850600020086110689C
:101F5000401E1060106870472DE9F0410546884624
:101F600016460024052700F047FB1D480068804501
:101F700030D300BF7F1E07EB87021A4B03EB8201B1
:101F800005EB44100122FFF785FE0444002FF1D138
:101F900005EB4410022214490968FFF77BFE044454
:101FA00005EB4410022211490968FFF773FE04444F
:101FB00005EB441004220E49FFF76CFE044405EBC8
:101FC000441003220B49FFF765FE044416B10A488A
:101FD0000068306000F00CFF2046BDE8F081000092
:101FE0006400002094090020580000205C000020BC
:101FF000340A0020480A002018000020054909681A
:10200000886904490968C96AC1F10501014A126871
:10201000916170475400002070B505460C4621467A
:1020200001A0FEF7CDFF70BDC8CECEF1A3BA2573D7
:1020300020B7A2CFD6D5BBD2E7B3F60D0A00000079
:1020400000F1080141604FF0FF31816000F10801AB
:10205000C16001610021016070470021016170478A
:1020600010B502460B685C1C0CB9106907E002F160
:10207000080000E04068446824689C42FAD944683B
:102080004C604C68A160886041600A611468641CFF
:10209000146010BD42684A6093688B609368596011
:1020A0009160086103685B1C0360704710B5FEF720
:1020B0008DF80D480068401C0B490860BFF34F8F36
:1020C000BFF36F8F0846006801280BD107480068EE
:1020D000C0B208B9012000E0002018B9FEF776F878
:1020E00000BFFEE710BD00009400002004ED00E0FA
:1020F00010B50948006818B9FEF768F800BFFEE798
:1021000005480068401E044908600846006810B988
:102110000020FEF762F810BD9400002070B506465E
:102120003546002E31D0083D2C46184960680968B4
:10213000084008B1012000E0002018B9FEF746F879
:1021400000BFFEE7206808B9012000E0002018B9B0
:10215000FEF73CF800BFFEE70C49606809680840DC
:1021600098B1206888B90949606809688843606047
:1021700000F042FA064960680968084404490860AA
:102180002046FFF753FD00F033FE70BDB400002081
:10219000AC00002003484FF0E021486107200861AF
:1021A000704700003F1901004FF08050034908605C
:1021B000BFF34F8FBFF36F8F7047000004ED00E057
:1021C00010B50023012244F620610248FFF7BAFA55
:1021D00010BD00000010004070B50446002634B366
:1021E0001548006808B9012000E0002018B9FDF783
:1021F000EDFF00BFFEE700F0FFF910480068051989
:102200000F480068001DFFF793FE50B90C480068A6
:1022100090F82C10012088400A4909688143094838
:1022200001602846FFF7CCFB00F0E2FD06460EB940
:10223000FFF7BAFF70BD0000880000206800002092
:10224000540000206C000020FEB5054600202870D8
:10225000264800680290254909684801FFF7CEFD2D
:102260000446002C40D06A4620460299FFF774FECF
:10227000029064210098B0FBF1F0009000980028D3
:102280002FD00020019028E0019804EB40108069D5
:102290000099B0FBF1F6019804EB40104168284624
:1022A000FFF797FD05464EB1019804EB4010334609
:1022B0000FA182692846FEF793FE07E0019804EB20
:1022C00040100EA182692846FEF78AFE2846FDF7D7
:1022D000AFFF05440198401C0190DDE901018842EF
:1022E000D2D32046FFF71AFFFEBD00006400002095
:1022F0000925750909257525250D0A000925750982
:10230000093C3125250D0A00002400251DE002208E
:10231000FFF7E0F9002407E0002501E0681C85B222
:102320003C2DFBDB601C84B241F270708442F3DB15
:102330004FF49670FFF750FF044801880088401C56
:10234000024B188002A0FEF73BFEE0E714000020DD
:10235000765461736B4C45443A25640D0A000000C5
:102360007FB50546002028702A4800680390294957
:1023700009684801FFF742FD0446002C49D00022BD
:1023800020460399FFF7E8FD03900020029039E012
:10239000029804EB4010007B012806D0022806D0EA
:1023A000032806D0042808D105E0522607E042267B
:1023B00005E0532603E0442601E0002600BF00BFED
:1023C000029804EB401041682846FFF702FD0546DD
:1023D000029804EB40108068029904EB4111898B4C
:1023E000CDE90010029804EB401032460AA10369BF
:1023F0002846FEF7F5FD2846FDF71AFF054402982A
:10240000401C0290DDE902018842C1D32046FFF75B
:1024100085FE7FBD64000020092563092575092517
:10242000750925750D0A000008B500BF14E0642089
:1024300001231A46032100900848006800F08CFA36
:10244000044604F00300032803D105A0FEF7B8FDFD
:1024500002E00320FFF73EF9E9E70000100000204A
:10246000BDD3CAD5B5BD62697430BACD6269743165
:10247000B6BCB1BBC9E8D6C3B5C4CFFBCFA20D0A69
:10248000000000002DE9F04105460E4614461DB936
:10249000FDF79CFE00BFFEE71B48006808B1012065
:1024A00000E0002018B9FDF791FE00BFFEE746F0FE
:1024B00000401649096888611448016818312846A7
:1024C000FFF7E8FD11480068001DFFF731FD50B926
:1024D0000E48006890F82C10012088400C490968CB
:1024E00081430B480160601C30B908480168091D30
:1024F0000848FFF7CFFD05E0074800680719384690
:10250000FFF75EFABDE8F08188000020540000204B
:102510006C000020480A0020680000203520FEF7EB
:102520008DFF09A0FEF74CFD15A0FEF749FD06A0A2
:10253000FEF746FD06E0FEF709F8FFF7A1F80A20CE
:10254000FFF74AFEF7E700003D3D3D3D3D3D3D3D87
:102550003D3D3D3D3D3D3D3D3D3D3D3D3D3D3D3DAB
:102560003D3D3D3D3D3D3D3D3D3D3D3D3D3D3D3D9B
:102570003D3D3D3D3D3D3D3D3D3D3D3D3D0D0A002B
:102580003DCFB5CDB3BFAABBFAD6B4D0D00D0A00AB
:102590001FB50020009001900290034680220FA1F9
:1025A0000390104800F0A0FA0446012C0FD1FDF76B
:1025B0000DFEA01E0C49086001200C490860002097
:1025C0000B4908600B49086000F03EFA04E01CB9B2
:1025D000FDF7FCFD00BFFEE71FBD000049444C4570
:1025E000000000004D1B0008840000207000002047
:1025F000680000201800002002480068401C0149C3
:10260000086070478800002070B53448006818B131
:1026100001203349086060E00020314908603148FA
:1026200000683149086008460068304909688842F6
:102630000BD92F49096801F14C00C96C2A4A12686C
:102640002A4B1B68D21A11440160274800682749A9
:10265000086027480068046B4FF0A5352068B0F18A
:10266000A53F0BD16068B0F1A53F07D1A068B0F1DC
:10267000A53F03D1E068B0F1A53F05D01C48016833
:1026800034310068FFF7C8FC1A480068B0FA80F0DF
:10269000C0F11F0404EB8400174951F8200008B171
:1026A000012000E0002018B9FDF790FD00BFFEE713
:1026B00004EB8401104A02EB8100416849684160E3
:1026C00000F1080142688A4202D1416849684160CC
:1026D0004168C968064A116000BF70BD88000020CB
:1026E0007800002018000020900000208C000020BE
:1026F000540000206C00002094090020FEB04DE042
:10270000FEF7DAFD0446002C45D0012C04D0042C41
:102710001AD0072C3AD128E021A0FEF751FC2DA0B9
:10272000FEF74EFC01A8FFF71BFE01A935A0FEF73E
:1027300047FC36A0FEF744FC01A8FFF785FD01A980
:1027400030A0FEF73DFC22E001213B48006800F08C
:10275000AAF8054605F0010018B138A0FEF730FCD4
:1027600002E03F48FEF72CFC11E0022132480068ED
:1027700000F099F8054605F0020018B139A0FEF7FF
:102780001FFC02E04048FEF71BFC00E000BF00BF5A
:102790000120FEF79FFF1420FFF71EFDB0E70000A9
:1027A0003D3D3D3D3D3D3D3D3D3D3D3D3D3D3D3D59
:1027B0003D3D3D3D3D3D3D3D3D3D3D3D3D3D3D3D49
:1027C0003D3D3D3D3D3D3D3D3D3D3D3D3D3D3D3D39
:1027D0003D0D0A00C8CECEF1C3FB202020202020D2
:1027E000C8CECEF1D7B4CCAC20D3C5CFC8BCB620B0
:1027F0002020CAA3D3E0D5BB20C8CECEF1D0F2BAF8
:10280000C50D0A0025730D0A000000000D0AC8CE90
:10281000CEF1C3FB20202020202020D4CBD0D0BC60
:10282000C6CAFD202020202020202020CAB9D3C3E2
:10283000C2CA0D0A00000000100000204B32BCFC90
:10284000B0B4CFC2A3ACCAC2BCFEB1EAD6BEB5C456
:1028500062697430B1BBC9E8D6C30D0A000000003C
:10286000D82E00084B33BCFCB0B4CFC2A3ACCAC254
:10287000BCFEB1EAD6BEB5C462697431B1BBC9E869
:10288000D6C30D0A00000000302F000810B51C2030
:10289000FFF7B4FA044624B100202060201DFFF7A2
:1028A000CFFB204610BD2DE9FE4F0746884600208D
:1028B00001903C4600901FB9FDF788FC00BFFEE781
:1028C00008F07F4008B9012000E0002018B9FDF7AA
:1028D0007DFC00BFFEE704F1040909F10800029045
:1028E000FFF78AFED9F80C60206840EA08002060F3
:1028F00026E0D6F804B035680020009005F07F4A45
:1029000025F07F450AF0806028B92068284040B152
:102910000120009005E020682840A84201D1012054
:102920000090009858B10AF0807010B101982843C7
:102930000190206840F00071304600F00FFA5E46CA
:1029400002988642D5D1206801998843206000F022
:102950004FFA2068BDE8FE8F2DE9FF4F83B0804617
:102960000D461746DDF8409044464FF0000A00201F
:102970000190B8F1000F03D1FDF728FC00BFFEE77E
:1029800005F07F4008B9012000E0002018B9FDF7EC
:102990001DFC00BFFEE70DB1012000E0002018B9CA
:1029A000FDF714FC00BFFEE7FFF726FE206800904D
:1029B0002946069A0098FFF7FDF90290029838B16F
:1029C000009E4FF00009B7B12068A843206012E0D4
:1029D000B9F1000F01D1009E0DE00FB14AF0807AED
:1029E000069808B14AF0806A45EA0A014A46201D65
:1029F000FFF748FD002600F0FBF98346B9F1000F10
:102A00001DD0BBF1000F01D1FFF7CEFBFFF7F6FAA7
:102A1000064606F0007080B9FFF748FB2668294695
:102A20003046069AFFF7C6F918B117B12068A843D7
:102A30002060FFF75DFB0020019026F07F463046C6
:102A400007B0BDE8F08F00001CB5224801460978A8
:102A50000191FF21024611700146097800919DF80D
:102A6000001001F010011C4A117007211B4A11606F
:102A700009E01A490968491E184A11609DF80010BA
:102A80004906090E00919DF8001001F0800180298F
:102A9000EFD0124909680902104A116011460988ED
:102AA00001F4E06111600B4A019911700C48006853
:102AB00040F470000A4908600846006840F0704021
:102AC0000860FFF767FB002006490860FDF74CFB34
:102AD00000201CBD00E400E0980000209C000020C5
:102AE00020ED00E0940000202DE9FF4F81B08046EA
:102AF00016469A46DDE90E5BB8F1000F03D1FDF7EB
:102B000065FB00BFFEE7052D01D2012000E000209B
:102B100018B9FDF75BFB00BFFEE730461099FEF7E2
:102B200079FF0446002C5DD0701E216B01EB8009FB
:102B300029F0070909F0070008B9012000E000208A
:102B400018B9FDF743FB00BFFEE700962A46204672
:102B5000119B0299FFF706F8524641464846FFF797
:102B6000D7F92060BBF1000F01D0CBF80040FFF790
:102B70009DFA25480068401C2349086023480068E6
:102B800040B9224804600846006801280CD1FFF7CC
:102B900019F809E01E48006830B91C480068C06A8E
:102BA000A84201D8194804601A480068401C194915
:102BB000086008460068606494F82C100120884082
:102BC00015490968084314490860E16A01EB81016D
:102BD000124A02EB8100211DFFF75CFA0127FFF783
:102BE00087FA01E04FF0FF37012F09D1084800684C
:102BF00030B106480068C06AA84201D2FFF7D4FA93
:102C0000384605B0BDE8F08F640000205400002075
:102C100070000020800000206C000020940900203B
:102C20002DE9F0414FF0000841480068002872D1BA
:102C300040480068401C3F49086008460668DEB905
:102C40003D480068006808B9012000E0002018B97C
:102C5000FDF7BCFA00BFFEE7374807683748006851
:102C6000354908603548076035480068401C3449DC
:102C70000860FFF767F800BF3248006886423CD31F
:102C800000BF2D480068006808B9012000E000205E
:102C900020B14FF0FF302B4908602DE02648006836
:102CA000C068C4686568AE4202D22648056023E069
:102CB000201DFFF73DF9A06A18B104F11800FFF7D5
:102CC00037F994F82C10012088401F4909680843FF
:102CD0001D490860E16A01EB81011C4A02EB810099
:102CE000211DFFF7D7F91A49E06A0968C96A8842C5
:102CF000C7D34FF00108C4E700BF15480068C06A99
:102D000000EB8000114951F82000012808D94FF04C
:102D1000010805E0FFE70F480068401C0D49086006
:102D20000D48006808B14FF001084046BDE8F08149
:102D30008800002068000020580000205C0000206F
:102D40007C000020840000206C00002094090020FA
:102D50005400002074000020780000202DE9F0418C
:102D600005460F461D48006808B1012000E000201C
:102D700018B9FDF72BFA00BFFEE747F000402860C6
:102D8000EC681CB9FDF722FA00BFFEE72846FFF702
:102D9000CFF8201DFFF7CCF894F82C1001208840C4
:102DA0000F49096808430E490860E16A01EB810197
:102DB0000C4A02EB8100211DFFF76CF90A49E06A19
:102DC0000968C96A884204D90126012007490860B8
:102DD00000E000263046BDE8F081000088000020B9
:102DE0006C0000209409002054000020780000208E
:102DF00070B500253048006818B9FDF7E7F900BF45
:102E0000FEE7FFF753F92C480068401E2A49086086
:102E10000846006800284BD128480068002847D0A1
:102E200024E02748C068C46804F11800FFF780F860
:102E3000201DFFF77DF894F82C10012088402149CF
:102E4000096808431F490860E16A01EB81011E4AD5
:102E500002EB8100211DFFF71DF91C49E06A09689A
:102E6000C96A884202D301201949086014480068E1
:102E700008B9012000E000200028D2D015480068E1
:102E800078B10AE0FFF7CCFE10B1012010490860CC
:102E900010480068401E0F4908600E48006800286E
:102EA000F0D10B480068012802D10125FFF77CF919
:102EB000FFF71EF9284670BD88000020640000203E
:102EC000200A00206C0000209409002054000020FB
:102ED00078000020740000204B32BCFCB0B4CFC29C
:102EE000A3ACCAC2BCFEB1EAD6BEB5C46269743036
:102EF000B1BBC7E5B3FDA3ACCBB5C3F7C8CECEF12C
:102F0000765461736B4D736750726FD2D1BEADBD95
:102F1000D3CADCB5BD62697430BACD62697431B1AF
:102F2000BBC9E8D6C3B5C4C7E9BFF60D0A000000A7
:102F30004B33BCFCB0B4CFC2A3ACCAC2BCFEB1EA36
:102F4000D6BEB5C462697431B1BBC7E5B3FDA3ACED
:102F5000CBB5C3F7C8CECEF1765461736B4D7367B2
:102F600050726FD2D1BEADBDD3CADCB5BD6269743B
:102F700030BACD62697431B1BBC9E8D6C3B5C4C734
:102F8000E9BFF60D0A000000A82F0008000000208D
:102F9000BC0000000810000864300008BC000020DD
:102FA000A4550000181000080000000000000000F8
:102FB0000000000000000000000000000000000011
:102FC0000000000000000000000000000000000001
:102FD00000000000000000000102030401020304DD
:102FE000060708090204060800A24A0400000000BF
:102FF00000000000010203040607080900000000A9
:1030000000000000000000000000000000000000C0
:1030100000000000000000000000000000000000B0
:1030200000000000000000000000000000000000A0
:10303000000000000000000000000000AAAAAAAAE8
:103040000000000000000000000000000000000080
:103050000000000000000000000000000000000070
:04306000000000006C
:0400000508000131BD
:00000001FF
