:020000040800F2
:10000000A8560020E9010008330700080905000888
:100010002F07000899030008511000080000000095
:100020000000000000000000000000004501000882
:10003000EF03000800000000890100083D0A0008E5
:10004000030200080302000803020008030200087C
:10005000030200080302000803020008030200086C
:10006000030200080302000803020008030200085C
:10007000030200080302000803020008030200084C
:10008000030200080302000803020008030200083C
:10009000030200080302000803020008030200082C
:1000A000030200080302000803020008030200081C
:1000B000BD0A00080302000803020008030200084A
:1000C00003020008030200080302000803020008FC
:1000D00003020008010D00080302000803020008E3
:1000E00003020008030200080302000803020008DC
:1000F00003020008030200080302000803020008CC
:1001000003020008030200080302000803020008BB
:100110000302000803020008590B0008030200084C
:10012000030200080302000803020008030200089B
:10013000DFF80CD000F0B4F800480047FD1A0008C2
:10014000A8560020204B19680868B0E8F00F80F32B
:100150000988BFF36F8F4FF0000080F311884EF0D5
:100160000D0E70470000000006480068006880F32C
:10017000088862B661B6BFF34F8FBFF36F8F00DFA1
:1001800000BF00BF08ED00E0EFF30980BFF36F8F01
:100190000D4B1A6820E9F00F106008B54FF0100001
:1001A00080F3118802F00CFE4FF0000080F31188FC
:1001B000BDE8084019680868B0E8F00F80F30988C6
:1001C000BFF36F8F704700BF54000020EFF3118022
:1001D0004FF0100181F31188704780F31188704748
:1001E000EFF3058070470000064880470648004747
:1001F000FEE7FEE7FEE7FEE7FEE7FEE7FEE7FEE7D7
:10020000FEE7FEE75D0A00083101000840EA01034D
:100210009B0703D009E008C9121F08C0042AFAD2BC
:1002200003E011F8013B00F8013B521EF9D2704780
:10023000D2B201E000F8012B491EFBD27047002228
:10024000F6E710B513460A4604461946FFF7F0FFD5
:10025000204610BD421C10F8011B0029FBD1801A5A
:100260007047034611F8012B00F8012B002AF9D141
:100270001846704730B50B46014600202022012465
:1002800009E021FA02F59D4205D303FA02F5491B64
:1002900004FA02F52844151EA2F10102F1DC30BD7A
:1002A000064C074D06E0E06840F0010394E80700C3
:1002B00098471034AC42F6D3FFF73EFF403D0008AC
:1002C000603D000810B502F08DFE0149086010BDC8
:1002D000100000201FB500201B4A0123CDE901209A
:1002E0000093039003464FF4007218A11A4803F0DC
:1002F00007FA0020194A0223CDE901200093039058
:1003000003464FF4007216A1184803F0F9F90020D3
:10031000174A0323CDE901200093039003464FF4CD
:10032000007214A1164803F0EBF90020154A0423CB
:10033000CDE901200093039003464FF4007212A10F
:10034000144803F0DDF91FBD0000002076546173EE
:100350006B55736572494600B52E000804000020F5
:10036000765461736B4C454400000000C9290008B5
:1003700008000020765461736B4D736750726F00F4
:10038000D12A00080C000020765461736B5374610D
:1003900072740000CD2C000800BFFEE7014609B9C9
:1003A00009487047012901D10020FAE7022901D14B
:1003B0000020F6E7032901D10020F2E7042901D14A
:1003C0000020EEE70020ECE77C01002008B52520A6
:1003D0008DF8000001208DF8010000208DF802004A
:1003E00001208DF80300684600F0A4F908BD7047AD
:1003F0002DE9F041024600250026002000230024BC
:10040000002791F803C00CF00F0591F803C00CF021
:10041000100CBCF1000F03D091F802C04CEA0505A6
:1004200091F800C0BCF1000F31D0146800202BE01F
:100430004FF0010C0CFA00F3B1F800C00CEA03060F
:100440009E4220D183004FF00F0C0CFA03F7BC43FF
:1004500005FA03FC4CEA040491F803C0BCF1280F30
:1004600006D14FF0010C0CFA00FCC2F814C00AE0EF
:1004700091F803C0BCF1480F05D14FF0010C0CFA04
:1004800000FCC2F810C0401C0828D1D31460B1F899
:1004900000C0BCF1FF0F34DD546800202EE000F1F5
:1004A000080C4FF0010808FA0CF3B1F800C00CEA90
:1004B00003069E4221D183004FF00F0C0CFA03F784
:1004C000BC4305FA03FC4CEA040491F803C0BCF1F8
:1004D000280F05D100F1080C08FA0CF8C2F81480B6
:1004E00091F803C0BCF1480F07D100F1080C4FF0A0
:1004F000010808FA0CF8C2F81080401C0828CED376
:100500005460BDE8F081000009A100200CE00A5C05
:10051000124B1A8000BF114A121F128802F04002CB
:10052000002AF8D0421CD0B22A28F0D300BFFEE740
:100530000D0A456E74657220486172644661756C7F
:10054000745F48616E646C65722C205379737465B6
:100550006D2048616C742E0D0A00000004380140C3
:100560004CF6CC4001490860704700000030004064
:1005700010B500F001F810BD4AF6AA200149086044
:10058000704700000030004001494860704700009B
:100590000030004001498860704700000030004092
:1005A00001490860704700000030004000B585B088
:1005B0000121052000F010F90121880300F00CF959
:1005C0004FF40070ADF8100018208DF813000320D0
:1005D0008DF8120004A91848FFF70AFF4FF4806055
:1005E000ADF8100004208DF8130004A91248FFF79D
:1005F000FFFE4FF4E13000900020ADF80400ADF8AC
:100600000600ADF80800ADF80C000C20ADF80A00AB
:1006100069460A4800F0E0FB012240F225510748F4
:1006200000F0B5FB0121054800F07BFB40210348A9
:1006300000F06EFB05B000BD00080140003801402D
:100640000448006800F0200008B90120704700202D
:10065000FCE700000818014010B500F009F820B1CF
:1006600000F012F808B1012010BD0020FCE70000E6
:100670000448006800F0100008B90120704700200D
:10068000FCE70000081801400448006800F008007A
:1006900008B9012070470020FCE70000081801405D
:1006A0000448806800F4004008B901207047002029
:1006B000FCE70000002001400448006800F008004A
:1006C00008B9012070470020FCE700000814014031
:1006D0000448806800F4804008B901207047002079
:1006E000FCE70000002001400448806800F400504E
:1006F00008B9012070470020FCE7000000200140FD
:100700000448806800F0800008B90120704700208C
:10071000FCE700000020014010B5FFF791FF20B179
:10072000FFF7A6FF08B1012010BD0020FCE700BFC5
:10073000FEE7704770B5002100230F22C47804B390
:10074000154C246804F4E064C4F5E064210AC1F1A6
:100750000403CA40447804FA03F184781440214326
:1007600009010E4C0678A155047804F01F050124F8
:10077000AC4005786D11AD0005F1E025C5F80041EC
:1007800009E0047804F01F050124AC40044D06780C
:10079000761145F8264070BD0CED00E000E400E065
:1007A00080E100E002490143024A11607047000005
:1007B0000000FA050CED00E029B1064AD2690243B7
:1007C000044BDA6104E0034AD2698243014BDA61E7
:1007D000704700000010024029B1064A92690243A6
:1007E000044B9A6104E0034A92698243014B9A6187
:1007F00070470000001002400348406A40F08070DB
:1008000001494862704700000010024030B50021E5
:100810000022002400232D4D6D6805F00C0121B14C
:10082000042905D0082923D105E0294D056022E0DF
:10083000274D05601FE0254D6D6805F47012234DAE
:100840006D6805F48034022505EB92421CB9214DF8
:10085000554305600BE01D4D6D6805F400351DB175
:100860001C4D5543056002E0194D5543056002E0FB
:10087000174D056000BF00BF144D6D6805F0F00115
:100880000909154D6B5C0568DD4045600F4D6D68CD
:1008900005F4E061090A104D6B5C4568DD40856038
:1008A0000A4D6D6805F46051C90A0B4D6B5C4568D3
:1008B000DD40C560054D6D6805F44041890B074D6D
:1008C0006B5CC568B5FBF3F5056130BD00100240F7
:1008D00000127A0000093D002C0000203C0000209E
:1008E00010B501460022002300204A11012A02D13E
:1008F000094C236806E0022A02D1074C236A01E072
:10090000054C636A01F01F02012494401C400CB1A5
:10091000012000E0002010BD0010024001490860E5
:10092000704700008004424208B501210820FFF70B
:1009300053FF03208DF8020010208DF803000420DF
:10094000ADF8000069460248FFF752FD08BD0000FF
:10095000000C014010B500F001F810BD0CB50020EE
:10096000019000903348006840F4803031490860BD
:1009700000BF3048006800F4003000900198401C2F
:100980000190009818B90198B0F5A06FF1D12948ED
:10099000006800F4003010B10120009001E0002058
:1009A00000900098012843D12348006840F01000CF
:1009B000214908600846006820F0030008600846E6
:1009C000006840F0020008601A4840681949486011
:1009D0000846406848600846406840F480604860C7
:1009E0000846406820F47C1048600846406840F49F
:1009F000E81048600846006840F08070086000BF5A
:100A00000C48006800F000700028F9D009484068E0
:100A100020F00300074948600846406840F00200A3
:100A2000486000BF0348406800F00C000828F9D176
:100A30000CBD0000001002400020024010B5FFF77E
:100A4000C5FB02F00FFF18B14FF08050024908605B
:100A50000020FFF7C2FB10BD04ED00E010B5134805
:100A6000006840F0010011490860084640681049DC
:100A700008400E494860084600680E4908400B4986
:100A800008600846006820F4802008600846406836
:100A900020F4FE0048604FF41F008860FFF75AFF03
:100AA0004FF000600449086010BD000000100240D3
:100AB0000000FFF8FFFFF6FE08ED00E010B5022190
:100AC000480700F0A7F858B10221480700F090F855
:100AD00000220221480700F0AEF81B48006880475A
:100AE0000421080700F096F858B10421080700F027
:100AF0007FF800220421080700F09DF813480068E1
:100B000080470821C80600F085F858B10821C806BA
:100B100000F06EF800220821C80600F08CF80C489E
:100B2000006880471021880600F074F858B1102141
:100B3000880600F05DF800221021880600F07BF89E
:100B400004480068804710BD1C00002020000020E1
:100B5000240000202800002010B50121064800F0E4
:100B600059F840B105480068401C0449086001215B
:100B7000014800F03DF810BD0010004018000020B2
:100B800021B1028842F08002028004E002884FF620
:100B90007F731A400280704738B5002000906A4683
:100BA00001210648006802F083FA04462CB100983F
:100BB00018B14FF080500249086038BD1000002085
:100BC00004ED00E038B5002000906A460221064896
:100BD000006802F06DFA04462CB1009818B14FF08D
:100BE00080500249086038BD1000002004ED00E08C
:100BF000CA430282704721B1028842F0010202809A
:100C000004E002884FF6FE731A40028070470146E6
:100C1000888C704730B50246002000230024158AD6
:100C200005EA0103958905EA010413B10CB101201D
:100C300000E0002030BD1AB183890B43838102E0BC
:100C400083898B4383817047818670470187704712
:100C500081877047A0F8401070470000002202888A
:100C60001D4B98420ED01D4B98420BD0B0F1804FD7
:100C700008D01B4B984205D01A4B984202D01A4B11
:100C8000984204D14FF68F731A404B881A43174B82
:100C9000984207D0164B984204D04FF6FF431A40B3
:100CA000CB881A4302808B8883850B8803850A4B87
:100CB00098420BD0094B984208D00E4B984205D071
:100CC0000D4B984202D00D4B984201D10B7A03860E
:100CD0000123838270470000002C01400034014052
:100CE0000004004000080040000C004000100040DC
:100CF0000014004000400140004401400048014011
:100D000010B5024800F0DDF810BD00007C010020A5
:100D100001F40072B2F5007F00D100BFCA43028027
:100D2000704721B1828942F40052828104E08289B5
:100D30004DF6FF731A408281704770B50246002459
:100D400000230025002040F66A16B14200D100BF02
:100D5000C1F3421501F01F03012606FA03F3012D2A
:100D600002D19689334006E0022D02D1168A334023
:100D700001E0968A33400C12012606FA04F4168824
:100D8000344013B10CB1012000E0002070BDF0B57B
:100D90000346002400260025002040F66A17B942C9
:100DA00000D100BF1846C1F3421401F01F0601270D
:100DB00007FA06F5012C01D10C3004E0022C01D118
:100DC000103000E014301AB107682F43076002E0CA
:100DD0000768AF430760F0BD2DE9F04786B00546D0
:100DE0000E460024A24600BFA1460027B08900B1EC
:100DF00000BF2F462C8A4CF6FF700440F088044355
:100E00002C82AC894EF6F3100440B0883189084337
:100E1000718908430443AC81AC8A4FF6FF4004401B
:100E2000B0890443AC8201A8FFF7F0FC1F48874259
:100E300002D1DDF810A001E0DDF80CA0A88900F4D3
:100E4000004040B10AEBCA0000EB0A1031684900CB
:100E5000B0FBF1F807E00AEBCA0000EB0A103168BA
:100E60008900B0FBF1F86420B8FBF0F00401200920
:100E7000642101FB1089A88900F4004040B13220B0
:100E800000EBC900B0FBF1F000F00700044308E0FC
:100E9000322000EB09106421B0FBF1F000F00F00EC
:100EA00004432C8106B0BDE8F08700000038014003
:100EB00001468888C0F308007047C1F308028280A9
:100EC000704770B5044640F225512068FFF735FFA2
:100ED000E0B12068FFF7ECFFC5B2E18AA068455495
:100EE000E08A401C80B2E082E189884201DB002078
:100EF000E082608BE189884202DA608B401C60836B
:100F0000606A10B12846616A884700BF40F22771C5
:100F10002068FFF712FF08B3A08A60B9002240F2F0
:100F200027712068FFF733FF012240F22661206815
:100F3000FFF72DFF37E0638A6268D15C2068FFF716
:100F4000BCFF608A401C80B26082A189884201DBBC
:100F500000206082A08A401EA08224E040F2266128
:100F60002068FFF7EAFEF0B1A08A50B9002240F2F3
:100F700026612068FFF70BFF206AA0B1206A804736
:100F800011E0638A6268D15C2068FFF796FF608A8F
:100F9000401C80B26082A189884201DB002060820F
:100FA000A08A401EA08270BDF8B504460E461746C2
:100FB000002525E00CE001F089FBA08A009001F0FB
:100FC000A7FBA089BDF80010884200DD01E000BF4A
:100FD000F1E700BF705D228A6168885401F076FBFA
:100FE000208A401C80B22082A189884201DB002037
:100FF0002082A08A401CA08201F08AFB681C85B276
:10100000BD42D7DB012240F227712068FFF7BFFE07
:10101000F8BD00000A480B4908600B4848600B48BF
:1010200088604FF480608881C881002008824882EF
:10103000C882088348838882C86108624862704712
:10104000003801407C010020A4010020A4050020FC
:1010500000BFFEE70FB4054B10B503A9044A029880
:1010600000F02CF810BC5DF814FB0000EB1A00082F
:10107000C80000200FB4084B10B504A902AA0398B9
:1010800000F01CF8044602A9002000F0F3F8204606
:1010900010BC5DF814FB00007512000802E008C8DF
:1010A000121F08C1002AFAD170477047002001E0E2
:1010B00001C1121F002AFBD1704700002DE9FF4F2C
:1010C0008BB09A460F460546002606E025280BD031
:1010D00052460D9990476D1C761C28780028F5D152
:1010E0000FB03046BDE8F08F0024A04601226049D1
:1010F00000E0044315F8013F203B02FA03F00842E8
:10110000F7D128782E2817D115F8010F44F00404E0
:101110002A280ED06FF02F022878A0F1300109297B
:101120000AD808EB880102EB410100EB01086D1CB5
:10113000F2E757F8048B6D1C287869283ED006DC4E
:101140000028CDD063280BD0642804D136E0732862
:1011500010D075284BD052460D999047761C85E0EB
:1011600017F8040B8DF8000000208DF80100E94607
:10117000012003E057F8049B4FF0FF3061074FF068
:10118000000401D40AE0641C44450DDA8442FADB11
:1011900019F804100029F6D106E0641C8442FCDB37
:1011A00019F804100029F8D1264404E019F8010BBD
:1011B00052460D999047641EF8D257E001CF4FF088
:1011C0000A0B002802DA40422D2102E0210504D555
:1011D0002B218DF82410012103E0E10705D0202107
:1011E000F7E70DF1200908910CE00021F9E701CFA4
:1011F0004FF00A0BF9E75946FFF73CF801F13002CE
:1012000009F8012D0028F6D1ADEB090000F1200B03
:10121000600701D44FF00108D84502DDA8EB0B00B0
:1012200000E000208046002406E009A85246005D48
:101230000D999047641C761C08988442F5DB04E005
:10124000302052460D999047761CB8F10001A8F164
:101250000108F5DC05E019F8010B52460D9990479D
:10126000761CBBF10001ABF1010BF4DC6D1C34E723
:10127000092801000A68531C0B60107070470000B9
:1012800070B50546304800EB0514206880470028FB
:101290003ED02079052802DA0520207152E020791D
:1012A0000A2803DA2079401C20714BE0A07A38B973
:1012B0000120A07205EB4501491CC8B200F07CFA80
:1012C000208900283EDDE088218988420DDAE08807
:1012D000401C80B2E0802189884233D105EB450172
:1012E000C91CC8B200F068FA2CE0E07A002829DDB9
:1012F000207B401CC0B22073E17A884222DB0020B0
:10130000207305EB4501491CC8B200F055FA19E0FD
:101310002079052802DD0520207110E0207918B120
:101320002079401E20710AE0A07A012807D1002010
:10133000A07205EB4501891CC8B200F03DFA0020FF
:10134000E080207370BD0000CC0000200B48807A44
:101350000A4AD27A904201D1002070470748807A29
:10136000064A115C1046807A401CC0B290720A286E
:1013700001DB002090720846EFE700006C010020BE
:1013800001460020244A914201D1C81442E0234A78
:10139000914201D148143DE0214A914202D14FF4DB
:1013A000002037E01F4A914202D14FF4801031E013
:1013B0001D4A914202D14FF400102BE0B1F1804F51
:1013C00001D1012026E0194A914201D1022021E0F9
:1013D000174A914201D104201CE0164A914201D1E2
:1013E000082017E0144A914201D1102012E0134A5C
:1013F000914201D120200DE0114A914201D14020BB
:1014000008E0104A914201D1802003E00E4A914247
:1014100000D1881570470000002C014000340140C5
:10142000004C0140005001400054014000040040C5
:1014300000080040000C0040001000400014004074
:1014400000180040001C00400020004010B54FF480
:101450004070FFF7A7F900F053F900F017F900F01A
:1014600057F800F001F810BD7FB501210846FFF7DD
:10147000A3F91548006846081448B6FBF0F085B299
:101480004FF6FF74ADF80840ADF804500020ADF8F9
:101490000A00ADF8060001A94FF08040FFF7DEFB1F
:1014A00001218807FFF7A7FB1C208DF8000004200E
:1014B0008DF8010000208DF8020001208DF8030056
:1014C0006846FFF737F97FBD4000002040420F001B
:1014D00010B504467D20FFF703FA08B1FFF78CF939
:1014E0000120FFF71BFA00BF6120FFF7F9F9002880
:1014F000FAD045F25550FFF753F80520FFF744F8AE
:10150000A0B2FFF747F8FFF737F8FFF729F810BD4B
:1015100010B500F051F800F001F810BD08B5012138
:101520004020FFF759F903208DF8020004208DF8C0
:1015300003002020ADF8000069461C48FEF758FF64
:101540001020ADF8000069461848FEF751FF08204A
:10155000ADF8000069461548FEF74AFF4FF4004019
:10156000ADF8000069461248FEF742FF0820ADF8CA
:10157000000069460F48FEF73BFF4FF48040ADF88E
:10158000000069460A48FEF733FF4FF40050ADF8FB
:10159000000069460648FEF72BFF8020ADF80000EA
:1015A00069460348FEF724FF08BD0000001801400B
:1015B00000200140001401400021284A9172D1729C
:1015C0001173002018E06421254A02EB00121181FA
:1015D0000221234A02EB001211710021204A02EB82
:1015E000001291721E4A02EB0012D1721C4A02EBE9
:1015F00000121173411CC8B20A28E4DB64221849A6
:101600000A87052281F83B206422A1F848200522A0
:1016100081F84B206422A1F85820052281F85B2034
:101620006422A1F86820052281F86B200D490C4A3C
:1016300011600D4911610D4911620D4911630D4988
:1016400011640D4911650D4911660D4911670D4968
:10165000C2F880100C49C2F8901070476C0100204D
:10166000CC00002041060008710600088906000829
:10167000A1060008B9060008D1060008E90600081E
:1016800001070008190700085906000808B50121DC
:101690003020FFF7A1F8012000F048F8022000F008
:1016A00045F8032000F042F8042000F03FF8032042
:1016B0008DF8020010208DF803004020ADF80000E6
:1016C00069460D48FEF794FE8020ADF8000069469B
:1016D0000948FEF78DFE4FF40050ADF80000694652
:1016E0000648FEF785FE4020ADF800006946034835
:1016F000FEF77EFE08BD000000100140001401400E
:1017000010B5FFF787FCFEF751FFFFF70DF9FEF765
:101710005DFE10BD10B5002404E02046FFF7B0FDCB
:10172000601CC4B2032CF8DB10BD0000411EC8B21F
:1017300018B940210A4A116110E0012803D1802123
:10174000074A11610AE0022803D10103054A11602A
:1017500004E0032802D14021024A116070470000D2
:101760000010014010140140012806D11049C96839
:1017700081F040010E4AD16019E0022806D10C49DF
:10178000C96881F080010A4AD16010E0032806D1BF
:101790000849096881F40051064A116007E00428ED
:1017A00005D10449096881F04001024A116070477F
:1017B000001001400C1401400649C97A054A5054F2
:1017C0001146C97A491CC9B2D1720A2901DB00212C
:1017D000D17270476C0100202DE9FF5F04460D4671
:1017E00091469A467448844202D07448844207D194
:1017F0002046FFF7C5FD83460121FEF7EDFF06E019
:101800002046FFF7BDFD83460121FEF7D5FF002DE1
:1018100041D100212046FFF7EEF9AB4666488442ED
:1018200002D14FF0190B28E0B4F1804F02D14FF0F4
:101830001C0B22E06248844202D14FF01D0B1CE0D9
:101840006048844202D14FF01E0B16E05E4884428D
:1018500002D14FF0320B10E05C48844202D14FF0CD
:10186000360B0AE05A48844202D14FF0370B04E0AD
:101870005248844201D14FF02C0B8DF800B08DF806
:1018800001908DF802A000208DF803006846FEF755
:1018900051FFBDE8FF9F484884420BD0474884422F
:1018A00008D04C48844205D04B48844202D04B4873
:1018B000844202D14A48066801E049480668642D1E
:1018C0000AD242F20F7842F21070B6FBF0F0B0FB91
:1018D000F5F0401E87B213E040F6B830854209D2D9
:1018E0004FF063086420B6FBF0F0B0FBF5F0401E4B
:1018F00087B205E04FF00008B6FBF5F0401E87B256
:10190000ADF80870ADF804800020ADF80A00ADF81D
:1019100006008DF80C0001A92046FFF79FF9012170
:101920002046FFF72DF9012211462046FFF783F9E3
:1019300001212046FFF75FF94FF0000B1E4884425B
:1019400002D14FF0190B28E0B4F1804F02D14FF0D3
:101950001C0B22E01A48844202D14FF01D0B1CE000
:101960001848844202D14FF01E0B16E016488442FC
:1019700002D14FF0320B10E01448844202D14FF0F4
:10198000360B0AE01248844202D14FF0370B04E0D4
:101990000A48844201D14FF02C0B8DF800B08DF82D
:1019A00001908DF802A001208DF803006846FEF733
:1019B000C1FE00BF6DE70000002C01400034014073
:1019C0000004004000080040000C004000100040EF
:1019D00000140040004C0140005001400054014000
:1019E000400000202DE9F04104460F461546052F22
:1019F00000D37F1F4FF08040FFF709F9804608EBC6
:101A00000706012C0FD125480560B1B2A007FFF7EA
:101A10001BF902214807FFF7EBF8012202214807D2
:101A2000FFF709F938E0022C0FD11D480560B1B26B
:101A30006007FFF70BF904210807FFF7D9F8012227
:101A400004210807FFF7F7F826E0032C10D115480A
:101A50000560B1B24FF08040FFF7FAF80821C806E0
:101A6000FFF7C6F801220821C806FFF7E4F813E0E3
:101A7000042C0FD10C480560B1B22007FFF7EAF83B
:101A800010218806FFF7B4F8012210218806FFF71D
:101A9000D2F801E0BDE8F08100BFFBE71C000020A8
:101AA0002000002024000020280000202DE9F04123
:101AB00005460E4617462846FEF770FC04460CB94C
:101AC000BDE8F081E06908B1E06980473A463146F7
:101AD0002046FFF769FA00BFF2E713B5044601227A
:101AE00001A92046FFF7E2FF1CBD70B504460D4674
:101AF000E1B20020FFF7F1FF204670BD012080F326
:101B0000108800BFFFF7A2FC00F0BAFEFEF7E2FB70
:101B1000FEF7D8FB01F014F900BFFEE710B504464C
:101B20000E48006844600E480068844207D20B48A3
:101B30000168091D0B48006800F0A2FD0CE0074891
:101B40000168091D0848006800F09AFD0748006810
:101B5000844201D20548046010BD000054000020FA
:101B6000680000205C000020580000208400002055
:101B70002DE9F04105460F461FB9A80000F046FCCC
:101B800000E03846064656B1582000F03FFC0446B7
:101B90000CB1266304E0304600F0D0FD00E00024E4
:101BA00024B1A900A522206BFEF742FB2046BDE828
:101BB000F081000010B500F089FD10480068C8B938
:101BC0000F4800F04DFD0F4800F04AFD0C480E494B
:101BD00008600C480D49086000221021142001F013
:101BE0004FFB064908600846006818B9FEF7EEFA90
:101BF00000BFFEE700F08CFD10BD00009C0000203F
:101C0000800A0020940A0020940000209800002000
:101C100070B523E001F0CCF81348006808B9012042
:101C200000E00020054601F04BFFBDB900F04EFD7D
:101C30000D48C068C468201D00F082FC0B48006895
:101C4000401E0A4908600A480068401E08490860AA
:101C500000F05EFD204600F059F800BF044800681F
:101C60000028D7D170BD0000580A00206400002071
:101C70006000002070B504460D46206C70B1216CE8
:101C8000E0680844E0606168E068884201D3206849
:101C9000E0602846226CE168FEF7B8FA70BD2DE9D5
:101CA000F04104460E4615460027206C40B37DB92E
:101CB0003146226CA068FEF7A9FA216CA06808449E
:101CC000A060D4E9011088421AD32068A06017E010
:101CD0003146226CE068FEF799FA216CE068401A00
:101CE000E0602168E068884203D2216C6068401A95
:101CF000E060022D04D1A06B10B1A06B401EA06368
:101D0000A06B401CA0633846BDE8F08110B50446C6
:101D1000206B00F013FD204600F010FD10BD000008
:101D20000146084A126812680AB9012200E000223E
:101D30000A600A6822B9034A1268D268106800E093
:101D4000002070479400002030B54FF488431748B6
:101D500000F007042CB1C01D20F00700134C041B39
:101D60001B1B0246124C22600024114D6C60D018DF
:101D7000083820F007000F4C206000240D4D2D681E
:101D80006C600C4D2D682C601146441A4C60094C57
:101D900024680C60084D4C682C60084D4C682C6021
:101DA0004FF00044064D2C6030BD0000A80A002012
:101DB000B0000020B8000020C0000020BC000020BF
:101DC000C400002000BFFFF723FF0348006801287C
:101DD000F9D900F027FDF6E7A40900202DE9F04726
:101DE00004460F4616469946DDF82080002507E098
:101DF000795D04F134004155785D00B902E06D1C55
:101E0000102DF5D300BF002143200155062E00D32D
:101E10000526E662201D00F030FC04F1180000F0F9
:101E20002CFC2461C6F10600A06164620020E0641D
:101E3000206584F85400BDE8F087000010B5002448
:101E400007E004EB84010F4A02EB810000F008FC7C
:101E5000641C062CF5D30C4800F002FC0B4800F083
:101E6000FFFB0B4800F0FCFB0A4800F0F9FB0A48B6
:101E700000F0F6FB04480949086004480849086076
:101E800010BD0000A40900201C0A0020300A002018
:101E9000440A0020580A00206C0A00205800002044
:101EA0005C00002010B50146164800E00068036899
:101EB0008B42FBD30246436813448B4204D14368F0
:101EC0004C682344436001460A464B681344046847
:101ED000A34211D10C4C03682468A34208D04B687C
:101EE0000468646823444B6003681B680B6005E06A
:101EF000054B1B680B6001E003680B60884200D053
:101F0000016010BDB0000020B80000202DE9F041B4
:101F100004460D4616461F464FF0000865602461D2
:101F2000B5420CD8F01BA169884202D34FF00108DA
:101F300011E0211D0948006800F0A2FB0BE0BE4241
:101F400004D2BD4202D34FF0010804E0211D044831
:101F5000006800F095FB4046BDE8F0819800002045
:101F60009400002070B5054600F0B0FBA86B08B9DE
:101F7000012400E0002400F0CBFB204670BD70B5CA
:101F8000054600F0A3FBA86BE96B884201D1012450
:101F900000E0002400F0BCFB204670BD2DE9F047B6
:101FA00006460C4690460025206800284BD0204667
:101FB00041684968416000F1080142688A4202D1E3
:101FC0004168496841604168D1F80C9000BF2046E3
:101FD00041684968416000F1080142688A4202D1C3
:101FE0004168496841604168CF6806EB4510076069
:101FF00007F1340006EB45114860786C06EB45119B
:10200000886006EB451080F80C80F86A06EB4511F5
:102010000861B8F1030F05D1B86A18B1022006EBC8
:1020200045110873002006EB45114861F86C06EB7A
:1020300045118861386B00F05BF906EB4511888328
:102040006D1C4F45C3D12846BDE8F087F8B505465D
:102050000F4613480068C068C468201D00F070FA7D
:10206000E069012817D1A06941192B463A4620465C
:10207000FFF74CFF01280ED1002003462A460146F7
:102080000090204601F0B6FD06461EB9FEF79EF808
:1020900000BFFEE700BF2046616A8847F8BD000028
:1020A00094000020F0B587B06BE0039800280ADAAE
:1020B00004AE1EB9FEF78AF800BFFEE7D6E900209D
:1020C000B168904700BF039800285ADB059C6069FF
:1020D00008B9012000E0002010B9201D00F030FAFE
:1020E00002A800F0A7F8054603980A2847D2DFE8BF
:1020F00000F00905072B2D4206082C2E00BF00BF5B
:1021000000BF00BF0498A269811803462A462046F2
:10211000FFF7FCFE012816D12046616A8847E06976
:10212000012810D1002000900498A16942180023D2
:102130001946204601F05EFD07461FB9FEF746F836
:1021400000BFFEE700BF1BE000BF19E000BF04981E
:10215000A061A06908B1012000E0002018B9FEF7D5
:1021600035F800BFFEE7A06941192B462A462046F4
:10217000FFF7CCFE04E0204600F0E0FA00E000BFEC
:1021800000BF00231A4603A90348006801F0ADF818
:1021900000288AD107B0F0BD9C000020F8B50546A4
:1021A0000C4600F005FE684600F044F8064600982C
:1021B000F0B944B9B54206D801F082FC3146284650
:1021C000FFF744FF16E03CB10B480068006808B90F
:1021D000012000E000200446A91B224607480068B1
:1021E00000F02CFB01F06CFC20B900F01BFB01E0BF
:1021F00001F066FCF8BD0000980000209C00002063
:102200000A490968096809B9012100E0002121B1E2
:102210004FF0FF31064A116006E004490968C968B9
:10222000C868034A416811607047000058000020E8
:102230008400002070B5044601F00EFB05460748F7
:102240000068854204D200F00BF80120206001E014
:102250000020206001480560284670BDA0000020D5
:102260002DE9F8432BE020480068C06805681E4847
:102270000068C068C468201D00F062F92046616AE9
:102280008847E06901281AD1A0694619AE4207D9EA
:1022900066602461211D1448006800F0F1F90EE029
:1022A000002003462A4601460090204601F0A2FC89
:1022B00007461FB9FDF78AFF00BFFEE700BF0A48C7
:1022C0000068006808B9012000E000200028CAD09A
:1022D0000548D0F8008005480068034908600348B5
:1022E000C0F80080BDE8F88394000020980000202A
:1022F0000246002101E0521C491C1078A528FAD0A2
:10230000890888B27047000007480068401C08B977
:10231000012000E0002018B9FDF758FF00BFFEE7DC
:10232000FDF754FF00BFFEE7A400002010B50346F0
:10233000002022B903EA010434B1012004E003EAD9
:1023400001048C4200D1012010BD08B500BF6846D1
:10235000FFF7E6FC044620460099FFF71FFFFFF752
:10236000A1FEF4E710B5044600F0B0F911E0606A90
:1023700008B9012000E0002038B904F1240001F080
:102380000FFB18B100F09EFB00E005E0A06C401EC2
:10239000A064A06C0028EADC00BF4FF0FF30A0640E
:1023A00000F0B6F900F092F911E0206908B90120B7
:1023B00000E0002050B904F1100001F0F1FA08B17A
:1023C00000F080FB606C401E606400E002E0606C26
:1023D0000028EADC00BF4FF0FF30606400F098F99D
:1023E00010BD70B505460E4631462846FDF739FF4B
:1023F0002846FDF72FFF044602E020202855641CE4
:102400000F2CFAD300202855281970BD2DE9F04172
:1024100004464FF0000800F0CBFC3C48006808B9C7
:10242000FFF792FC3A480068204000285DD19CB13B
:10243000083404F0070078B104F00700C0F1080088
:10244000044404F0070008B9012000E0002018B996
:10245000FDF7BCFE00BFFEE7002C46D02D4800680B
:10246000844242D82C4E3046056801E02E462D6845
:102470006868A04202D228680028F7D12348006883
:10248000854232D0306800F10808286830606868FA
:10249000001B102812D92F1907F0070008B90120D6
:1024A00000E0002018B9FDF791FE00BFFEE7686864
:1024B000001B78606C603846FFF7F4FC15496868CB
:1024C0000968081A13490860084600681349096832
:1024D000884203D20F480068104908600C496868B8
:1024E0000968084368600020286001F0E9FA08F0F4
:1024F000070008B9012000E0002018B9FDF766FECA
:1025000000BFFEE74046BDE8F0810000B8000020B3
:10251000C4000020BC000020B0000020C00000204B
:10252000001F4FF080730360001F0160001F034B0A
:102530000360143802602038704700000923000847
:1025400001460A69D1E901309860D1E90103586078
:102550005068884201D18868506000200861106886
:10256000401E1060106870472DE9F041054688460E
:1025700016460024062700F01BFC1D480068804515
:1025800030D300BF7F1E07EB87021A4B03EB82019B
:1025900005EB44100122FFF701FD0444002FF1D1A7
:1025A00005EB4410022214490968FFF7F7FC0444C4
:1025B00005EB4410022211490968FFF7EFFC0444BF
:1025C00005EB441004220E49FFF7E8FC044405EB38
:1025D000441003220B49FFF7E1FC044416B10A48FA
:1025E0000068306001F06CFA2046BDE8F081000020
:1025F00064000020A4090020580000205C00002096
:10260000580A00206C0A00201800002005490968BB
:10261000886904490968C96AC1F10601014A12685A
:10262000916170475400002070B505460C46214664
:1026300001A0FEF70FFD70BDC8CECEF1A3BA257381
:1026400020B7A2CFD6D5BBD2E7B3F60D0A00000063
:1026500070B504460D462946204600F0D0FC70BDFA
:1026600000F1080141604FF0FF31816000F1080185
:10267000C160016100210160704700210161704764
:1026800010B502460B685C1C0CB9106907E002F13A
:10269000080000E04068446824689C42FAD9446815
:1026A0004C604C68A160886041600A611468641CD9
:1026B000146010BD42684A6093688B6093685960EB
:1026C0009160086103685B1C0360704710B5FDF7FB
:1026D0007DFD0D480068401C0B490860BFF34F8F1B
:1026E000BFF36F8F0846006801280BD107480068C8
:1026F000C0B208B9012000E0002018B9FDF766FD5E
:1027000000BFFEE710BD0000A400002004ED00E0C3
:1027100010B50948006818B9FDF758FD00BFFEE77D
:1027200005480068401E044908600846006810B962
:102730000020FDF752FD10BDA400002070B5064634
:102740003546002E31D0083D2C461849606809688E
:10275000084008B1012000E0002018B9FDF736FD5F
:1027600000BFFEE7206808B9012000E0002018B98A
:10277000FDF72CFD00BFFEE70C49606809680840C2
:1027800098B1206888B90949606809688843606021
:1027900000F00EFB064960680968084404490860B7
:1027A0002046FFF77FFB01F08BF970BDC4000020CD
:1027B000BC00002003484FF0E02148610720086179
:1027C000704700003F19010070B5FDF709FD05468F
:1027D000102D0FD305F1E02090F8F0430E4800785B
:1027E000844201DB012000E0002018B9FDF7EEFC77
:1027F00000BFFEE70948006800F4E0600849096886
:10280000884201D8012000E0002018B9FDF7DEFC65
:1028100000BFFEE770BD0000A80000200CED00E046
:10282000AC0000204FF0805003490860BFF34F8F89
:10283000BFF36F8F7047000004ED00E02DE9F04119
:1028400005460E4617462C46FFF740FF606C401CBD
:1028500008B900206064A06C401C08B90020A06486
:10286000FFF756FFA06B28B93A46314604F1240021
:1028700000F094F92046FFF775FDBDE8F0810000F7
:1028800010B50023012244F620610248FEF7A4FFA0
:1028900010BD00000010004070B50446002634B39F
:1028A0001548006808B9012000E0002018B9FDF7BC
:1028B0008DFC00BFFEE700F07BFA104800680519A8
:1028C0000F480068001DFFF73BFE50B90C48006838
:1028D00090F82C10012088400A4909688143094872
:1028E00001602846FFF71AF901F0EAF806460EB92A
:1028F000FFF798FF70BD00008800002068000020EE
:10290000540000206C000020FEB505460020287011
:10291000264800680290254909684801FFF776FDBE
:102920000446002C40D06A4620460299FFF71CFE60
:10293000029064210098B0FBF1F00090009800280C
:102940002FD00020019028E0019804EB401080690E
:102950000099B0FBF1F6019804EB4010416828465D
:10296000FFF73FFD05464EB1019804EB401033469A
:102970000FA182692846FEF77DFB07E0019804EB72
:1029800040100EA182692846FEF774FB2846FDF729
:1029900061FC05440198401C0190DDE90101884279
:1029A000D2D32046FFF7CAFEFEBD0000640000201F
:1029B0000925750909257525250D0A0009257509BB
:1029C000093C3125250D0A000024002514E00220D1
:1029D000FEF7CAFE002407E0002501E0681C85B26E
:1029E0003C2DFBDB601C84B241F270708442F3DB4F
:1029F0004FF49670FFF750FFE9E700007FB50546FA
:102A0000002028702A480068039029490968480175
:102A1000FFF7FCFC0446002C49D000222046039915
:102A2000FFF7A2FD03900020029039E0029804EB2A
:102A30004010007B012806D0022806D0032806D0CB
:102A4000042808D105E0522607E0422605E0532677
:102A500003E0442601E0002600BF00BF029804EB1B
:102A6000401041682846FFF7BCFC0546029804EB7D
:102A700040108068029904EB4111898BCDE9001068
:102A8000029804EB401032460AA103692846FEF77B
:102A9000F1FA2846FDF7DEFB05440298401C02903F
:102AA000DDE902018842C1D32046FFF747FE7FBD22
:102AB0006400002009256309257509257509257518
:102AC0000D0A0000012001490860704778000020CD
:102AD00008B500BF14E0642001231A4603210090CA
:102AE0000848006800F0F6FA044604F003000328E2
:102AF00003D105A0FEF7AEFA02E00320FEF734FE94
:102B0000E9E7000010000020BDD3CAD5B5BD626959
:102B10007430BACD62697431B6BCB1BBC9E8D6C3F2
:102B2000B5C4CFFBCFA20D0A0000000070B505466A
:102B30000C461DB9FDF74AFB00BFFEE713480168CC
:102B400018312846FFF79CFD10480068001DFFF76C
:102B5000F7FC50B90D48006890F82C10012088400F
:102B60000B49096881430A480160601C30B9074875
:102B70000168091D0748FFF79DFD05E0064800684C
:102B800006193046FEF7CAFF70BD00005400002051
:102B90006C0000206C0A0020680000202DE9F04144
:102BA00004460D4616461CB9FDF710FB00BFFEE7B4
:102BB0001348016818312046FFF77CFD1048006873
:102BC000001DFFF7BDFC50B90D48006890F82C10AF
:102BD000012088400B49096881430A480160012EA1
:102BE00006D107480168091D0748FFF763FD05E0A6
:102BF0000648006847193846FEF790FFBDE8F081A7
:102C0000540000206C0000206C0A002068000020A6
:102C10002DE9F04105460E4614461DB9FDF7D6FADA
:102C200000BFFEE71B48006808B1012000E000205B
:102C300018B9FDF7CBFA00BFFEE746F00040164991
:102C4000096888611448016818312846FFF732FD89
:102C500011480068001DFFF773FC50B90E4800686A
:102C600090F82C10012088400C49096881430B48DA
:102C70000160601C30B908480168091D0848FFF769
:102C800019FD05E00748006807193846FEF746FFBA
:102C9000BDE8F08188000020540000206C00002076
:102CA0006C0A00206800002010B504461CB9FDF72E
:102CB0008DFA00BFFEE70348006820600248006804
:102CC000606010BD7C000020680000203520FEF709
:102CD000FFFB09A0FEF7BEF915A0FEF7BBF906A0A1
:102CE000FEF7B8F906E0FDF743FCFEF713FD0A20F6
:102CF000FFF7D2FDF7E700003D3D3D3D3D3D3D3D49
:102D00003D3D3D3D3D3D3D3D3D3D3D3D3D3D3D3DF3
:102D10003D3D3D3D3D3D3D3D3D3D3D3D3D3D3D3DE3
:102D20003D3D3D3D3D3D3D3D3D3D3D3D3D0D0A0073
:102D30003DCFB5CDB3BFAABBFAD6B4D0D00D0A00F3
:102D40001FB500200090019002900346802211A13F
:102D50000390124800F0D4FC0446012C02D100F08C
:102D600023FF0446012C0FD1FDF730FAA01E0C49B9
:102D7000086001200B49086000200B4908600B49DE
:102D8000086000F02DFA04E01CB9FDF71FFA00BF3F
:102D9000FEE71FBD49444C4500000000C51D00086A
:102DA000840000207000002068000020180000202F
:102DB00002480068401C01490860704788000020F4
:102DC00070B53448006818B101203349086060E0EC
:102DD00000203149086031480068314908600846E0
:102DE00000683049096888420BD92F49096801F108
:102DF0004C00C96C2A4A12682A4B1B68D21A11442B
:102E00000160274800682749086027480068046B6C
:102E10004FF0A5352068B0F1A53F0BD16068B0F147
:102E2000A53F07D1A068B0F1A53F03D1E068B0F19C
:102E3000A53F05D01C48016834310068FFF7F4FB5A
:102E40001A480068B0FA80F0C0F11F0404EB840057
:102E5000174951F8200008B1012000E0002018B9FE
:102E6000FDF7B4F900BFFEE704EB8401104A02EB62
:102E7000810041684968416000F1080142688A4266
:102E800002D14168496841604168C968064A1160D9
:102E900000BF70BD880000207800002018000020CE
:102EA000900000208C000020540000206C000020C6
:102EB000A4090020FEB03FE0FEF748FA0446002CCB
:102EC00037D0012C04D0042C1AD0072C2CD121E0AF
:102ED0001AA0FEF7BFF826A0FEF7BCF801A8FFF77E
:102EE0008DFD01A92EA0FEF7B5F82FA0FEF7B2F8D0
:102EF00001A8FFF709FD01A929A0FEF7ABF814E02E
:102F00003448FEF7A7F8344A4CF250310120FEF75E
:102F100069FD0AE03148FEF79DF8314A4CF2503124
:102F20000220FEF75FFD00E000BF00BF0120FEF7BA
:102F30001BFC1420FFF7B0FCBEE700003D3D3D3D0B
:102F40003D3D3D3D3D3D3D3D3D3D3D3D3D3D3D3DB1
:102F50003D3D3D3D3D3D3D3D3D3D3D3D3D3D3D3DA1
:102F60003D3D3D3D3D3D3D3D3D3D3D3D3D0D0A0031
:102F7000C8CECEF1C3FB202020202020C8CECEF129
:102F8000D7B4CCAC20D3C5CFC8BCB6202020CAA3B0
:102F9000D3E0D5BB20C8CECEF1D0F2BAC50D0A0021
:102FA00025730D0A000000000D0AC8CECEF1C3FB48
:102FB00020202020202020D4CBD0D0BCC6CAFD2089
:102FC0002020202020202020CAB9D3C3C2CA0D0A45
:102FD00000000000A03C0008990B0008F03C00082D
:102FE000C50B000810B51C20FFF710FA044624B1E9
:102FF00000202060201DFFF733FB204610BD2DE987
:10300000FE4F07468846002001903C4600901FB9BD
:10301000FDF7DCF800BFFEE708F07F4008B90120AB
:1030200000E0002018B9FDF7D1F800BFFEE704F179
:10303000040909F108000290FFF7BAFED9F80C6004
:10304000206840EA0800206026E0D6F804B0356821
:103050000020009005F07F4A25F07F450AF080604F
:1030600028B92068284040B10120009005E0206880
:103070002840A84201D101200090009858B10AF0E0
:10308000807010B1019828430190206840F00071D1
:10309000304600F0CBFC5E4602988642D5D12068CF
:1030A00001998843206000F00BFD2068BDE8FE8F89
:1030B0002DE9F04104460D46164633462A46214680
:1030C000034800F0D3FD07463846BDE8F081000014
:1030D000512600082DE9FF4F83B081460D46174663
:1030E000DDF840804C464FF0000A00200190B9F115
:1030F000000F03D1FDF76AF800BFFEE705F07F403F
:1031000008B9012000E0002018B9FDF75FF800BF02
:10311000FEE70DB1012000E0002018B9FDF756F8D8
:1031200000BFFEE700F088FB10B9B8F1000F01D135
:10313000012000E0002018B9FDF748F800BFFEE7C5
:10314000FFF736FE206800902946069A0098FFF7A0
:10315000EDF80290029838B1009E4FF00008B7B128
:103160002068A843206012E0B8F1000F01D1009E52
:103170000DE00FB14AF0807A069808B14AF0806AF3
:1031800045EA0A014246201DFFF742FD002600F0F5
:1031900097FC8346B8F1000F1DD0BBF1000F01D1A1
:1031A000FFF740FBFFF732FA064606F0007080B9E1
:1031B000FFF78CFA266829463046069AFFF7B6F8DC
:1031C00018B117B12068A8432060FFF7A1FA0020CA
:1031D000019026F07F46304607B0BDE8F08F000032
:1031E0001CB52248014609780191FF210246117061
:1031F0000146097800919DF8001001F010011C4A69
:10320000117007211B4A116009E01A490968491E1B
:10321000184A11609DF800104906090E00919DF8AA
:10322000001001F080018029EFD0124909680902DD
:10323000104A11601146098801F4E06111600B4ADF
:10324000019911700C48006840F470000A49086048
:103250000846006840F070400860FFF7ABFA0020B5
:1032600006490860FCF780FF00201CBD00E400E078
:10327000A8000020AC00002020ED00E0A400002009
:103280002DE9F04706460D4690464FF000090EB175
:10329000012000E0002018B9FCF798FF00BFFEE70E
:1032A0000DB9002702E006FB05F0471C07F15400AA
:1032B000FFF7ACF8044674B10DB9246002E004F1E4
:1032C00054002060E66325640121204600F0ABF83D
:1032D00084F85080A146B9F1000F03D1FCF776FFC6
:1032E00000BFFEE74846BDE8F0872DE9FF4383B005
:1032F00005460E461F464FF000092C461CB9FCF748
:1033000065FF00BFFEE70EB9206C08B9012000E0A0
:10331000002018B9FCF75AFF00BFFEE700F08CFA56
:1033200008B9059808B9012000E0002018B9FCF799
:103330004DFF00BFFEE700BFFFF7C8F9A06B68B301
:10334000D4F80C8031462046FEF794FC8FB9A06B70
:10335000401EA063206908B9012000E00020B8B930
:1033600004F1100000F01CFB012811D1FFF75AFAFC
:103370000EE0C4F80C80606A08B9012000E000206B
:1033800030B904F1240000F00BFB08B1FFF74AFA52
:10339000FFF7BEF9012007B0BDE8F083059818B922
:1033A000FFF7B6F90020F6E7B9F1000F04D101A844
:1033B000FFF77AFC4FF00109FFF7AAF9FFF7F8FCD5
:1033C000FFF784F9606C401C08B900206064A06CB1
:1033D000401C08B90020A064FFF79AF905A901A8CC
:1033E00000F054F9C0B92046FEF7BCFD70B104F1FD
:1033F00024000599FFF79AFB2046FEF7B3FF00F083
:103400005FFB002898D1FFF70DFA95E72046FEF7FD
:10341000A9FF00F055FB8FE72046FEF7A3FF00F061
:103420004FFB0020B7E770B505460E462C461CB989
:10343000FCF7CCFE00BFFEE7FFF748F9D4E90F1216
:10344000206801FB020060600020A0632068A0608B
:10345000E06B401E226C216800FB0210E0604FF020
:10346000FF306064A06476B9206908B9012000E0EB
:10347000002080B904F1100000F092FA01280AD16E
:10348000FFF7D0F907E004F11000FFF7E9F804F1C5
:103490002400FFF7E5F8FFF73BF9012070BD2DE9A7
:1034A000FF4383B0064688461D464FF00009344668
:1034B0001CB9FCF78BFE00BFFEE7B8F1000F01D18D
:1034C000206C08B9012000E0002018B9FCF77EFE4E
:1034D00000BFFEE7022D02D1E06B012801D10120DF
:1034E00000E0002018B9FCF771FE00BFFEE700F015
:1034F000A3F908B9059808B9012000E0002018B91F
:10350000FCF764FE00BFFEE700BFFFF7DFF8A06B2B
:10351000E16B884201D3022D1DD12A464146204647
:10352000FEF7BDFB0746606A08B9012000E00020F5
:1035300040B904F1240000F033FA012805D1FFF767
:1035400071F902E00FB1FFF76DF9FFF7E1F8012023
:1035500007B0BDE8F083059818B9FFF7D9F8002047
:10356000F6E7B9F1000F04D101A8FFF79DFB4FF07A
:103570000109FFF7CDF8FFF71BFCFFF7A7F8606C18
:10358000401C08B900206064A06C401C08B90020F1
:10359000A064FFF7BDF805A901A800F077F8C0B94D
:1035A0002046FEF7ECFC70B104F110000599FFF71E
:1035B000BDFA2046FEF7D6FE00F082FA0028A4D11C
:1035C000FFF730F9A1E72046FEF7CCFE00F078FACD
:1035D0009BE72046FEF7C6FE00F072FA0020B7E730
:1035E0002DE9F0470646894617461D4634461CB964
:1035F000FCF7ECFD00BFFEE7B9F1000F01D1206C34
:1036000008B9012000E0002018B9FCF7DFFD00BF79
:10361000FEE7022D02D1E06B012801D1012000E07C
:10362000002018B9FCF7D2FD00BFFEE7FFF7CCF889
:10363000FCF7CCFD8246A06BE16B884201D3022DE2
:103640001CD12A4649462046FEF729FBA06C401CA7
:1036500070B9606A08B9012000E0002058B904F18F
:10366000240000F09DF930B12FB10120386002E054
:10367000A06C401CA0644FF0010801E04FF000086E
:103680005046FCF7AAFD4046BDE8F0872DE9F04121
:1036900004460D461CB9FCF799FD00BFFEE71DB9B5
:1036A000FCF794FD00BFFEE7FFF710F8124807682B
:1036B0002868401C08B9002619E0104920680968EC
:1036C000884204D06068B84201D801260FE06068E3
:1036D000381A2968884209D228686168791A401A1C
:1036E00028602046FFF7E0FA002600E00126FFF7F9
:1036F0000FF83046BDE8F081680000207C00002013
:103700002DE9FF4F81B0804616469A46DDE90E5BF3
:10371000B8F1000F03D1FCF759FD00BFFEE7062DFD
:1037200001D2012000E0002018B9FCF74FFD00BFD6
:10373000FEE730461099FEF71BFA0446002C5DD0D8
:10374000701E216B01EB800929F0070909F00700C1
:1037500008B9012000E0002018B9FCF737FD00BFD0
:10376000FEE700962A462046119B0299FEF736FB9B
:10377000524641464846FEF7D3FE2060BBF1000F9B
:1037800001D0CBF80040FEF7A1FF25480068401C9F
:10379000234908602348006840B92248046008466D
:1037A000006801280CD1FEF749FB09E01E480068BB
:1037B00030B91C480068C06AA84201D819480460A2
:1037C0001A480068401C194908600846006860648F
:1037D00094F82C10012088401549096808431449C1
:1037E0000860E16A01EB8101124A02EB8100211DB0
:1037F000FEF760FF0127FEF78BFF01E04FF0FF3778
:10380000012F09D10848006830B106480068C06A35
:10381000A84201D2FFF706F8384605B0BDE8F08FA0
:103820006400002054000020700000208000002070
:103830006C000020A40900200549096809B901208D
:1038400005E00449096809B9022000E0002070473A
:1038500070000020880000200149086870470000BF
:10386000680000202DE9F0414FF000084148006851
:10387000002872D140480068401C3F490860084653
:103880000668DEB93D480068006808B9012000E01C
:10389000002018B9FCF79AFC00BFFEE7374807681C
:1038A0003748006835490860354807603548006882
:1038B000401C34490860FEF7A3FC00BF3248006892
:1038C00086423CD300BF2D480068006808B901203B
:1038D00000E0002020B14FF0FF302B4908602DE0C0
:1038E00026480068C068C4686568AE4202D22648AF
:1038F000056023E0201DFEF723FEA06A18B104F145
:103900001800FEF71DFE94F82C10012088401F4976
:10391000096808431D490860E16A01EB81011C4AFE
:1039200002EB8100211DFEF7C5FE1A49E06A096815
:10393000C96A8842C7D34FF00108C4E700BF1548E1
:103940000068C06A00EB8000114951F8200001288E
:1039500008D94FF0010805E0FFE70F480068401C58
:103960000D4908600D48006808B14FF00108404655
:10397000BDE8F08188000020680000205800002089
:103980005C0000207C000020840000206C000020EF
:10399000A4090020540000207400002078000020BA
:1039A00070B50646F068C4681CB9FCF70FFC00BF90
:1039B000FEE704F11800FEF7C3FD16480068A8B939
:1039C000201DFEF7BDFD94F82C10012088401249FF
:1039D0000968084310490860E16A01EB81010F4A58
:1039E00002EB8100211DFEF765FE04E004F11801E1
:1039F0000B48FEF75FFE0B49E06A0968C96A884216
:103A000004D9012501200849086000E00025284666
:103A100070BD0000880000206C000020A409002078
:103A2000440A002054000020780000202DE9F041D5
:103A300005460F461D48006808B1012000E000203F
:103A400018B9FCF7C3FB00BFFEE747F00040286051
:103A5000EC681CB9FCF7BAFB00BFFEE72846FEF78E
:103A60006FFD201DFEF76CFD94F82C10012088409E
:103A70000F49096808430E490860E16A01EB8101BA
:103A80000C4A02EB8100211DFEF714FE0A49E06A90
:103A90000968C96A884204D90126012007490860DB
:103AA00000E000263046BDE8F081000088000020DC
:103AB0006C000020A40900205400002078000020A1
:103AC00070B500253048006818B9FCF77FFB00BFCF
:103AD000FEE7FEF7FBFD2C480068401E2A490860FF
:103AE0000846006800284BD128480068002847D0C5
:103AF00024E02748C068C46804F11800FEF720FDE0
:103B0000201DFEF71DFD94F82C100120884021494E
:103B1000096808431F490860E16A01EB81011E4AF8
:103B200002EB8100211DFEF7C5FD1C49E06A096812
:103B3000C96A884202D30120194908601448006804
:103B400008B9012000E000200028D2D01548006804
:103B500078B10AE0FFF786FE10B101201049086035
:103B600010480068401E0F4908600E480068002891
:103B7000F0D10B480068012802D10125FEF752FE62
:103B8000FEF7C6FD284670BD8800002064000020B6
:103B9000440A00206C000020A409002054000020EA
:103BA00078000020740000201FB50024FEF702F802
:103BB0000C48006868B100200523CDE90030029070
:103BC00003464FF4807208A103900948FFF798FD5F
:103BD00004461CB9FCF7FAFA00BFFEE7204604B021
:103BE00010BD00009C000020546D722053766300CD
:103BF0004B2300082DE9FF4704460D4616461F4695
:103C0000DDF830804FF000091CB9FCF7DFFA00BF87
:103C1000FEE71548006810B3009501960294062D42
:103C200015DAFFF709FE022808D10023424669464B
:103C30000D480068FFF733FC814610E000231A4668
:103C4000694609480068FFF72AFC814607E000231F
:103C50003A46694604480068FFF7C2FC8146484678
:103C600004B0BDE8F08700009C0000202DE9FF4172
:103C700004460D4616461F466FF001000090019461
:103C80000295039600233A46694604480068FFF708
:103C9000A7FC8046404604B0BDE8F0819C000020AF
:103CA0004B32BCFCB0B4CFC2A3ACC6F4B6AFB5A522
:103CB000B4CEB6A8CAB1C6F7D6D0B6CFA3AC35300D
:103CC0006D73BAF3D4DAB6A8CAB1C6F7D6D0B6CFF8
:103CD000B8F8C8CECEF1765461736B4D73675072ED
:103CE0006FB7A2CBCDCAC2BCFEB1EAD6BE0D0A00E8
:103CF0004B33BCFCB0B4CFC2A3ACC6F4B6AFB5A5D1
:103D0000B4CEB6A8CAB1C6F7D6D0B6CFA3AC3530BC
:103D10006D73BAF3D4DAB6A8CAB1C6F7D6D0B6CFA7
:103D2000B8F8C8CECEF1765461736B4D736750729C
:103D30006FB7A2CBCDCAC2BCFEB1EAD6BE0D0A0097
:103D4000603D000800000020CC0000009C1000082E
:103D50002C3E0008CC000020DC550000AC10000810
:103D60000000000000000000000000000000000053
:103D70000000000000000000000000000000000043
:103D80000000000000000000000000000000000033
:103D900001020304010203040607080902040608DD
:103DA00000A24A0400000000000000000102030419
:103DB00006070809000000000000000000000000E5
:103DC00000000000000000000000000000000000F3
:103DD00000000000000000000000000000000000E3
:103DE00000000000000000000000000000000000D3
:103DF00000000000000000000000000000000000C3
:103E000000000000AAAAAAAA00000000000000000A
:103E100000000000000000000000000000000000A2
:0C3E200000000000000000000000000096
:0400000508000131BD
:00000001FF
