:020000040800F2
:1000000058560020E9010008FF060008D504000842
:10001000FB060008650300081D1000080000000032
:100020000000000000000000000000004501000882
:10003000BB03000800000000890100083D0A000819
:10004000030200080302000803020008030200087C
:10005000030200080302000803020008030200086C
:10006000030200080302000803020008030200085C
:10007000030200080302000803020008030200084C
:10008000030200080302000803020008030200083C
:10009000030200080302000803020008030200082C
:1000A000030200080302000803020008030200081C
:1000B000BD0A00080302000803020008030200084A
:1000C00003020008030200080302000803020008FC
:1000D00003020008CD0C0008030200080302000818
:1000E00003020008030200080302000803020008DC
:1000F00003020008030200080302000803020008CC
:1001000003020008030200080302000803020008BB
:100110000302000803020008590B0008030200084C
:10012000030200080302000803020008030200089B
:10013000DFF80CD000F0A2F800480047C91A000808
:1001400058560020204B19680868B0E8F00F80F37B
:100150000988BFF36F8F4FF0000080F311884EF0D5
:100160000D0E70470000000006480068006880F32C
:10017000088862B661B6BFF34F8FBFF36F8F00DFA1
:1001800000BF00BF08ED00E0EFF30980BFF36F8F01
:100190000D4B1A6820E9F00F106008B54FF0100001
:1001A00080F3118802F0EEFA4FF0000080F311881E
:1001B000BDE8084019680868B0E8F00F80F30988C6
:1001C000BFF36F8F704700BF4C000020EFF311802A
:1001D0004FF0100181F31188704780F31188704748
:1001E000EFF3058070470000064880470648004747
:1001F000FEE7FEE7FEE7FEE7FEE7FEE7FEE7FEE7D7
:10020000FEE7FEE75D0A000831010008D2B201E016
:1002100000F8012B491EFBD270470022F6E710B50B
:1002200013460A4604461946FFF7F0FF204610BD64
:10023000421C10F8011B0029FBD1801A70470346AD
:1002400011F8012B00F8012B002AF9D1184670474C
:1002500030B50B46014600202022012409E021FA96
:1002600002F59D4205D303FA02F5491B04FA02F593
:100270002844151EA2F10102F1DC30BD064C074DE9
:1002800006E0E06840F0010394E807009847103466
:10029000AC42F6D3FFF750FF9C2E0008BC2E00089E
:1002A0001FB500201B4A0123CDE9012000930390D4
:1002B00003464FF4007218A11A4802F0CDFB00204B
:1002C000194A0223CDE901200093039003464FF41D
:1002D000007216A1184802F0BFFB0020174A032342
:1002E000CDE901200093039003464FF4007214A15E
:1002F000164802F0B1FB0020154A0423CDE9012085
:100300000093039003464FF4007212A1144802F0C8
:10031000A3FB1FBD00000020765461736B5573650D
:100320007249460079280008040000207654617361
:100330006B4C4544000000005D25000808000020CB
:10034000765461736B4D736750726F0065260008B9
:100350000C000020765461736B537461727400005A
:100360009926000800BFFEE7014609B90948704711
:10037000012901D10020FAE7022901D10020F6E786
:10038000032901D10020F2E7042901D10020EEE782
:100390000020ECE76401002008B525208DF800005E
:1003A00001208DF8010000208DF8020001208DF859
:1003B0000300684600F0A4F908BD70472DE9F0413C
:1003C000024600250026002000230024002791F883
:1003D00003C00CF00F0591F803C00CF0100CBCF139
:1003E000000F03D091F802C04CEA050591F800C057
:1003F000BCF1000F31D0146800202BE04FF0010C4D
:100400000CFA00F3B1F800C00CEA03069E4220D1BA
:1004100083004FF00F0C0CFA03F7BC4305FA03FC02
:100420004CEA040491F803C0BCF1280F06D14FF048
:10043000010C0CFA00FCC2F814C00AE091F803C0E9
:10044000BCF1480F05D14FF0010C0CFA00FCC2F8CA
:1004500010C0401C0828D1D31460B1F800C0BCF112
:10046000FF0F34DD546800202EE000F1080C4FF03F
:10047000010808FA0CF3B1F800C00CEA03069E422A
:1004800021D183004FF00F0C0CFA03F7BC4305FA9F
:1004900003FC4CEA040491F803C0BCF1280F05D119
:1004A00000F1080C08FA0CF8C2F8148091F803C0A7
:1004B000BCF1480F07D100F1080C4FF0010808FA11
:1004C0000CF8C2F81080401C0828CED35460BDE858
:1004D000F081000009A100200CE00A5C124B1A8098
:1004E00000BF114A121F128802F04002002AF8D001
:1004F000421CD0B22A28F0D300BFFEE70D0A456E99
:1005000074657220486172644661756C745F4861FD
:100510006E646C65722C2053797374656D2048612C
:100520006C742E0D0A000000043801404CF6CC40DB
:1005300001490860704700000030004010B500F02D
:1005400001F810BD4AF6AA20014908607047000072
:100550000030004001494860704700000030004012
:100560000149886070470000003000400149086080
:10057000704700000030004000B585B00121052023
:1005800000F010F90121880300F00CF94FF400701D
:10059000ADF8100018208DF8130003208DF812001C
:1005A00004A91848FFF70AFF4FF48060ADF8100067
:1005B00004208DF8130004A91248FFF7FFFE4FF442
:1005C000E13000900020ADF80400ADF80600ADF871
:1005D0000800ADF80C000C20ADF80A0069460A4886
:1005E00000F0E0FB012240F22551074800F0B5FB86
:1005F0000121054800F07BFB4021034800F06EFB21
:1006000005B000BD00080140003801400448006802
:1006100000F0200008B9012070470020FCE700002E
:100620000818014010B500F009F820B100F012F8E8
:1006300008B1012010BD0020FCE70000044800685C
:1006400000F0100008B9012070470020FCE700000E
:10065000081801400448006800F0080008B90120AB
:1006600070470020FCE7000008180140044880683B
:1006700000F4004008B9012070470020FCE70000AA
:10068000002001400448006800F0080008B901207B
:1006900070470020FCE7000008140140044880680F
:1006A00000F4804008B9012070470020FCE70000FA
:1006B000002001400448806800F4005008B901207F
:1006C00070470020FCE700000020014004488068DB
:1006D00000F0800008B9012070470020FCE700000E
:1006E0000020014010B5FFF791FF20B1FFF7A6FFF2
:1006F00008B1012010BD0020FCE700BFFEE77047F5
:1007000070B5002100230F22C47804B3154C24686F
:1007100004F4E064C4F5E064210AC1F10403CA40B2
:10072000447804FA03F184781440214309010E4C03
:100730000678A155047804F01F050124AC40057823
:100740006D11AD0005F1E025C5F8004109E0047820
:1007500004F01F050124AC40044D0678761145F8DD
:10076000264070BD0CED00E000E400E080E100E018
:1007700002490143024A1160704700000000FA0577
:100780000CED00E029B1064AD2690243044BDA615C
:1007900004E0034AD2698243014BDA6170470000EA
:1007A0000010024029B1064A92690243044B9A6143
:1007B00004E0034A92698243014B9A61704700004A
:1007C000001002400348406A40F0807001494862CE
:1007D000704700000010024030B5002100220024C4
:1007E00000232D4D6D6805F00C0121B1042905D0C1
:1007F000082923D105E0294D056022E0274D056039
:100800001FE0254D6D6805F47012234D6D6805F4E9
:100810008034022505EB92421CB9214D55430560F9
:100820000BE01D4D6D6805F400351DB11C4D5543A1
:10083000056002E0194D5543056002E0174D056063
:1008400000BF00BF144D6D6805F0F0010909154D9A
:100850006B5C0568DD4045600F4D6D6805F4E06137
:10086000090A104D6B5C4568DD4085600A4D6D6876
:1008700005F46051C90A0B4D6B5C4568DD40C560ED
:10088000054D6D6805F44041890B074D6B5CC568EB
:10089000B5FBF3F5056130BD0010024000127A008F
:1008A00000093D00240000203400002010B501465E
:1008B0000022002300204A11012A02D1094C23689A
:1008C00006E0022A02D1074C236A01E0054C636A64
:1008D00001F01F02012494401C400CB1012000E0F3
:1008E000002010BD00100240014908607047000060
:1008F0008004424208B501210820FFF753FF03207E
:100900008DF8020010208DF803000420ADF80000DF
:1009100069460248FFF752FD08BD0000000C014087
:1009200010B500F001F810BD0CB50020019000904A
:100930003348006840F480303149086000BF3048D7
:10094000006800F4003000900198401C019000986D
:1009500018B90198B0F5A06FF1D12948006800F4EA
:10096000003010B10120009001E0002000900098BC
:10097000012843D12348006840F010002149086055
:100980000846006820F0030008600846006840F050
:10099000020008601A4840681949486008464068E3
:1009A00048600846406840F48060486008464068F7
:1009B00020F47C1048600846406840F4E810486025
:1009C0000846006840F08070086000BF0C4800686E
:1009D00000F000700028F9D00948406820F00300BA
:1009E000074948600846406840F00200486000BF80
:1009F0000348406800F00C000828F9D10CBD000045
:100A0000001002400020024010B5ADF5A36D40F289
:100A100013540BE0214608A000F002FB552001A969
:100A20000855012001F0A2FC601E04B2002CF1DA8E
:100A30000DF5A36D10BD00007C25640010B5FFF717
:100A4000C5FB02F0ABF818B14FF0805002490860C6
:100A50000020FFF7C2FB10BD04ED00E010B5134805
:100A6000006840F0010011490860084640681049DC
:100A700008400E494860084600680E4908400B4986
:100A800008600846006820F4802008600846406836
:100A900020F4FE0048604FF41F008860FFF740FF1D
:100AA0004FF000600449086010BD000000100240D3
:100AB0000000FFF8FFFFF6FE08ED00E010B5022190
:100AC000480700F08DF858B10221480700F076F889
:100AD00000220221480700F094F81B480068804774
:100AE0000421080700F07CF858B10421080700F041
:100AF00065F800220421080700F083F81348006815
:100B000080470821C80600F06BF858B10821C806D4
:100B100000F054F800220821C80600F072F80C48D2
:100B2000006880471021880600F05AF858B110215B
:100B3000880600F043F800221021880600F061F8D2
:100B400004480068804710BD1400002018000020F1
:100B50001C0000202000002010B50121064800F0F4
:100B60003FF840B105480068401C04490860012175
:100B7000014800F023F810BD0010004010000020D4
:100B800021B1028842F08002028004E002884FF620
:100B90007F731A400280704710B50648006802F063
:100BA0000FF90446012C03D114B100070249086073
:100BB00010BD00000400002004ED00E0CA430282E2
:100BC000704721B1028842F00102028004E00288ED
:100BD0004FF6FE731A40028070470146888C7047BA
:100BE00030B50246002000230024158A05EA0103DF
:100BF000958905EA010413B10CB1012000E0002041
:100C000030BD1AB183890B43838102E083898B4312
:100C1000838170478186704701877047818770475D
:100C2000A0F8401070470000002202881D4B984237
:100C30000ED01D4B98420BD0B0F1804F08D01B4B0B
:100C4000984205D01A4B984202D01A4B984204D1D0
:100C50004FF68F731A404B881A43174B984207D0B0
:100C6000164B984204D04FF6FF431A40CB881A43E4
:100C700002808B8883850B8803850A4B98420BD0B2
:100C8000094B984208D00E4B984205D00D4B984224
:100C900002D00D4B984201D10B7A03860123838247
:100CA00070470000002C0140003401400004004067
:100CB00000080040000C00400010004000140040FC
:100CC00000400140004401400048014010B5024886
:100CD00000F0DDF810BD00006401002001F4007296
:100CE000B2F5007F00D100BFCA430280704721B136
:100CF000828942F40052828104E082894DF6FF73BA
:100D00001A408281704770B50246002400230025F6
:100D1000002040F66A16B14200D100BFC1F342156F
:100D200001F01F03012606FA03F3012D02D1968973
:100D3000334006E0022D02D1168A334001E0968A44
:100D400033400C12012606FA04F41688344013B11D
:100D50000CB1012000E0002070BDF0B50346002476
:100D600000260025002040F66A17B94200D100BFD6
:100D70001846C1F3421401F01F06012707FA06F5D1
:100D8000012C01D10C3004E0022C01D1103000E024
:100D900014301AB107682F43076002E00768AF43B9
:100DA0000760F0BD2DE9F04786B005460E460024E9
:100DB000A24600BFA1460027B08900B100BF2F4660
:100DC0002C8A4CF6FF700440F08804432C82AC89D6
:100DD0004EF6F3100440B088318908437189084306
:100DE0000443AC81AC8A4FF6FF400440B089044311
:100DF000AC8201A8FFF7F0FC1F48874202D1DDF862
:100E000010A001E0DDF80CA0A88900F4004040B17A
:100E10000AEBCA0000EB0A1031684900B0FBF1F898
:100E200007E00AEBCA0000EB0A1031688900B0FB4A
:100E3000F1F86420B8FBF0F004012009642101FB03
:100E40001089A88900F4004040B1322000EBC900AD
:100E5000B0FBF1F000F00700044308E0322000EBA3
:100E600009106421B0FBF1F000F00F0004432C8165
:100E700006B0BDE8F08700000038014001468888D0
:100E8000C0F308007047C1F308028280704770B554
:100E9000044640F225512068FFF735FFE0B1206895
:100EA000FFF7ECFFC5B2E18AA0684554E08A401C18
:100EB00080B2E082E189884201DB0020E082608B21
:100EC000E189884202DA608B401C6083606A10B15D
:100ED0002846616A884700BF40F227712068FFF703
:100EE00012FF08B3A08A60B9002240F2277120687F
:100EF000FFF733FF012240F226612068FFF72DFF44
:100F000037E0638A6268D15C2068FFF7BCFF608AC3
:100F1000401C80B26082A189884201DB002060828F
:100F2000A08A401EA08224E040F226612068FFF7DC
:100F3000EAFEF0B1A08A50B9002240F22661206892
:100F4000FFF70BFF206AA0B1206A804711E0638A97
:100F50006268D15C2068FFF796FF608A401C80B20F
:100F60006082A189884201DB00206082A08A401E45
:100F7000A08270BDF8B504460E461746002525E050
:100F80000CE001F02FF9A08A009001F04DF9A08942
:100F9000BDF80010884200DD01E000BFF1E700BFAE
:100FA000705D228A6168885401F01CF9208A401C17
:100FB00080B22082A189884201DB00202082A08AA1
:100FC000401CA08201F030F9681C85B2BD42D7DB1D
:100FD000012240F227712068FFF7BFFEF8BD000034
:100FE0000A480B4908600B4848600B4888604FF47A
:100FF00080608881C881002008824882C882088376
:1010000048838882C861086248627047003801409E
:10101000640100208C0100208C05002000BFFEE749
:101020000FB4054B10B503A9044A029800F02CF840
:1010300010BC5DF814FB0000B71A0008B0000020D7
:101040000FB4084B10B504A902AA039800F01CF8CD
:10105000044602A9002000F0F3F8204610BC5DF819
:1010600014FB00004112000802E008C8121F08C16A
:10107000002AFAD170477047002001E001C1121F19
:10108000002AFBD1704700002DE9FF4F8BB09A4634
:101090000F460546002606E025280BD052460D993E
:1010A00090476D1C761C28780028F5D10FB030468B
:1010B000BDE8F08F0024A0460122604900E004430F
:1010C00015F8013F203B02FA03F00842F7D12878D7
:1010D0002E2817D115F8010F44F004042A280ED049
:1010E0006FF02F022878A0F1300109290AD808EB07
:1010F000880102EB410100EB01086D1CF2E757F893
:10110000048B6D1C287869283ED006DC0028CDD0E1
:1011100063280BD0642804D136E0732810D07528DA
:101120004BD052460D999047761C85E017F8040B7A
:101130008DF8000000208DF80100E946012003E051
:1011400057F8049B4FF0FF3061074FF0000401D4C3
:101150000AE0641C44450DDA8442FADB19F80410F5
:101160000029F6D106E0641C8442FCDB19F8041067
:101170000029F8D1264404E019F8010B52460D99D4
:101180009047641EF8D257E001CF4FF00A0B0028B9
:1011900002DA40422D2102E0210504D52B218DF8F1
:1011A0002410012103E0E10705D02021F7E70DF12C
:1011B000200908910CE00021F9E701CF4FF00A0B5C
:1011C000F9E75946FFF744F801F1300209F8012D1B
:1011D0000028F6D1ADEB090000F1200B600701D427
:1011E0004FF00108D84502DDA8EB0B0000E000201D
:1011F0008046002406E009A85246005D0D999047FC
:10120000641C761C08988442F5DB04E030205246CA
:101210000D999047761CB8F10001A8F10108F5DCA2
:1012200005E019F8010B52460D999047761CBBF169
:101230000001ABF1010BF4DC6D1C34E7092801005F
:101240000A68531C0B6010707047000070B50546AB
:10125000304800EB05142068804700283ED02079F4
:10126000052802DA0520207152E020790A2803DAE5
:101270002079401C20714BE0A07A38B90120A0727F
:1012800005EB4501491CC8B200F07CFA2089002812
:101290003EDDE088218988420DDAE088401C80B27A
:1012A000E0802189884233D105EB4501C91CC8B2D1
:1012B00000F068FA2CE0E07A002829DD207B401C51
:1012C000C0B22073E17A884222DB0020207305EB54
:1012D0004501491CC8B200F055FA19E020790528EB
:1012E00002DD0520207110E0207918B12079401E20
:1012F00020710AE0A07A012807D10020A07205EB36
:101300004501891CC8B200F03DFA0020E08020733E
:1013100070BD0000B40000200B48807A0A4AD27ADF
:10132000904201D1002070470748807A064A115C3C
:101330001046807A401CC0B290720A2801DB00205F
:1013400090720846EFE7000054010020014600209B
:10135000244A914201D1C81442E0234A914201D16A
:1013600048143DE0214A914202D14FF4002037E079
:101370001F4A914202D14FF4801031E01D4A914240
:1013800002D14FF400102BE0B1F1804F01D10120C8
:1013900026E0194A914201D1022021E0174A9142E8
:1013A00001D104201CE0164A914201D1082017E027
:1013B000144A914201D1102012E0134A914201D106
:1013C00020200DE0114A914201D1402008E0104A4E
:1013D000914201D1802003E00E4A914200D188154C
:1013E00070470000002C014000340140004C0140D7
:1013F000005001400054014000040040000800403B
:10140000000C004000100040001400400018004094
:10141000001C00400020004010B54FF44070FFF762
:10142000A7F900F053F900F017F900F057F800F0B1
:1014300001F810BD7FB501210846FFF7A3F9154853
:10144000006846081448B6FBF0F085B24FF6FF740A
:10145000ADF80840ADF804500020ADF80A00ADF832
:10146000060001A94FF08040FFF7DEFB012188074D
:10147000FFF7A7FB1C208DF8000004208DF8010069
:1014800000208DF8020001208DF803006846FFF768
:1014900037F97FBD3800002040420F0010B50446E8
:1014A0007D20FFF703FA08B1FFF78CF90120FFF761
:1014B0001BFA00BF6120FFF7F9F90028FAD045F2C6
:1014C0005550FFF753F80520FFF744F8A0B2FFF797
:1014D00047F8FFF737F8FFF729F810BD10B500F00F
:1014E00051F800F001F810BD08B501214020FFF7C8
:1014F00059F903208DF8020004208DF80300202004
:10150000ADF8000069461C48FEF758FF1020ADF802
:10151000000069461848FEF751FF0820ADF80000AA
:1015200069461548FEF74AFF4FF40040ADF8000049
:1015300069461248FEF742FF0820ADF800006946F0
:101540000F48FEF73BFF4FF48040ADF800006946BE
:101550000A48FEF733FF4FF40050ADF8000069462B
:101560000648FEF72BFF8020ADF8000069460348CF
:10157000FEF724FF08BD00000018014000200140D4
:10158000001401400021284A9172D1721173002089
:1015900018E06421254A02EB001211810221234A3E
:1015A00002EB001211710021204A02EB001291722D
:1015B0001E4A02EB0012D1721C4A02EB0012117398
:1015C000411CC8B20A28E4DB642218490A870522B4
:1015D00081F83B206422A1F84820052281F84B20A5
:1015E0006422A1F85820052281F85B206422A1F82A
:1015F0006820052281F86B200D490C4A11600D49C5
:1016000011610D4911620D4911630D4911640D49B4
:1016100011650D4911660D4911670D49C2F8801019
:101620000C49C2F89010704754010020B40000200B
:101630000D0600083D060008550600086D06000866
:10164000850600089D060008B5060008CD060008BE
:10165000E50600082506000808B501213020FFF73F
:10166000A1F8012000F048F8022000F045F803201E
:1016700000F042F8042000F03FF803208DF802004B
:1016800010208DF803004020ADF8000069460D4899
:10169000FEF794FE8020ADF8000069460948FEF789
:1016A0008DFE4FF40050ADF8000069460648FEF785
:1016B00085FE4020ADF8000069460348FEF77EFE37
:1016C00008BD0000001001400014014010B5FFF7F4
:1016D00087FCFEF751FFFFF70DF9FEF75DFE10BD29
:1016E00010B5002404E02046FFF7B0FD601CC4B232
:1016F000032CF8DB10BD0000411EC8B218B9402110
:101700000A4A116110E0012803D18021074A1161C2
:101710000AE0022803D10103054A116004E003280E
:1017200002D14021024A11607047000000100140C0
:1017300010140140012806D11049C96881F0400108
:101740000E4AD16019E0022806D10C49C96881F01F
:1017500080010A4AD16010E0032806D108490968CF
:1017600081F40051064A116007E0042805D10449BC
:10177000096881F04001024A116070470010014081
:101780000C1401400649C97A054A50541146C97AD9
:10179000491CC9B2D1720A2901DB0021D1727047FC
:1017A000540100202DE9FF5F04460D4691469A46FC
:1017B0007448844202D07448844207D12046FFF71F
:1017C000C5FD83460121FEF7EDFF06E02046FFF749
:1017D000BDFD83460121FEF7D5FF002D41D100213B
:1017E0002046FFF7EEF9AB466648844202D14FF03F
:1017F000190B28E0B4F1804F02D14FF01C0B22E00E
:101800006248844202D14FF01D0B1CE060488442C4
:1018100002D14FF01E0B16E05E48844202D14FF019
:10182000320B10E05C48844202D14FF0360B0AE0E4
:101830005A48844202D14FF0370B04E052488442A8
:1018400001D14FF02C0B8DF800B08DF801908DF880
:1018500002A000208DF803006846FEF751FFBDE8A6
:10186000FF9F484884420BD04748844208D04C48E8
:10187000844205D04B48844202D04B48844202D176
:101880004A48066801E049480668642D0AD242F2D7
:101890000F7842F21070B6FBF0F0B0FBF5F0401E8E
:1018A00087B213E040F6B830854209D24FF06308A2
:1018B0006420B6FBF0F0B0FBF5F0401E87B205E007
:1018C0004FF00008B6FBF5F0401E87B2ADF8087087
:1018D000ADF804800020ADF80A00ADF806008DF8E0
:1018E0000C0001A92046FFF79FF901212046FFF7D0
:1018F00047F9012211462046FFF783F901212046CE
:10190000FFF75FF94FF0000B1E48844202D14FF001
:10191000190B28E0B4F1804F02D14FF01C0B22E0EC
:101920001A48844202D14FF01D0B1CE01848844233
:1019300002D14FF01E0B16E01648844202D14FF040
:10194000320B10E01448844202D14FF0360B0AE00B
:101950001248844202D14FF0370B04E00A48844217
:1019600001D14FF02C0B8DF800B08DF801908DF85F
:1019700002A001208DF803006846FEF7C1FE00BFFB
:101980006DE70000002C01400034014000040040DD
:1019900000080040000C004000100040001400400F
:1019A000004C01400050014000540140380000202C
:1019B0002DE9F04104460F461546052F00D37F1F41
:1019C0004FF08040FFF709F9804608EB0706012C2D
:1019D0000FD125480560B1B2A007FFF71BF902211E
:1019E0004807FFF7EBF8012202214807FFF709F942
:1019F00038E0022C0FD11D480560B1B26007FFF737
:101A00000BF904210807FFF7D9F801220421080780
:101A1000FFF7F7F826E0032C10D115480560B1B2A6
:101A20004FF08040FFF7FAF80821C806FFF7C6F824
:101A300001220821C806FFF7E4F813E0042C0FD1B7
:101A40000C480560B1B22007FFF7EAF810218806BC
:101A5000FFF7B4F8012210218806FFF7D2F801E061
:101A6000BDE8F08100BFFBE7140000201800002053
:101A70001C000020200000202DE9F04105460E4604
:101A800017462846FEF770FC04460CB9BDE8F08105
:101A9000E06908B1E06980473A4631462046FFF7E1
:101AA00069FA00BFF2E713B50446012201A92046F6
:101AB000FFF7E2FF1CBD70B504460D46E1B2002001
:101AC000FFF7F1FF204670BD012080F3108800BFB2
:101AD000FFF7A2FC00F03EFCFEF7E2FB00F016FE72
:101AE00000BFFEE710B504460E48006844600E488B
:101AF0000068844207D20B480168091D0B48006842
:101B000000F04AFB0CE007480168091D084800681E
:101B100000F042FB07480068844201D20548046097
:101B200010BD00004C000020600000205400002088
:101B3000500000207C0000202DE9F04105460F46B2
:101B40001FB9A80000F004FA00E03846064656B176
:101B5000582000F0FDF904460CB1266304E030463D
:101B600000F078FB00E0002424B1A900A522206B3E
:101B7000FEF74CFB2046BDE8F081000070B523E085
:101B800000F0F8FD1348006808B9012000E00020CB
:101B9000054601F0A1F8BDB900F024FB0D48C0686E
:101BA000C468201D00F06EFA0B480068401E0A4908
:101BB00008600A480068401E0849086000F034FBCD
:101BC000204600F00DF800BF044800680028D7D177
:101BD00070BD00002C0A00205C000020580000208E
:101BE00010B50446206B00F035FB204600F032FBB8
:101BF00010BD000030B54FF48843174800F00704CB
:101C00002CB1C01D20F00700134C041B1B1B024607
:101C1000124C22600024114D6C60D018083820F05E
:101C200007000F4C206000240D4D2D686C600C4D9A
:101C30002D682C601146441A4C60094C24680C60D5
:101C4000084D4C682C60084D4C682C604FF00044E7
:101C5000064D2C6030BD0000540A00209800002082
:101C6000A0000020A8000020A4000020AC0000205C
:101C700000BFFFF783FF034800680128F9D900F08F
:101C80005DFBF6E78C0900202DE9F04704460F467E
:101C900016469946DDF82080002507E0795D04F1BD
:101CA00034004155785D00B902E06D1C102DF5D36C
:101CB00000BF002143200155052E00D30426E66213
:101CC000201D00F066FA04F1180000F062FA2461A9
:101CD000C6F10500A06164620020E064206584F81C
:101CE0005400BDE8F087000010B5002407E004EBC5
:101CF00084010F4A02EB810000F03EFA641C052CBF
:101D0000F5D30C4800F038FA0B4800F035FA0B48D0
:101D100000F032FA0A4800F02FFA0A4800F02CFAD4
:101D200004480949086004480849086010BD0000DB
:101D30008C090020F0090020040A0020180A002065
:101D40002C0A0020400A00205000002054000020EF
:101D500010B50146164800E0006803688B42FBD3CB
:101D60000246436813448B4204D143684C682344C1
:101D7000436001460A464B6813440468A34211D1EC
:101D80000C4C03682468A34208D04B68046864685C
:101D900023444B6003681B680B6005E0054B1B6820
:101DA0000B6001E003680B60884200D0016010BD49
:101DB00098000020A00000202DE9F04706460C46C0
:101DC00090460025206800284BD02046416849688D
:101DD000416000F1080142688A4202D141684968C5
:101DE00041604168D1F80C9000BF204641684968C5
:101DF000416000F1080142688A4202D141684968A5
:101E000041604168CF6806EB4510076007F1340078
:101E100006EB45114860786C06EB4511886006EBCF
:101E2000451080F80C80F86A06EB45110861B8F19E
:101E3000030F05D1B86A18B1022006EB45110873EB
:101E4000002006EB45114861F86C06EB45118861EE
:101E5000386B00F023F806EB451188836D1C4F4565
:101E6000C3D12846BDE8F0870A490968096809B95D
:101E7000012100E0002121B14FF0FF31064A11603D
:101E800006E004490968C968C868034A41681160E6
:101E900070470000500000207C0000200246002116
:101EA00001E0521C491C1078A528FAD0890888B294
:101EB0007047000007480068401C08B9012000E096
:101EC000002018B9FEF782F900BFFEE7FEF77EF9A1
:101ED00000BFFEE78C00002070B5054600262C46AA
:101EE0001DB9FEF773F900BFFEE70C49606988422F
:101EF00001D1012000E0002070B10949A06A8842A8
:101F000001D1012000E0002030B9A06A08B9012009
:101F100000E0002000B10126304670BD400A0020DC
:101F2000180A002070B505460E4631462846FEF7D1
:101F300086F92846FEF77CF9044602E02020285561
:101F4000641C0F2CFAD300202855281970BD0000FE
:101F50002DE9F04104464FF0000800F00BFC3C482E
:101F6000006808B9FFF746FE3A480068204000289C
:101F70005DD19CB1083404F0070078B104F007008B
:101F8000C0F10800044404F0070008B9012000E093
:101F9000002018B9FEF71AF900BFFEE7002C46D062
:101FA0002D480068844242D82C4E3046056801E036
:101FB0002E462D686868A04202D228680028F7D112
:101FC00023480068854232D0306800F1080828684C
:101FD00030606868001B102812D92F1907F007001D
:101FE00008B9012000E0002018B9FEF7EFF800BFA3
:101FF000FEE76868001B78606C603846FFF7A8FE53
:10200000154968680968081A134908600846006895
:1020100013490968884203D20F48006810490860D4
:102020000C4968680968084368600020286000F06F
:1020300053FE08F0070008B9012000E0002018B99D
:10204000FEF7C4F800BFFEE74046BDE8F08100009F
:10205000A0000020AC000020A40000209800002078
:10206000A8000020001F4FF080730360001F016074
:10207000001F034B036014380260203870470000D3
:10208000B51E000801460A69D1E901309860D1E91E
:10209000010358605068884201D188685060002070
:1020A00008611068401E1060106870472DE9F0410B
:1020B0000546884616460024052700F05BFB1D48B0
:1020C0000068804530D300BF7F1E07EB87021A4BA4
:1020D00003EB820105EB44100122FFF76DFE04447F
:1020E000002FF1D105EB4410022214490968FFF7D3
:1020F00063FE044405EB4410022211490968FFF70E
:102100005BFE044405EB441004220E49FFF754FE25
:10211000044405EB441003220B49FFF74DFE044431
:1021200016B10A480068306000F0D6FD2046BDE8D0
:10213000F08100005C0000208C090020500000208D
:10214000540000202C0A0020400A0020100000202B
:1021500070B505460C46214601A0FEF761FF70BD33
:10216000C8CECEF1A3BA257320B7A2CFD6D5BBD2A5
:10217000E7B3F60D0A00000000F1080141604FF0DE
:10218000FF31816000F10801C1600161002101603F
:10219000704700210161704710B502460B685C1C56
:1021A0000CB9106907E002F1080000E040684468DB
:1021B00024689C42FAD944684C604C68A1608860ED
:1021C00041600A611468641C146010BD42684A6072
:1021D00093688B60936859609160086103685B1C29
:1021E0000360704710B5FDF7F1FF0D480068401C13
:1021F0000B490860BFF34F8FBFF36F8F084600682D
:1022000001280BD107480068C0B208B9012000E0DE
:10221000002018B9FDF7DAFF00BFFEE710BD00008F
:102220008C00002004ED00E010B50948006818B9E2
:10223000FDF7CCFF00BFFEE705480068401E0449DB
:1022400008600846006810B90020FDF7C6FF10BD01
:102250008C00002070B506463546002E31D0083D72
:102260002C46184960680968084008B1012000E060
:10227000002018B9FDF7AAFF00BFFEE7206808B9E3
:10228000012000E0002018B9FDF7A0FF00BFFEE725
:102290000C4960680968084098B1206888B9094904
:1022A000606809688843606000F064FA0649606805
:1022B00009680844044908602046FFF749FD00F01A
:1022C0000BFD70BDAC000020A400002003484FF0BF
:1022D000E021486107200861704700003F190100B4
:1022E00070B5FDF77DFF0546102D0FD305F1E020F9
:1022F00090F8F0430E480078844201DB012000E0B2
:10230000002018B9FDF762FF00BFFEE7094800682A
:1023100000F4E06008490968884201D8012000E023
:10232000002018B9FDF752FF00BFFEE770BD0000A6
:10233000900000200CED00E0940000204FF0805051
:1023400003490860BFF34F8FBFF36F8F70470000E2
:1023500004ED00E010B50023012244F6206102489C
:10236000FFF720FA10BD00000010004070B50446D1
:10237000002634B31548006808B9012000E00020A9
:1023800018B9FDF723FF00BFFEE700F0F3F910488E
:10239000006805190F480068001DFFF773FE50B96B
:1023A0000C48006890F82C10012088400A49096800
:1023B0008143094801602846FFF794FB00F08CFC3C
:1023C00006460EB9FFF7BAFF70BD0000800000207E
:1023D000600000204C000020640000202DE9F04740
:1023E00004460E464FF000091CB9FDF7EFFE00BF92
:1023F000FEE70EB1012000E0002018B9FDF7E6FE6F
:1024000000BFFEE72148006808B9012000E0002075
:1024100018B9FDF7DBFE00BFFEE700F0ABF91C4882
:10242000D0F80080206885192068404507D92068C9
:10243000A8420BD9454509D94FF0010906E02068AB
:10244000A84201D8454501D94FF001092560B9F1ED
:10245000000F13D00F480068001DFFF713FE50B99E
:102460000C48006890F82C10012088400A4909683F
:102470008143094801602846FFF734FB00F02CFC3B
:1024800007460FB9FFF75AFFBDE8F087800000202C
:10249000600000204C00002064000020FEB50546CE
:1024A00000202870264800680290254909684801E4
:1024B000FFF74EFD0446002C40D06A4620460299A4
:1024C000FFF7F4FD029064210098B0FBF1F000905A
:1024D000009800282FD00020019028E0019804EBFC
:1024E000401080690099B0FBF1F6019804EB4010B0
:1024F00041682846FFF716FD05464EB1019804EBEA
:10250000401033460FA182692846FEF799FD07E087
:10251000019804EB40100EA182692846FEF790FD59
:102520002846FDF785FE05440198401C0190DDE931
:1025300001018842D2D32046FFF78CFEFEBD000089
:102540005C0000200925750909257525250D0A005F
:1025500009257509093C3125250D0A0008B500BF7C
:102560000024002500F014FB009015E00220FFF786
:10257000E1F8002407E0002501E0681C85B23C2D4D
:10258000FBDB601C84B241F270708442F3DB4FF4D9
:1025900096716846FFF722FFE8E700007FB5054621
:1025A000002028702A4800680390294909684801DA
:1025B000FFF7CEFC0446002C49D0002220460399A8
:1025C000FFF774FD03900020029039E0029804EBBD
:1025D0004010007B012806D0022806D0032806D030
:1025E000042808D105E0522607E0422605E05326DC
:1025F00003E0442601E0002600BF00BF029804EB80
:10260000401041682846FFF78DFC0546029804EB10
:1026100040108068029904EB4111898BCDE90010CC
:10262000029804EB401032460AA103692846FEF7DF
:1026300007FD2846FDF7FCFD05440298401C02906A
:10264000DDE902018842C1D32046FFF703FE7FBDCA
:102650005C00002009256309257509257509257584
:102660000D0A00000024002514E00320FFF762F8A3
:10267000002407E0002501E0681C85B23C2DFBDB4F
:10268000601C84B241F270708442F3DB4FF49670A8
:10269000FFF76CFEE9E700003520FEF7FFFE09A01A
:1026A000FEF7BEFC15A0FEF7BBFC06A0FEF7B8FCCB
:1026B00006E0FDF743FFFFF713F80A20FFF756FE89
:1026C000F7E700003D3D3D3D3D3D3D3D3D3D3D3D50
:1026D0003D3D3D3D3D3D3D3D3D3D3D3D3D3D3D3D2A
:1026E0003D3D3D3D3D3D3D3D3D3D3D3D3D3D3D3D1A
:1026F0003D3D3D3D3D3D3D3D3D0D0A003DCFB5CD10
:10270000B3BFAABBFAD6B4D0D00D0A001FB50020C3
:10271000009001900290034680220FA10390104880
:1027200000F09AF90446012C0FD1FDF74FFDA01ED1
:102730000C49086001200C49086000200B49086022
:102740000B49086000F038F904E01CB9FDF73EFDC4
:1027500000BFFEE71FBD000049444C4500000000DB
:10276000711C00087C000020680000206000002030
:102770001000002002480068401C014908607047B2
:102780008000002070B53448006818B1012033493A
:10279000086060E000203149086031480068314934
:1027A0000860084600683049096888420BD92F49FB
:1027B000096801F14C00C96C2A4A12682A4B1B684F
:1027C000D21A114401602748006827490860274849
:1027D0000068046B4FF0A5352068B0F1A53F0BD120
:1027E0006068B0F1A53F07D1A068B0F1A53F03D163
:1027F000E068B0F1A53F05D01C480168343100689D
:10280000FFF7A6FC1A480068B0FA80F0C0F11F0478
:1028100004EB8400174951F8200008B1012000E0C2
:10282000002018B9FDF7D2FC00BFFEE704EB8401DD
:10283000104A02EB810041684968416000F10801DB
:1028400042688A4202D14168496841604168C9686A
:10285000064A116000BF70BD80000020700000209B
:102860001000002088000020840000204C00002080
:10287000640000208C090020FEB03BE0FEF74CFD18
:102880000446002C33D0012C04D0042C1AD0072C81
:1028900028D11DE018A0FEF7C3FB24A0FEF7C0FB63
:1028A00001A8FFF77BFE01A92CA0FEF7B9FB2DA024
:1028B000FEF7B6FB01A8FFF7F1FD01A927A0FEF77F
:1028C000AFFB10E032A0FEF7ABFBFEF79DF80AE08D
:1028D0003748FEF7A5FB374A4CF250310120FFF78D
:1028E00067F800E000BF00BF0120FEF723FF1420BF
:1028F000FFF73CFDC2E700003D3D3D3D3D3D3D3D18
:102900003D3D3D3D3D3D3D3D3D3D3D3D3D3D3D3DF7
:102910003D3D3D3D3D3D3D3D3D3D3D3D3D3D3D3DE7
:102920003D3D3D3D3D3D3D3D3D0D0A00C8CECEF116
:10293000C3FB202020202020C8CECEF1D7B4CCACC1
:1029400020D3C5CFC8BCB6202020CAA3D3E0D5BBB6
:1029500020C8CECEF1D0F2BAC50D0A0025730D0AFB
:10296000000000000D0AC8CECEF1C3FB20202020BD
:10297000202020D4CBD0D0BCC6CAFD2020202020CF
:1029800020202020CAB9D3C3C2CA0D0A000000000B
:102990004B32BCFCB0B4CFC2A3ACC4A3C4E2C8CE1B
:1029A000CEF1D5BBD2E7B3F6BCECB2E20D0A000023
:1029B000542E0008990B00081CB5224801460978DE
:1029C0000191FF21024611700146097800919DF89E
:1029D000001001F010011C4A117007211B4A116000
:1029E00009E01A490968491E184A11609DF800104B
:1029F0004906090E00919DF8001001F08001802920
:102A0000EFD0124909680902104A1160114609887D
:102A100001F4E06111600B4A019911700C480068E3
:102A200040F470000A4908600846006840F07040B1
:102A30000860FFF74BFC002006490860FDF794FB97
:102A400000201CBD00E400E0900000209400002065
:102A500020ED00E08C0000202DE9FF4F81B0804682
:102A600016469A46DDE90E5BB8F1000F03D1FDF77B
:102A7000ADFB00BFFEE7052D01D2012000E00020E4
:102A800018B9FDF7A3FB00BFFEE730461099FFF72A
:102A900053F80446002C5DD0701E216B01EB8009B9
:102AA00029F0070909F0070008B9012000E000201B
:102AB00018B9FDF78BFB00BFFEE700962A462046BB
:102AC000119B0299FFF7E0F8524641464846FFF74E
:102AD000C9FA2060BBF1000F01D0CBF80040FFF72E
:102AE00081FB25480068401C234908602348006892
:102AF00040B9224804600846006801280CD1FFF75D
:102B0000F3F809E01E48006830B91C480068C06A44
:102B1000A84201D8194804601A480068401C1949A5
:102B2000086008460068606494F82C100120884012
:102B300015490968084314490860E16A01EB8101FD
:102B4000124A02EB8100211DFFF740FB0127FFF72E
:102B50006BFB01E04FF0FF37012F09D108480068F7
:102B600030B106480068C06AA84201D2FFF7E6FB10
:102B7000384605B0BDE8F08F5C0000204C00002016
:102B80006800002078000020640000208C090020EC
:102B90000149086870470000600000202DE9F041FD
:102BA0004FF0000841480068002872D14048006892
:102BB000401C3F49086008460668DEB93D48006889
:102BC000006808B9012000E0002018B9FDF7FEFAFE
:102BD00000BFFEE737480768374800683549086096
:102BE0003548076035480068401C34490860FFF7E5
:102BF0003BF900BF3248006886423CD300BF2D48F5
:102C00000068006808B9012000E0002020B14FF002
:102C1000FF302B4908602DE026480068C068C46872
:102C20006568AE4202D22648056023E0201DFFF70A
:102C300029FAA06A18B104F11800FFF723FA94F8F2
:102C40002C10012088401F49096808431D4908606D
:102C5000E16A01EB81011C4A02EB8100211DFFF7B3
:102C6000B5FA1A49E06A0968C96A8842C7D34FF0C1
:102C70000108C4E700BF15480068C06A00EB800087
:102C8000114951F82000012808D94FF0010805E04A
:102C9000FFE70F480068401C0D4908600D480068B8
:102CA00008B14FF001084046BDE8F08180000020E7
:102CB000600000205000002054000020740000201C
:102CC0007C000020640000208C0900204C000020C3
:102CD0006C0000207000002070B5002530480068AE
:102CE00018B9FDF773FA00BFFEE7FFF77BFA2C482F
:102CF0000068401E2A4908600846006800284BD139
:102D000028480068002847D024E02748C068C468E5
:102D100004F11800FFF7B6F9201DFFF7B3F994F896
:102D20002C10012088402149096808431F49086088
:102D3000E16A01EB81011E4A02EB8100211DFFF7D0
:102D400045FA1C49E06A0968C96A884202D3012031
:102D5000194908601448006808B9012000E0002003
:102D60000028D2D01548006878B10AE0FFF716FFB6
:102D700010B101201049086010480068401E0F493A
:102D800008600E4800680028F0D10B480068012850
:102D900002D10125FFF7D2FAFFF746FA284670BDA7
:102DA000800000205C000020180A00206400002041
:102DB0008C0900204C000020700000206C000020D6
:102DC0002DE9F041054600262C461DB9FDF7FEF918
:102DD00000BFFEE7FFF784FAFDF7F8F90746204643
:102DE000FFF77AF8012824D115480068E0B91549A1
:102DF000E06A0968C96A884200D30126201DFFF7EE
:102E000041F994F82C10012088400F4909680843C3
:102E10000D490860E16A01EB81010C4A02EB810077
:102E2000211DFFF7D3F904E004F118010848FFF76A
:102E3000CDF93846FDF7D1F93046BDE8F081000004
:102E4000800000204C000020640000208C0900203D
:102E5000180A00204B33BCFCB0B4CFC2A3ACC6F4FC
:102E6000B6AFB5A5B4CEB6A8CAB1C6F7D6D0B6CF60
:102E7000A3AC35306D73BAF3D4DAB6A8CAB1C6F7CD
:102E8000D6D0B6CFBDABC8CECEF1765461736B4C05
:102E90004544BBD6B8B40D0A00000000BC2E0008A3
:102EA00000000020B400000068100008702F000827
:102EB000B4000020A45500007810000800000000B5
:102EC0000000000000000000000000000000000002
:102ED00000000000000000000000000000000000F2
:102EE00000000000010203040102030406070809B0
:102EF0000204060800A24A040000000000000000CE
:102F00000102030406070809000000000000000099
:102F100000000000000000000000000000000000B1
:102F200000000000000000000000000000000000A1
:102F30000000000000000000000000000000000091
:102F40000000000000000000AAAAAAAA00000000D9
:102F50000000000000000000000000000000000071
:102F60000000000000000000000000000000000061
:0400000508000131BD
:00000001FF
