:020000040800F2
:1000000020560020E9010008A10600083504000878
:100010009D060008F5020008950C0008000000008D
:100020000000000000000000000000004501000882
:100030001B030008000000008901000831090008C6
:10004000030200080302000803020008030200087C
:10005000030200080302000803020008030200086C
:10006000030200080302000803020008030200085C
:10007000030200080302000803020008030200084C
:10008000030200080302000803020008030200083C
:10009000030200080302000803020008030200082C
:1000A000030200080302000803020008030200081C
:1000B000030200080302000803020008030200080C
:1000C00003020008030200080302000803020008FC
:1000D00003020008B1090008030200080302000837
:1000E00003020008030200080302000803020008DC
:1000F00003020008030200080302000803020008CC
:1001000003020008030200080302000803020008BB
:1001100003020008030200080302000803020008AB
:10012000030200080302000803020008030200089B
:10013000DFF80CD000F06AF800480047610F0008B3
:1001400020560020204B19680868B0E8F00F80F3B3
:100150000988BFF36F8F4FF0000080F311884EF0D5
:100160000D0E70470000000006480068006880F32C
:10017000088862B661B6BFF34F8FBFF36F8F00DFA1
:1001800000BF00BF08ED00E0EFF30980BFF36F8F01
:100190000D4B1A6820E9F00F106008B54FF0100001
:1001A00080F3118801F06EFA4FF0000080F311889F
:1001B000BDE8084019680868B0E8F00F80F30988C6
:1001C000BFF36F8F704700BF24000020EFF3118052
:1001D0004FF0100181F31188704780F31188704748
:1001E000EFF3058070470000064880470648004747
:1001F000FEE7FEE7FEE7FEE7FEE7FEE7FEE7FEE7D7
:10020000FEE7FEE75109000831010008064C074DE2
:1002100006E0E06840F0010394E8070098471034D6
:10022000AC42F6D3FFF788FF0C1B00082C1B00081C
:100230001FB500201B4A0123CDE901200093039044
:1002400003464FF4007218A11A4801F0B3FA0020D7
:10025000194A0223CDE901200093039003464FF48D
:10026000007216A1184801F0A5FA0020174A0323CE
:10027000CDE901200093039003464FF4007214A1CE
:10028000164801F097FA0020154A0423CDE9012011
:100290000093039003464FF4007212A1144801F03A
:1002A00089FA1FBD00000020765461736B55736599
:1002B0007249460005170008040000207654617357
:1002C0006B4C454400000000E115000808000020C8
:1002D000765461736B4D736750726F00F1150008AF
:1002E0000C000020765461736B53746172740000CB
:1002F0000316000800BFFEE708B525208DF80000B2
:1003000001208DF8010000208DF8020001208DF8F9
:100310000300684600F0C6F908BD70472DE9F041BA
:10032000024600250026002000230024002791F823
:1003300003C00CF00F0591F803C00CF0100CBCF1D9
:10034000000F03D091F802C04CEA050591F800C0F7
:10035000BCF1000F31D0146800202BE04FF0010CED
:100360000CFA00F3B1F800C00CEA03069E4220D15B
:1003700083004FF00F0C0CFA03F7BC4305FA03FCA3
:100380004CEA040491F803C0BCF1280F06D14FF0E9
:10039000010C0CFA00FCC2F814C00AE091F803C08A
:1003A000BCF1480F05D14FF0010C0CFA00FCC2F86B
:1003B00010C0401C0828D1D31460B1F800C0BCF1B3
:1003C000FF0F34DD546800202EE000F1080C4FF0E0
:1003D000010808FA0CF3B1F800C00CEA03069E42CB
:1003E00021D183004FF00F0C0CFA03F7BC4305FA40
:1003F00003FC4CEA040491F803C0BCF1280F05D1BA
:1004000000F1080C08FA0CF8C2F8148091F803C047
:10041000BCF1480F07D100F1080C4FF0010808FAB1
:100420000CF8C2F81080401C0828CED35460BDE8F8
:10043000F081000009A100200CE00A5C124B1A8038
:1004400000BF114A121F128802F04002002AF8D0A1
:10045000421CD0B22A28F0D300BFFEE70D0A456E39
:1004600074657220486172644661756C745F48619E
:100470006E646C65722C2053797374656D204861CD
:100480006C742E0D0A0000000438014000B585B0E0
:100490000121052000F048F90121880300F044F90A
:1004A0004FF40070ADF8100018208DF813000320F1
:1004B0008DF8120004A91848FFF730FF4FF4806050
:1004C000ADF8100004208DF8130004A91248FFF7BE
:1004D00025FF4FF4E13000900020ADF80400ADF8A6
:1004E0000600ADF80800ADF80C000C20ADF80A00CD
:1004F00069460A4800F0C8FA012240F2255107482F
:1005000000F09DFA0121054800F063FA40210348FC
:1005100000F056FA05B000BD000801400038014067
:100520000948806800F4005058B90848006800F095
:10053000010030B90648806800F4807008B10120DD
:1005400070470020FCE7000000100140080801404F
:10055000002001400948806800F4005058B1084864
:10056000006800F0010030B10648806800F4807037
:1005700008B9012070470020FCE70000001001408E
:1005800008080140002001400948806800F400503C
:1005900058B10848006800F0010030B10648806892
:1005A00000F4807008B1012070470020FCE70000D3
:1005B00000100140080801400020014009488068FF
:1005C00000F4005058B10848006800F0010030B94C
:1005D0000648806800F4807008B901207047002048
:1005E000FCE7000000100140080801400020014025
:1005F0000448806800F4004008B9012070470020DA
:10060000FCE70000002001400448006800F00800FA
:1006100008B9012070470020FCE7000008140140E1
:100620000448806800F4804008B901207047002029
:10063000FCE70000002001400448806800F40050FE
:1006400008B9012070470020FCE7000000200140AD
:100650000448806800F0800008B90120704700203D
:10066000FCE70000002001400948806800F40050C9
:1006700058B90848006800F0010030B106488068A9
:1006800000F4807008B1012070470020FCE70000F2
:1006900000100140080801400020014000BFFEE7B3
:1006A0007047000070B5002100230F22C47804B306
:1006B000154C246804F4E064C4F5E064210AC1F137
:1006C0000403CA40447804FA03F1847814402143B7
:1006D00009010E4C0678A155047804F01F05012489
:1006E000AC4005786D11AD0005F1E025C5F800417D
:1006F00009E0047804F01F050124AC40044D06789D
:10070000761145F8264070BD0CED00E000E400E0F5
:1007100080E100E002490143024A11607047000095
:100720000000FA050CED00E029B1064A9269024387
:10073000044B9A6104E0034A92698243014B9A6137
:10074000704700000010024030B500210022002454
:1007500000232D4D6D6805F00C0121B1042905D051
:10076000082923D105E0294D056022E0274D0560C9
:100770001FE0254D6D6805F47012234D6D6805F47A
:100780008034022505EB92421CB9214D554305608A
:100790000BE01D4D6D6805F400351DB11C4D554332
:1007A000056002E0194D5543056002E0174D0560F4
:1007B00000BF00BF144D6D6805F0F0010909154D2B
:1007C0006B5C0568DD4045600F4D6D6805F4E061C8
:1007D000090A104D6B5C4568DD4085600A4D6D6807
:1007E00005F46051C90A0B4D6B5C4568DD40C5607E
:1007F000054D6D6805F44041890B074D6B5CC5687C
:10080000B5FBF3F5056130BD0010024000127A001F
:1008100000093D00100000202000002008B5012143
:100820000820FFF781FF03208DF8020010208DF8CB
:1008300003000420ADF8000069460248FFF76EFD92
:1008400008BD0000000C014010B500F001F810BD1B
:100850000CB50020019000903348006840F48030CF
:100860003149086000BF3048006800F40030009053
:100870000198401C0190009818B90198B0F5A06F3C
:10088000F1D12948006800F4003010B10120009037
:1008900001E0002000900098012843D1234800681F
:1008A00040F01000214908600846006820F003006D
:1008B00008600846006840F0020008601A48406876
:1008C000194948600846406848600846406840F456
:1008D000806048600846406820F47C104860084604
:1008E000406840F4E81048600846006840F08070B6
:1008F000086000BF0C48006800F000700028F9D0C4
:100900000948406820F003000749486008464068ED
:1009100040F00200486000BF0348406800F00C004F
:100920000828F9D10CBD0000001002400020024050
:1009300010B5FFF74BFC00F0D7FF18B14FF0805017
:10094000024908600020FFF748FC10BD04ED00E0FC
:1009500010B51348006840F00100114908600846CE
:100960004068104908400E494860084600680E4932
:1009700008400B4908600846006820F480200860A1
:100980000846406820F4FE0048604FF41F0088606D
:10099000FFF75AFF4FF000600449086010BD0000E7
:1009A000001002400000FFF8FFFFF6FE08ED00E037
:1009B00010B5024800F0DDF810BD00003001002045
:1009C00001F40072B2F5007F00D100BFCA4302807B
:1009D000704721B1828942F40052828104E0828909
:1009E0004DF6FF731A408281704770B502460024AD
:1009F00000230025002040F66A16B14200D100BF56
:100A0000C1F3421501F01F03012606FA03F3012D7D
:100A100002D19689334006E0022D02D1168A334076
:100A200001E0968A33400C12012606FA04F4168877
:100A3000344013B10CB1012000E0002070BDF0B5CE
:100A40000346002400260025002040F66A17B9421C
:100A500000D100BF1846C1F3421401F01F06012760
:100A600007FA06F5012C01D10C3004E0022C01D16B
:100A7000103000E014301AB107682F43076002E01D
:100A80000768AF430760F0BD2DE9F04786B0054623
:100A90000E460024A24600BFA1460027B08900B13F
:100AA00000BF2F462C8A4CF6FF700440F0880443A8
:100AB0002C82AC894EF6F3100440B088318908438B
:100AC000718908430443AC81AC8A4FF6FF4004406F
:100AD000B0890443AC8201A8FFF736FE1F48874265
:100AE00002D1DDF810A001E0DDF80CA0A88900F427
:100AF000004040B10AEBCA0000EB0A10316849001F
:100B0000B0FBF1F807E00AEBCA0000EB0A1031680D
:100B10008900B0FBF1F86420B8FBF0F00401200973
:100B2000642101FB1089A88900F4004040B1322003
:100B300000EBC900B0FBF1F000F00700044308E04F
:100B4000322000EB09106421B0FBF1F000F00F003F
:100B500004432C8106B0BDE8F08700000038014056
:100B600001468888C0F308007047C1F308028280FC
:100B7000704770B5044640F225512068FFF735FFF5
:100B8000E0B12068FFF7ECFFC5B2E18AA0684554E8
:100B9000E08A401C80B2E082E189884201DB0020CB
:100BA000E082608BE189884202DA608B401C6083BE
:100BB000606A10B12846616A884700BF40F2277119
:100BC0002068FFF712FF08B3A08A60B9002240F244
:100BD00027712068FFF733FF012240F22661206869
:100BE000FFF72DFF37E0638A6268D15C2068FFF76A
:100BF000BCFF608A401C80B26082A189884201DB10
:100C000000206082A08A401EA08224E040F226617B
:100C10002068FFF7EAFEF0B1A08A50B9002240F246
:100C200026612068FFF70BFF206AA0B1206A804789
:100C300011E0638A6268D15C2068FFF796FF608AE2
:100C4000401C80B26082A189884201DB0020608262
:100C5000A08A401EA08270BD0A480B4908600B485C
:100C600048600B4888604FF480608881C88100200C
:100C700008824882C882088348838882C8610862E3
:100C800048627047003801403001002058010020C0
:100C90005805002000BFFEE702E008C8121F08C187
:100CA000002AFAD170477047002001E001C1121FED
:100CB000002AFBD1704710B54FF44070FFF72AFDB2
:100CC00000F000F900F0C6F800F001F810BD10B512
:100CD00000F056F800F002F810BD000008B5012140
:100CE0004FF49A70FFF720FD03208DF802000420D6
:100CF0008DF80300C002ADF8000069461C48FFF7FC
:100D00000DFB0120ADF8000069461A48FFF706FB0D
:100D10004FF48070ADF8000069461748FFF7FEFAFF
:100D20004FF40040ADF8000069461348FFF7F6FAAB
:100D30000820ADF8000069461048FFF7EFFA4FF4BD
:100D40008040ADF8000069460B48FFF7E7FA4FF422
:100D50000050ADF8000069460748FFF7DFFA802031
:100D6000ADF8000069460448FFF7D8FA08BD000056
:100D70000010014000080140002001400014014023
:100D80000021284A9172D1721173002018E0642169
:100D9000254A02EB001211810221234A02EB0012C4
:100DA00011710021204A02EB001291721E4A02EBDF
:100DB0000012D1721C4A02EB00121173411CC8B21E
:100DC0000A28E4DB642218490A87052281F83B20BF
:100DD0006422A1F84820052281F84B206422A1F862
:100DE0005820052281F85B206422A1F868200522A2
:100DF00081F86B200D490C4A11600D4911610D49B4
:100E000011620D4911630D4911640D4911650D49B8
:100E100011660D4911670D49C2F880100C49C2F8DE
:100E2000901070472001002080000020210500085C
:100E300089050008BD050008F1050008090600083D
:100E40002106000839060008510600086906000856
:100E50005505000808B501218020FFF765FC012039
:100E600000F03AF8022000F037F8032000F034F8E0
:100E7000042000F031F803208DF8020010208DF8D6
:100E80000300C001ADF8000069460D48FFF746FABF
:100E90008020ADF8000069460948FFF73FFA4FF49B
:100EA0008070ADF8000069460548FFF737FA4FF447
:100EB0000070ADF8000069460148FFF72FFA08BD41
:100EC000001C014010B5FFF7C7FEFFF7DFFAFFF780
:100ED000A5FCFFF711FA10BD411EC8B220B94FF4AE
:100EE00000610B4A116011E0012803D18021084AFA
:100EF00011600BE0022803D1C101054A116005E031
:100F0000032803D14FF40071014A116070470000BB
:100F1000101C0140012806D11049096881F40061C4
:100F20000E4A116019E0022806D10C49096881F0C7
:100F300080010A4A116010E0032806D107490968B8
:100F400081F48071054A116007E0042805D1034946
:100F5000096881F40071014A116070470C1C01405E
:100F6000012080F3108800BFFFF7A5FEFFF760F9AE
:100F700000F050FB00BFFEE710B504460E480068C5
:100F800044600E480068844207D20B480168091D7E
:100F90000B48006800F03CFA0CE007480168091DA6
:100FA0000848006800F034FA07480068844201D21B
:100FB0000548046010BD0000240000203800002017
:100FC0002C00002028000020540000202DE9F041D2
:100FD00006460F461FB9B00000F05CF900E0384645
:100FE000054655B14C2000F055F904460CB1256377
:100FF00004E0284600F06AFA00E000242046BDE83C
:10100000F081000070B523E000F034FB1348006865
:1010100008B9012000E00020054600F003FDBDB93D
:1010200000F01CFA0D48C068C468201D00F0CCF91F
:101030000B480068401E0A4908600A480068401EC4
:101040000849086000F02CFA204600F00DF800BFB7
:10105000044800680028D7D170BD0000F8090020BE
:10106000340000203000002010B50446206B00F052
:101070002DFA204600F02AFA10BD000030B54FF4DA
:101080008843174800F007042CB1C01D20F007006A
:10109000134C041B1B1B0246124C22600024114DF2
:1010A0006C60D018083820F007000F4C2060002436
:1010B0000D4D2D686C600C4D2D682C601146441A46
:1010C0004C60094C24680C60084D4C682C60084D3D
:1010D0004C682C604FF00044064D2C6030BD000081
:1010E000200A002068000020700000207800002006
:1010F000740000207C00002000BFFFF783FF03483E
:1011000000680128F9D900F027FAF6E7580900200D
:101110002DE9F04704460F4616469946DDF8208033
:10112000002507E0795D04F134004155785D00B990
:1011300002E06D1C102DF5D300BF002143200155A6
:10114000052E00D30426E662201D00F05EF904F1AE
:10115000180000F05AF92461C6F10500A06164622C
:101160000020606484F84800BDE8F08710B50024D2
:1011700007E004EB84010F4A02EB810000F038F92C
:10118000641C052CF5D30C4800F032F90B4800F034
:101190002FF90B4800F02CF90A4800F029F90A4809
:1011A00000F026F904480949086004480849086025
:1011B00010BD000058090020BC090020D009002003
:1011C000E4090020F80900200C0A00202800002073
:1011D0002C00002010B50146164800E000680368A6
:1011E0008B42FBD30246436813448B4204D14368CD
:1011F0004C682344436001460A464B681344046824
:10120000A34211D10C4C03682468A34208D04B6858
:101210000468646823444B6003681B680B6005E046
:10122000054B1B680B6001E003680B60884200D02F
:10123000016010BD68000020700000200A490968A4
:10124000096809B9012100E0002121B14FF0FF3107
:10125000064A116006E004490968C968C868034A7B
:1012600041681160704700002800002054000020F1
:1012700007480068401C08B9012000E0002018B9A8
:10128000FEF7A4FF00BFFEE7FEF7A0FF00BFFEE7EA
:101290005C0000202DE9F04104464FF0000800F00A
:1012A000E9F93C48006808B9FFF7E8FE3A480068E9
:1012B000204000285DD19CB1083404F0070078B1CB
:1012C00004F00700C0F10800044404F0070008B966
:1012D000012000E0002018B9FEF778FF00BFFEE70C
:1012E000002C46D02D480068844242D82C4E30460F
:1012F000056801E02E462D686868A04202D2286881
:101300000028F7D123480068854232D0306800F1C8
:101310000808286830606868001B102812D92F1947
:1013200007F0070008B9012000E0002018B9FEF717
:101330004DFF00BFFEE76868001B78606C603846B0
:10134000FFF748FF154968680968081A13490860DB
:101350000846006813490968884203D20F480068AC
:10136000104908600C4968680968084368600020F3
:10137000286000F057FB08F0070008B9012000E0E2
:10138000002018B9FEF722FF00BFFEE74046BDE887
:10139000F0810000700000207C000020740000201C
:1013A0006800002078000020001F4FF08073036069
:1013B000001F0160001F034B0360143802602038D7
:1013C000704700007112000801460A69D1E9013036
:1013D0009860D1E9010358605068884201D188685B
:1013E0005060002008611068401E1060106870474F
:1013F00000F1080141604FF0FF31816000F1080108
:10140000C1600161002101607047002101617047E6
:1014100010B502460B685C1C0CB9106907E002F1BC
:10142000080000E04068446824689C42FAD9446897
:101430004C604C68A160886041600A611468641C5B
:10144000146010BD42684A6093688B60936859606D
:101450009160086103685B1C0360704710B5FEF77C
:10146000B5FE0D480068401C0B490860BFF34F8F64
:10147000BFF36F8F0846006801280BD1074800684A
:10148000C0B208B9012000E0002018B9FEF79EFEA6
:1014900000BFFEE710BD00005C00002004ED00E08E
:1014A00010B50948006818B9FEF790FE00BFFEE7C6
:1014B00005480068401E044908600846006810B9E5
:1014C0000020FEF78AFE10BD5C00002070B50646C5
:1014D0003546002E31D0083D2C4618496068096811
:1014E000084008B1012000E0002018B9FEF76EFEA8
:1014F00000BFFEE7206808B9012000E0002018B90D
:10150000FEF764FE00BFFEE70C496068096808400A
:1015100098B1206888B909496068096888436060A3
:1015200000F0A8F8064960680968084404490860A2
:101530002046FFF74FFE00F075FA70BD7C000020DA
:101540007400002003484FF0E02148610720086143
:10155000704700003F1901004FF0805003490860B8
:10156000BFF34F8FBFF36F8F7047000004ED00E0B3
:1015700070B50446002634B31548006808B9012048
:1015800000E0002018B9FEF721FE00BFFEE700F0E2
:1015900071F81048006805190F480068001DFFF732
:1015A00013FF50B90C48006890F82C1001208840B7
:1015B0000A4909688143094801602846FFF7DCFCB5
:1015C00000F030FA06460EB9FFF7C6FF70BD000006
:1015D0005800002038000020240000203C0000209B
:1015E00005E00220FFF796FCC820FFF7C1FFF8E7EF
:1015F00006E00320FFF78EFC4FF49670FFF7B8FF6C
:10160000F7E706E00420FFF785FC4FF4C870FFF70A
:10161000AFFFF7E71FB5002000900190029003464E
:1016200080220EA103900F4800F0C4F80446012C5C
:101630000DD1FEF7CBFDA01E0B49086001200B4920
:10164000086000200A49086000F064F804E01CB952
:10165000FEF7BCFD00BFFEE71FBD000049444C453E
:1016600000000000F9100008540000204000002095
:101670003800002002480068401C0149086070479B
:101680005800002010B51A48006818B10120194907
:1016900008602BE000201749086017480068B0FA7E
:1016A00080F0C0F11F0404EB8400144951F82000BD
:1016B00008B1012000E0002018B9FEF787FD00BF47
:1016C000FEE704EB84010D4A02EB810041684968A2
:1016D000416000F1080142688A4202D141684968CC
:1016E00041604168C968064A116000BF10BD000032
:1016F00058000020480000203C000020580900202D
:101700002400002005E00120FFF704FC6420FFF71F
:101710002FFFF8E71CB52248014609780191FF2107
:10172000024611700146097800919DF8001001F001
:1017300010011C4A117007211B4A116009E01A4967
:101740000968491E184A11609DF800104906090EE3
:1017500000919DF8001001F080018029EFD012491E
:1017600009680902104A11601146098801F4E06114
:1017700011600B4A019911700C48006840F4700028
:101780000A4908600846006840F070400860FFF7AA
:10179000D9FE002006490860FEF7E6FC00201CBDCB
:1017A00000E400E0600000206400002020ED00E084
:1017B0005C0000202DE9FF4F81B0804616469A4616
:1017C000DDE90E5BB8F1000F03D1FEF7FFFC00BFAF
:1017D000FEE7052D01D2012000E0002018B9FEF738
:1017E000F5FC00BFFEE730461099FFF7EFFB04461B
:1017F000002C5AD0701E216B01EB800929F00709DB
:1018000009F0070008B9012000E0002018B9FEF730
:10181000DDFC00BFFEE700962A462046119B029998
:10182000FFF776FC524641464846FFF7BDFD206073
:10183000BBF1000F01D0CBF80040FFF70FFE2448AA
:101840000068401C224908602248006840B92148CD
:1018500004600846006801280CD1FFF787FC09E006
:101860001D48006830B91B480068C06AA84201D80A
:101870001848046019480068401C1849086094F82A
:101880002C10012088401649096808431449086053
:10189000E16A01EB8101134A02EB8100211DFFF790
:1018A000D1FD0127FFF7FCFD01E04FF0FF37012FCD
:1018B00009D10948006830B106480068C06AA842EA
:1018C00001D2FFF749FE384605B0BDE8F08F0000B1
:1018D00034000020240000204000002050000020A0
:1018E0003C000020580900202DE9F0414FF000088D
:1018F00041480068002872D140480068401C3F49B8
:10190000086008460668DEB93D480068006808B906
:10191000012000E0002018B9FEF758FC00BFFEE7E8
:101920003748076837480068354908603548076018
:1019300035480068401C34490860FFF77FFC00BF51
:101940003248006886423CD300BF2D4800680068DA
:1019500008B9012000E0002020B14FF0FF302B49F2
:1019600008602DE026480068C068C4686568AE421B
:1019700002D22648056023E0201DFFF725FDA06A5E
:1019800018B104F11800FFF71FFD94F82C10012086
:1019900088401F49096808431D490860E16A01EB56
:1019A00081011C4A02EB8100211DFFF74BFD1A4902
:1019B000E06A0968C96A8842C7D34FF00108C4E7E2
:1019C00000BF15480068C06A00EB8000114951F85B
:1019D0002000012808D94FF0010805E0FFE70F4873
:1019E0000068401C0D4908600D48006808B14FF0C0
:1019F00001084046BDE8F081580000203800002072
:101A0000280000202C0000204C0000205400002062
:101A10003C00002058090020240000204400002041
:101A20004800002070B500253048006818B9FEF75E
:101A3000CDFB00BFFEE7FFF711FD2C480068401EFC
:101A40002A4908600846006800284BD128480068E9
:101A5000002847D024E02748C068C46804F1180073
:101A6000FFF7B2FC201DFFF7AFFC94F82C1001200B
:101A700088402149096808431F490860E16A01EB71
:101A800081011E4A02EB8100211DFFF7DBFC1C498E
:101A9000E06A0968C96A884202D3012019490860CE
:101AA0001448006808B9012000E000200028D2D0C6
:101AB0001548006878B10AE0FFF716FF10B1012061
:101AC0001049086010480068401E0F4908600E4821
:101AD00000680028F0D10B480068012802D10125D8
:101AE000FFF73AFDFFF7DCFC284670BD58000020E8
:101AF00034000020E40900203C00002058090020A8
:101B00002400002048000020440000202C1B000876
:101B10000000002080000000980C0008AC1B0008AA
:101B200080000020A0550000A80C00080000000064
:101B300000000000000000000000000000000000A5
:101B4000010203040102030406070809020406084F
:101B50000000000000000000000000000000000085
:101B60000000000000000000000000000000000075
:101B70000000000000000000000000000000000065
:101B80000000000000000000AAAAAAAA00000000AD
:101B90000000000000000000000000000000000045
:0C1BA00000000000000000000000000039
:0400000508000131BD
:00000001FF
