:020000040800F2
:1000000058560020E9010008FF060008D504000842
:10001000FB06000865030008F10F0008000000005F
:100020000000000000000000000000004501000882
:10003000BB0300080000000089010008110A000845
:10004000030200080302000803020008030200087C
:10005000030200080302000803020008030200086C
:10006000030200080302000803020008030200085C
:10007000030200080302000803020008030200084C
:10008000030200080302000803020008030200083C
:10009000030200080302000803020008030200082C
:1000A000030200080302000803020008030200081C
:1000B000910A000803020008030200080302000876
:1000C00003020008030200080302000803020008FC
:1000D00003020008A10C0008030200080302000844
:1000E00003020008030200080302000803020008DC
:1000F00003020008030200080302000803020008CC
:1001000003020008030200080302000803020008BB
:1001100003020008030200082D0B00080302000878
:10012000030200080302000803020008030200089B
:10013000DFF80CD000F0A2F800480047A11A000830
:1001400058560020204B19680868B0E8F00F80F37B
:100150000988BFF36F8F4FF0000080F311884EF0D5
:100160000D0E70470000000006480068006880F32C
:10017000088862B661B6BFF34F8FBFF36F8F00DFA1
:1001800000BF00BF08ED00E0EFF30980BFF36F8F01
:100190000D4B1A6820E9F00F106008B54FF0100001
:1001A00080F3118802F066FA4FF0000080F31188A6
:1001B000BDE8084019680868B0E8F00F80F30988C6
:1001C000BFF36F8F704700BF50000020EFF3118026
:1001D0004FF0100181F31188704780F31188704748
:1001E000EFF3058070470000064880470648004747
:1001F000FEE7FEE7FEE7FEE7FEE7FEE7FEE7FEE7D7
:10020000FEE7FEE7310A000831010008D2B201E042
:1002100000F8012B491EFBD270470022F6E710B50B
:1002200013460A4604461946FFF7F0FF204610BD64
:10023000421C10F8011B0029FBD1801A70470346AD
:1002400011F8012B00F8012B002AF9D1184670474C
:1002500030B50B46014600202022012409E021FA96
:1002600002F59D4205D303FA02F5491B04FA02F593
:100270002844151EA2F10102F1DC30BD064C074DE9
:1002800006E0E06840F0010394E807009847103466
:10029000AC42F6D3FFF750FF642D0008842D000810
:1002A0001FB500201B4A0123CDE9012000930390D4
:1002B00003464FF4007218A11A4802F037FB0020E1
:1002C000194A0223CDE901200093039003464FF41D
:1002D000007216A1184802F029FB0020174A0323D8
:1002E000CDE901200093039003464FF4007214A15E
:1002F000164802F01BFB0020154A0423CDE901201B
:100300000093039003464FF4007212A1144802F0C8
:100310000DFB1FBD00000020765461736B557365A3
:10032000724946005127000804000020765461738A
:100330006B4C4544000000007524000808000020B4
:10034000765461736B4D736750726F0075250008AA
:100350000C000020765461736B537461727400005A
:100360008925000800BFFEE7014609B90948704722
:10037000012901D10020FAE7022901D10020F6E786
:10038000032901D10020F2E7042901D10020EEE782
:100390000020ECE76801002008B525208DF800005A
:1003A00001208DF8010000208DF8020001208DF859
:1003B0000300684600F0A4F908BD70472DE9F0413C
:1003C000024600250026002000230024002791F883
:1003D00003C00CF00F0591F803C00CF0100CBCF139
:1003E000000F03D091F802C04CEA050591F800C057
:1003F000BCF1000F31D0146800202BE04FF0010C4D
:100400000CFA00F3B1F800C00CEA03069E4220D1BA
:1004100083004FF00F0C0CFA03F7BC4305FA03FC02
:100420004CEA040491F803C0BCF1280F06D14FF048
:10043000010C0CFA00FCC2F814C00AE091F803C0E9
:10044000BCF1480F05D14FF0010C0CFA00FCC2F8CA
:1004500010C0401C0828D1D31460B1F800C0BCF112
:10046000FF0F34DD546800202EE000F1080C4FF03F
:10047000010808FA0CF3B1F800C00CEA03069E422A
:1004800021D183004FF00F0C0CFA03F7BC4305FA9F
:1004900003FC4CEA040491F803C0BCF1280F05D119
:1004A00000F1080C08FA0CF8C2F8148091F803C0A7
:1004B000BCF1480F07D100F1080C4FF0010808FA11
:1004C0000CF8C2F81080401C0828CED35460BDE858
:1004D000F081000009A100200CE00A5C124B1A8098
:1004E00000BF114A121F128802F04002002AF8D001
:1004F000421CD0B22A28F0D300BFFEE70D0A456E99
:1005000074657220486172644661756C745F4861FD
:100510006E646C65722C2053797374656D2048612C
:100520006C742E0D0A000000043801404CF6CC40DB
:1005300001490860704700000030004010B500F02D
:1005400001F810BD4AF6AA20014908607047000072
:100550000030004001494860704700000030004012
:100560000149886070470000003000400149086080
:10057000704700000030004000B585B00121052023
:1005800000F010F90121880300F00CF94FF400701D
:10059000ADF8100018208DF8130003208DF812001C
:1005A00004A91848FFF70AFF4FF48060ADF8100067
:1005B00004208DF8130004A91248FFF7FFFE4FF442
:1005C000E13000900020ADF80400ADF80600ADF871
:1005D0000800ADF80C000C20ADF80A0069460A4886
:1005E00000F0CAFB012240F22551074800F09FFBB2
:1005F0000121054800F065FB4021034800F058FB4D
:1006000005B000BD00080140003801400448006802
:1006100000F0200008B9012070470020FCE700002E
:100620000818014010B500F009F820B100F012F8E8
:1006300008B1012010BD0020FCE70000044800685C
:1006400000F0100008B9012070470020FCE700000E
:10065000081801400448006800F0080008B90120AB
:1006600070470020FCE7000008180140044880683B
:1006700000F4004008B9012070470020FCE70000AA
:10068000002001400448006800F0080008B901207B
:1006900070470020FCE7000008140140044880680F
:1006A00000F4804008B9012070470020FCE70000FA
:1006B000002001400448806800F4005008B901207F
:1006C00070470020FCE700000020014004488068DB
:1006D00000F0800008B9012070470020FCE700000E
:1006E0000020014010B5FFF791FF20B1FFF7A6FFF2
:1006F00008B1012010BD0020FCE700BFFEE77047F5
:1007000070B5002100230F22C47804B3154C24686F
:1007100004F4E064C4F5E064210AC1F10403CA40B2
:10072000447804FA03F184781440214309010E4C03
:100730000678A155047804F01F050124AC40057823
:100740006D11AD0005F1E025C5F8004109E0047820
:1007500004F01F050124AC40044D0678761145F8DD
:10076000264070BD0CED00E000E400E080E100E018
:1007700002490143024A1160704700000000FA0577
:100780000CED00E029B1064AD2690243044BDA615C
:1007900004E0034AD2698243014BDA6170470000EA
:1007A0000010024029B1064A92690243044B9A6143
:1007B00004E0034A92698243014B9A61704700004A
:1007C000001002400348406A40F0807001494862CE
:1007D000704700000010024030B5002100220024C4
:1007E00000232D4D6D6805F00C0121B1042905D0C1
:1007F000082923D105E0294D056022E0284D056038
:100800001FE0254D6D6805F47012234D6D6805F4E9
:100810008034022505EB92421CB9224D55430560F8
:100820000BE01D4D6D6805F400351DB11E4D55439F
:10083000056002E01A4D5543056002E0174D056062
:1008400000BF00BF144D6D6805F0F0010909174D98
:100850006B5C0568DD4045600F4D6D6805F4E06137
:10086000090A124D6B5C4568DD4085600A4D6D6874
:1008700005F46051C90A0D4D6B5C4568DD40C560EB
:10088000054D6D6805F44041890B094D6B5CC568E9
:10089000B5FBF3F5056130BD0010024000127A008F
:1008A000001BB70000093D00808D5B002800002080
:1008B0003800002010B501460022002300204A1114
:1008C000012A02D1094C236806E0022A02D1074C12
:1008D000236A01E0054C636A01F01F020124944081
:1008E0001C400CB1012000E0002010BD00100240AF
:1008F00001490860704700008004424208B50121A8
:100900000820FFF74FFF03208DF8020010208DF81C
:1009100003000420ADF8000069460248FFF74EFDD1
:1009200008BD0000000C014010B500F001F810BD3A
:100930000CB50020019000903348006840F48030EE
:100940003149086000BF3048006800F40030009072
:100950000198401C0190009818B90198B0F5A06F5B
:10096000F1D12948006800F4003010B10120009056
:1009700001E0002000900098012843D1234800683E
:1009800040F01000214908600846006820F003008C
:1009900008600846006840F0020008601A48406895
:1009A000194948600846406848600846406840F475
:1009B000806048600846406820F47C104860084623
:1009C000406840F4881048600846006840F0807035
:1009D000086000BF0C48006800F000700028F9D0E3
:1009E0000948406820F0030007494860084640680D
:1009F00040F00200486000BF0348406800F00C006F
:100A00000828F9D10CBD000000100240002002406F
:100A100010B5FFF7DBFB02F025F818B14FF080505E
:100A2000024908600020FFF7D8FB10BD04ED00E08C
:100A300010B51348006840F00100114908600846ED
:100A40004068104908400E494860084600680E4951
:100A500008400B4908600846006820F480200860C0
:100A60000846406820F4FE0048604FF41F0088608C
:100A7000FFF75AFF4FF000600449086010BD000006
:100A8000001002400000FFF8FFFFF6FE08ED00E056
:100A900010B50221480700F08DF858B1022148072F
:100AA00000F076F800220221480700F094F81B4875
:100AB000006880470421080700F07CF858B1042141
:100AC000080700F065F800220421080700F083F809
:100AD0001348006880470821C80600F06BF858B139
:100AE0000821C80600F054F800220821C80600F0CA
:100AF00072F80C48006880471021880600F05AF808
:100B000058B11021880600F043F800221021880611
:100B100000F061F804480068804710BD180000200C
:100B20001C000020200000202400002010B501211E
:100B3000064800F03FF840B105480068401C0449F1
:100B400008600121014800F023F810BD00100040AA
:100B50001400002021B1028842F08002028004E0EB
:100B600002884FF67F731A400280704710B506481E
:100B7000006802F089F80446012C03D114B1000783
:100B80000249086010BD00000400002004ED00E0F0
:100B9000CA430282704721B1028842F001020280FA
:100BA00004E002884FF6FE731A4002807047014647
:100BB000888C704730B50246002000230024158A37
:100BC00005EA0103958905EA010413B10CB101207E
:100BD00000E0002030BD1AB183890B43838102E01D
:100BE00083898B4383817047818670470187704773
:100BF00081877047A0F840107047000000220288EB
:100C00001D4B98420ED01D4B98420BD0B0F1804F37
:100C100008D01B4B984205D01A4B984202D01A4B71
:100C2000984204D14FF68F731A404B881A43174BE2
:100C3000984207D0164B984204D04FF6FF431A4013
:100C4000CB881A4302808B8883850B8803850A4BE7
:100C500098420BD0094B984208D00E4B984205D0D1
:100C60000D4B984202D00D4B984201D10B7A03866E
:100C70000123838270470000002C014000340140B2
:100C80000004004000080040000C0040001000403C
:100C90000014004000400140004401400048014071
:100CA00010B5024800F0DDF810BD0000680100201A
:100CB00001F40072B2F5007F00D100BFCA43028088
:100CC000704721B1828942F40052828104E0828916
:100CD0004DF6FF731A408281704770B502460024BA
:100CE00000230025002040F66A16B14200D100BF63
:100CF000C1F3421501F01F03012606FA03F3012D8B
:100D000002D19689334006E0022D02D1168A334083
:100D100001E0968A33400C12012606FA04F4168884
:100D2000344013B10CB1012000E0002070BDF0B5DB
:100D30000346002400260025002040F66A17B94229
:100D400000D100BF1846C1F3421401F01F0601276D
:100D500007FA06F5012C01D10C3004E0022C01D178
:100D6000103000E014301AB107682F43076002E02A
:100D70000768AF430760F0BD2DE9F04786B0054630
:100D80000E460024A24600BFA1460027B08900B14C
:100D900000BF2F462C8A4CF6FF700440F0880443B5
:100DA0002C82AC894EF6F3100440B0883189084398
:100DB000718908430443AC81AC8A4FF6FF4004407C
:100DC000B0890443AC8201A8FFF706FD1F488742A3
:100DD00002D1DDF810A001E0DDF80CA0A88900F434
:100DE000004040B10AEBCA0000EB0A10316849002C
:100DF000B0FBF1F807E00AEBCA0000EB0A1031681B
:100E00008900B0FBF1F86420B8FBF0F00401200980
:100E1000642101FB1089A88900F4004040B1322010
:100E200000EBC900B0FBF1F000F00700044308E05C
:100E3000322000EB09106421B0FBF1F000F00F004C
:100E400004432C8106B0BDE8F08700000038014063
:100E500001468888C0F308007047C1F30802828009
:100E6000704770B5044640F225512068FFF735FF02
:100E7000E0B12068FFF7ECFFC5B2E18AA0684554F5
:100E8000E08A401C80B2E082E189884201DB0020D8
:100E9000E082608BE189884202DA608B401C6083CB
:100EA000606A10B12846616A884700BF40F2277126
:100EB0002068FFF712FF08B3A08A60B9002240F251
:100EC00027712068FFF733FF012240F22661206876
:100ED000FFF72DFF37E0638A6268D15C2068FFF777
:100EE000BCFF608A401C80B26082A189884201DB1D
:100EF00000206082A08A401EA08224E040F2266189
:100F00002068FFF7EAFEF0B1A08A50B9002240F253
:100F100026612068FFF70BFF206AA0B1206A804796
:100F200011E0638A6268D15C2068FFF796FF608AEF
:100F3000401C80B26082A189884201DB002060826F
:100F4000A08A401EA08270BDF8B504460E46174622
:100F5000002525E00CE001F031F9A08A009001F0B5
:100F60004FF9A089BDF80010884200DD01E000BF04
:100F7000F1E700BF705D228A6168885401F01EF9B4
:100F8000208A401C80B22082A189884201DB002097
:100F90002082A08A401CA08201F032F9681C85B230
:100FA000BD42D7DB012240F227712068FFF7BFFE68
:100FB000F8BD00000A480B4908600B4848600B4820
:100FC00088604FF480608881C88100200882488250
:100FD000C882088348838882C86108624862704773
:100FE0000038014068010020900100209005002099
:100FF00000BFFEE70FB4054B10B503A9044A0298E1
:1010000000F02CF810BC5DF814FB00008F1A0008EB
:10101000B40000200FB4084B10B504A902AA03982D
:1010200000F01CF8044602A9002000F0F3F8204666
:1010300010BC5DF814FB00001512000802E008C89F
:10104000121F08C1002AFAD170477047002001E042
:1010500001C1121F002AFBD1704700002DE9FF4F8C
:101060008BB09A460F460546002606E025280BD091
:1010700052460D9990476D1C761C28780028F5D1B2
:101080000FB03046BDE8F08F0024A0460122604931
:1010900000E0044315F8013F203B02FA03F0084248
:1010A000F7D128782E2817D115F8010F44F0040441
:1010B0002A280ED06FF02F022878A0F130010929DC
:1010C0000AD808EB880102EB410100EB01086D1C16
:1010D000F2E757F8048B6D1C287869283ED006DCAF
:1010E0000028CDD063280BD0642804D136E07328C3
:1010F00010D075284BD052460D999047761C85E04C
:1011000017F8040B8DF8000000208DF80100E94667
:10111000012003E057F8049B4FF0FF3061074FF0C8
:10112000000401D40AE0641C44450DDA8442FADB71
:1011300019F804100029F6D106E0641C8442FCDB97
:1011400019F804100029F8D1264404E019F8010B1D
:1011500052460D999047641EF8D257E001CF4FF0E8
:101160000A0B002802DA40422D2102E0210504D5B5
:101170002B218DF82410012103E0E10705D0202167
:10118000F7E70DF1200908910CE00021F9E701CF04
:101190004FF00A0BF9E75946FFF75AF801F1300210
:1011A00009F8012D0028F6D1ADEB090000F1200B64
:1011B000600701D44FF00108D84502DDA8EB0B0011
:1011C00000E000208046002406E009A85246005DA9
:1011D0000D999047641C761C08988442F5DB04E066
:1011E000302052460D999047761CB8F10001A8F1C5
:1011F0000108F5DC05E019F8010B52460D999047FE
:10120000761CBBF10001ABF1010BF4DC6D1C34E783
:10121000092801000A68531C0B6010707047000019
:1012200070B50546304800EB05142068804700285B
:101230003ED02079052802DA0520207152E020797D
:101240000A2803DA2079401C20714BE0A07A38B9D3
:101250000120A07205EB4501491CC8B200F07EFADE
:10126000208900283EDDE088218988420DDAE08867
:10127000401C80B2E0802189884233D105EB4501D2
:10128000C91CC8B200F06AFA2CE0E07A002829DD17
:10129000207B401CC0B22073E17A884222DB002010
:1012A000207305EB4501491CC8B200F057FA19E05C
:1012B0002079052802DD0520207110E0207918B181
:1012C0002079401E20710AE0A07A012807D1002071
:1012D000A07205EB4501891CC8B200F03FFA00205E
:1012E000E080207370BD0000B80000200B48807AB9
:1012F0000A4AD27A904201D1002070470748807A8A
:10130000064A115C1046807A401CC0B290720A28CE
:1013100001DB002090720846EFE700005801002032
:1013200001460020244A914201D1C81442E0234AD8
:10133000914201D148143DE0214A914202D14FF43B
:10134000002037E01F4A914202D14FF4801031E073
:101350001D4A914202D14FF400102BE0B1F1804FB1
:1013600001D1012026E0194A914201D1022021E059
:10137000174A914201D104201CE0164A914201D142
:10138000082017E0144A914201D1102012E0134ABC
:10139000914201D120200DE0114A914201D140201B
:1013A00008E0104A914201D1802003E00E4A9142A8
:1013B00000D1881570470000002C01400034014026
:1013C000004C014000500140005401400004004026
:1013D00000080040000C00400010004000140040D5
:1013E00000180040001C00400020004010B54FF4E1
:1013F0004070FFF7BDF900F055F900F017F900F063
:1014000057F800F001F810BD7FB501210846FFF73D
:10141000B9F91548006846081448B6FBF0F085B2E3
:101420004FF6FF74ADF80840ADF804500020ADF859
:101430000A00ADF8060001A94FF08040FFF7DEFB7F
:1014400001218807FFF7A7FB1C208DF8000004206E
:101450008DF8010000208DF8020001208DF80300B6
:101460006846FFF74DF97FBD3C00002040420F0069
:1014700010B504467D20FFF71DFA08B1FFF7A2F969
:101480000120FFF735FA00BF6120FFF713FA0028AB
:10149000FAD045F25550FFF769F80520FFF75AF8E2
:1014A000A0B2FFF75DF8FFF74DF8FFF73FF810BD6A
:1014B00010B500F051F800F001F810BD08B5012199
:1014C0004020FFF76FF903208DF8020004208DF80B
:1014D00003002020ADF8000069461C48FEF76EFFAF
:1014E0001020ADF8000069461848FEF767FF082095
:1014F000ADF8000069461548FEF760FF4FF4004064
:10150000ADF8000069461248FEF758FF0820ADF814
:10151000000069460F48FEF751FF4FF48040ADF8D8
:10152000000069460A48FEF749FF4FF40050ADF845
:10153000000069460648FEF741FF8020ADF8000034
:1015400069460348FEF73AFF08BD00000018014055
:1015500000200140001401400021284A9172D172FC
:101560001173002018E06421254A02EB001211815A
:101570000221234A02EB001211710021204A02EBE2
:10158000001291721E4A02EB0012D1721C4A02EB49
:1015900000121173411CC8B20A28E4DB6422184906
:1015A0000A87052281F83B206422A1F84820052201
:1015B00081F84B206422A1F85820052281F85B2095
:1015C0006422A1F86820052281F86B200D490C4A9D
:1015D00011600D4911610D4911620D4911630D49E9
:1015E00011640D4911650D4911660D4911670D49C9
:1015F000C2F880100C49C2F89010704758010020C2
:10160000B80000200D0600083D0600085506000839
:101610006D060008850600089D060008B50600084E
:10162000CD060008E50600082506000808B50121DA
:101630001420FFF7B7F8012000F04AF8022000F06C
:1016400047F8032000F044F8042000F041F803209C
:101650008DF8020010208DF803008020ADF8000006
:1016600069460E48FEF7AAFE4FF48070ADF8000000
:1016700069460A48FEF7A2FE4FF48050ADF800001C
:1016800069460748FEF79AFE4FF48060ADF8000007
:1016900069460248FEF792FE08BD000000100140B6
:1016A0000008014010B5FFF785FCFEF765FFFFF766
:1016B00025F9FEF771FE10BD10B5002404E02046A8
:1016C000FFF7AEFD601CC4B2032CF8DB10BD0000B8
:1016D000411EC8B218B980210A4A116111E00128DF
:1016E00003D10102074A11610BE0022803D1C102B4
:1016F000054A116005E0032803D14FF48061014AD7
:10170000116170470010014010080140012806D106
:101710001049C96881F080010E4AD16019E00228A1
:1017200006D10C49C96881F480710A4AD16010E081
:10173000032806D10849096881F48051064A1160DE
:1017400007E0042805D10349C96881F48061014A92
:10175000D1607047001001400C0801400649C97A69
:10176000054A50541146C97A491CC9B2D1720A2996
:1017700001DB0021D1727047580100202DE9FF5F85
:1017800004460D4691469A467448844202D07448F5
:10179000844207D12046FFF7C3FD83460121FFF7AE
:1017A00001F806E02046FFF7BBFD83460121FEF766
:1017B000E9FF002D41D100212046FFF7ECF9AB46AF
:1017C0006648844202D14FF0190B28E0B4F1804FF3
:1017D00002D14FF01C0B22E06248844202D14FF04C
:1017E0001D0B1CE06048844202D14FF01E0B16E036
:1017F0005E48844202D14FF0320B10E05C488442D4
:1018000002D14FF0360B0AE05A48844202D14FF021
:10181000370B04E05248844201D14FF02C0B8DF875
:1018200000B08DF801908DF802A000208DF8030023
:101830006846FEF765FFBDE8FF9F484884420BD02D
:101840004748844208D04C48844205D04B488442E3
:1018500002D04B48844202D14A48066801E0494818
:101860000668642D0AD242F20F7842F21070B6FB7D
:10187000F0F0B0FBF5F0401E87B213E040F6B83050
:10188000854209D24FF063086420B6FBF0F0B0FB4C
:10189000F5F0401E87B205E04FF00008B6FBF5F00A
:1018A000401E87B2ADF80870ADF804800020ADF896
:1018B0000A00ADF806008DF80C0001A92046FFF7DC
:1018C0009DF901212046FFF745F9012211462046E6
:1018D000FFF781F901212046FFF75DF94FF0000B7A
:1018E0001E48844202D14FF0190B28E0B4F1804F1A
:1018F00002D14FF01C0B22E01A48844202D14FF073
:101900001D0B1CE01848844202D14FF01E0B16E05C
:101910001648844202D14FF0320B10E01448844242
:1019200002D14FF0360B0AE01248844202D14FF048
:10193000370B04E00A48844201D14FF02C0B8DF89C
:1019400000B08DF801908DF802A001208DF8030001
:101950006846FEF7D5FE00BF6DE70000002C014091
:10196000003401400004004000080040000C00402A
:101970000010004000140040004C014000500140A5
:10198000005401403C0000202DE9F04104460F4680
:101990001546052F00D37F1F4FF08040FFF707F952
:1019A000804608EB0706012C0FD125480560B1B22F
:1019B000A007FFF719F902214807FFF7E9F801220C
:1019C00002214807FFF707F938E0022C0FD11D4824
:1019D0000560B1B26007FFF709F904210807FFF7B6
:1019E000D7F8012204210807FFF7F5F826E0032CB9
:1019F00010D115480560B1B24FF08040FFF7F8F8FC
:101A00000821C806FFF7C4F801220821C806FFF71D
:101A1000E2F813E0042C0FD10C480560B1B22007A6
:101A2000FFF7E8F810218806FFF7B2F8012210212D
:101A30008806FFF7D0F801E0BDE8F08100BFFBE7C2
:101A4000180000201C00002020000020240000209E
:101A50002DE9F04105460E4617462846FEF784FC60
:101A600004460CB9BDE8F081E06908B1E06980473F
:101A70003A4631462046FFF767FA00BFF2E713B552
:101A80000446012201A92046FFF7E2FF1CBD70B504
:101A900004460D46E1B20020FFF7F1FF204670BD7D
:101AA000012080F3108800BFFFF7A0FC00F03EFC8F
:101AB000FEF7F6FB00F0A2FD00BFFEE710B50446FE
:101AC0000E48006844600E480068844207D20B4804
:101AD0000168091D0B48006800F04AFB0CE007484C
:101AE0000168091D0848006800F042FB07480068CB
:101AF000844201D20548046010BD0000500000205F
:101B000064000020580000205400002080000020C5
:101B10002DE9F04105460F461FB9A80000F004FA70
:101B200000E03846064656B1582000F0FDF904465C
:101B30000CB1266304E0304600F078FB00E000249E
:101B400024B1A900A522206BFEF760FB2046BDE86A
:101B5000F081000070B523E000F084FD13480068B8
:101B600008B9012000E00020054601F019F8BDB9D0
:101B700000F024FB0D48C068C468201D00F06EFA18
:101B80000B480068401E0A4908600A480068401E69
:101B90000849086000F034FB204600F00DF800BF53
:101BA000044800680028D7D170BD0000300A00202A
:101BB000600000205C00002010B50446206B00F09F
:101BC00035FB204600F032FB10BD000030B54FF46D
:101BD0008843174800F007042CB1C01D20F007000F
:101BE000134C041B1B1B0246124C22600024114D97
:101BF0006C60D018083820F007000F4C20600024DB
:101C00000D4D2D686C600C4D2D682C601146441AEA
:101C10004C60094C24680C60084D4C682C60084DE1
:101C20004C682C604FF00044064D2C6030BD000025
:101C3000580A00209C000020A4000020AC000020D6
:101C4000A8000020B000002000BFFFF783FF03487A
:101C500000680128F9D900F05DFBF6E79009002043
:101C60002DE9F04704460F4616469946DDF82080D8
:101C7000002507E0795D04F134004155785D00B935
:101C800002E06D1C102DF5D300BF0021432001554B
:101C9000052E00D30426E662201D00F066FA04F14A
:101CA000180000F062FA2461C6F10500A0616462C8
:101CB0000020E064206584F85400BDE8F08700004F
:101CC00010B5002407E004EB84010F4A02EB810009
:101CD00000F03EFA641C052CF5D30C4800F038FAED
:101CE0000B4800F035FA0B4800F032FA0A4800F0D1
:101CF0002FFA0A4800F02CFA044809490860044801
:101D00000849086010BD000090090020F409002077
:101D1000080A00201C0A0020300A0020440A002083
:101D2000540000205800002010B50146164800E07D
:101D3000006803688B42FBD30246436813448B421E
:101D400004D143684C682344436001460A464B680B
:101D500013440468A34211D10C4C03682468A342C5
:101D600008D04B680468646823444B6003681B68B0
:101D70000B6005E0054B1B680B6001E003680B601E
:101D8000884200D0016010BD9C000020A40000200B
:101D90002DE9F04706460C469046002520680028AD
:101DA0004BD0204641684968416000F10801426813
:101DB0008A4202D14168496841604168D1F80C907B
:101DC00000BF204641684968416000F1080142684F
:101DD0008A4202D14168496841604168CF6806EB98
:101DE0004510076007F1340006EB45114860786C38
:101DF00006EB4511886006EB451080F80C80F86A08
:101E000006EB45110861B8F1030F05D1B86A18B1A6
:101E1000022006EB45110873002006EB45114861CE
:101E2000F86C06EB45118861386B00F023F806EB7F
:101E3000451188836D1C4F45C3D12846BDE8F08706
:101E40000A490968096809B9012100E0002121B1A6
:101E50004FF0FF31064A116006E004490968C9687D
:101E6000C868034A416811607047000054000020B0
:101E7000800000200246002101E0521C491C10781D
:101E8000A528FAD0890888B2704700000748006882
:101E9000401C08B9012000E0002018B9FEF796F9AF
:101EA00000BFFEE7FEF792F900BFFEE790000020BA
:101EB00070B5054600262C461DB9FEF787F900BF10
:101EC000FEE70C496069884201D1012000E0002052
:101ED00070B10949A06A884201D1012000E00020C8
:101EE00030B9A06A08B9012000E0002000B1012645
:101EF000304670BD440A00201C0A002070B505461B
:101F00000E4631462846FEF79AF92846FEF790F924
:101F1000044602E020202855641C0F2CFAD3002030
:101F20002855281970BD00002DE9F04104464FF0F6
:101F3000000800F097FB3C48006808B9FFF746FE30
:101F40003A480068204000285DD19CB1083404F074
:101F5000070078B104F00700C0F10800044404F061
:101F6000070008B9012000E0002018B9FEF72EF99B
:101F700000BFFEE7002C46D02D480068844242D8BE
:101F80002C4E3046056801E02E462D686868A04258
:101F900002D228680028F7D123480068854232D051
:101FA000306800F10808286830606868001B102855
:101FB00012D92F1907F0070008B9012000E000200E
:101FC00018B9FEF703F900BFFEE76868001B7860E8
:101FD0006C603846FFF7A8FE154968680968081A5A
:101FE000134908600846006813490968884203D20B
:101FF0000F480068104908600C4968680968084380
:1020000068600020286000F0CBFD08F0070008B9E8
:10201000012000E0002018B9FEF7D8F800BFFEE765
:102020004046BDE8F0810000A4000020B000002080
:10203000A80000209C000020AC000020001F4FF0F2
:1020400080730360001F0160001F034B036014389E
:1020500002602038704700008D1E000801460A69A2
:10206000D1E901309860D1E9010358605068884295
:1020700001D188685060002008611068401E10601F
:10208000106870472DE9F041054688461646002441
:10209000052700F0E7FA1D480068804530D300BFEF
:1020A0007F1E07EB87021A4B03EB820105EB4410FE
:1020B0000122FFF76DFE0444002FF1D105EB44101F
:1020C000022214490968FFF763FE044405EB44103B
:1020D000022211490968FFF75BFE044405EB441036
:1020E00004220E49FFF754FE044405EB441003227A
:1020F0000B49FFF74DFE044416B10A4800683060F2
:1021000000F04EFD2046BDE8F08100006000002098
:10211000900900205400002058000020300A0020C0
:10212000440A00201400002070B505460C462146E4
:1021300001A0FEF75FFF70BDC8CECEF1A3BA257334
:1021400020B7A2CFD6D5BBD2E7B3F60D0A00000068
:1021500000F1080141604FF0FF31816000F108019A
:10216000C160016100210160704700210161704779
:1021700010B502460B685C1C0CB9106907E002F14F
:10218000080000E04068446824689C42FAD944682A
:102190004C604C68A160886041600A611468641CEE
:1021A000146010BD42684A6093688B609368596000
:1021B0009160086103685B1C0360704710B5FEF70F
:1021C00005F80D480068401C0B490860BFF34F8FAD
:1021D000BFF36F8F0846006801280BD107480068DD
:1021E000C0B208B9012000E0002018B9FDF7EEFFE9
:1021F00000BFFEE710BD00009000002004ED00E0ED
:1022000010B50948006818B9FDF7E0FF00BFFEE708
:1022100005480068401E044908600846006810B977
:102220000020FDF7DAFF10BD9000002070B50646D3
:102230003546002E31D0083D2C46184960680968A3
:10224000084008B1012000E0002018B9FDF7BEFFEA
:1022500000BFFEE7206808B9012000E0002018B99F
:10226000FDF7B4FF00BFFEE70C496068096808404D
:1022700098B1206888B90949606809688843606036
:1022800000F0F0F9064960680968084404490860EC
:102290002046FFF749FD00F083FC70BDB000002030
:1022A000A800002003484FF0E021486107200861A2
:1022B000704700003F19010070B5FDF791FF05461A
:1022C000102D0FD305F1E02090F8F0430E48007870
:1022D000844201DB012000E0002018B9FDF776FF01
:1022E00000BFFEE70948006800F4E060084909689B
:1022F000884201D8012000E0002018B9FDF766FFF0
:1023000000BFFEE770BD0000940000200CED00E06F
:10231000980000204FF0805003490860BFF34F8FB2
:10232000BFF36F8F7047000004ED00E010B500238D
:10233000012244F620610248FFF720FA10BD000098
:102340000010004070B50446002634B315480068FC
:1023500008B9012000E0002018B9FDF737FF00BFE1
:10236000FEE700F07FF91048006805190F48006883
:10237000001DFFF773FE50B90C48006890F82C1050
:10238000012088400A4909688143094801602846BC
:10239000FFF794FB00F004FC06460EB9FFF7BAFF06
:1023A00070BD000084000020640000205000002068
:1023B00068000020FEB50546002028702648006809
:1023C0000290254909684801FFF7AEFD0446002C3C
:1023D00040D06A4620460299FFF754FE02906421DD
:1023E0000098B0FBF1F00090009800282FD000205A
:1023F000019028E0019804EB401080690099B0FB3F
:10240000F1F6019804EB401041682846FFF776FD8D
:1024100005464EB1019804EB401033460FA1826986
:102420002846FEF7F7FD07E0019804EB40100EA1E7
:1024300082692846FEF7EEFD2846FDF7F9FE0544C1
:102440000198401C0190DDE901018842D2D3204669
:10245000FFF7ECFEFEBD00006000002009257509B5
:1024600009257525250D0A0009257509093C312521
:10247000250D0A000FE0084801880088401C064B23
:10248000188006A0FEF7B6FD0220FFF73FF94FF4D3
:102490007A70FFF757FFEEE710000020CAB1BCE4E6
:1024A000A3BA256420530D0A000000007FB505463D
:1024B000002028702A4800680390294909684801CB
:1024C000FFF732FD0446002C49D000222046039934
:1024D000FFF7D8FD03900020029039E0029804EB4A
:1024E0004010007B012806D0022806D0032806D021
:1024F000042808D105E0522607E0422605E05326CD
:1025000003E0442601E0002600BF00BF029804EB70
:10251000401041682846FFF7F1FC0546029804EB9D
:1025200040108068029904EB4111898BCDE90010BD
:10253000029804EB401032460AA103692846FEF7D0
:1025400069FD2846FDF774FE05440298401C029080
:10255000DDE902018842C1D32046FFF767FE7FBD57
:102560006000002009256309257509257509257571
:102570000D0A000006E00320FFF7C8F84FF4FA70D8
:10258000FFF7E0FEF7E700003520FEF771FF09A036
:10259000FEF730FD15A0FEF72DFD06A0FEF72AFD83
:1025A00006E0FDF7CBFFFFF787F80A20FFF7CAFE2A
:1025B000F7E700003D3D3D3D3D3D3D3D3D3D3D3D61
:1025C0003D3D3D3D3D3D3D3D3D3D3D3D3D3D3D3D3B
:1025D0003D3D3D3D3D3D3D3D3D3D3D3D3D3D3D3D2B
:1025E0003D3D3D3D3D3D3D3D3D0D0A003DCFB5CD21
:1025F000B3BFAABBFAD6B4D0D00D0A001FB50020D5
:10260000009001900290034680220FA10390104891
:1026100000F08CF90446012C0FD1FDF7D7FDA01E68
:102620000C49086001200C49086000200B49086033
:102630000B49086000F02AF904E01CB9FDF7C6FD5B
:1026400000BFFEE71FBD000049444C4500000000EC
:10265000491C0008800000206C000020640000205D
:102660001400002002480068401C014908607047BF
:102670008400002010B52E48006818B101202D49B3
:10268000086053E000202B4908602B4800682B4964
:102690000860084600682A49096888420BD9294918
:1026A000096801F14C00C96C244A1268244B1B686C
:1026B000D21A11440160214800682149086021486C
:1026C000006800681F490968096B884205D81D48E1
:1026D000016834310068FFF727FD1B480068B0FA35
:1026E00080F0C0F11F0404EB8400184951F8200069
:1026F00008B1012000E0002018B9FDF767FD00BF18
:10270000FEE704EB8401114A02EB8100416849684D
:10271000416000F1080142688A4202D1416849687B
:1027200041604168C968074A116000BF10BD0000E0
:102730008400002074000020140000208C00002081
:102740008800002050000020680000209009002030
:10275000FEB039E0FEF7CAFD0446002C31D0012C52
:1027600004D0042C1AD0072C26D11BE017A0FEF7AA
:1027700041FC23A0FEF73EFC01A8FFF797FE01A94C
:102780002BA0FEF737FC2CA0FEF734FC01A8FFF7C6
:1027900011FE01A926A0FEF72DFC0EE031A0FEF7E8
:1027A00029FC0AE03748FEF725FC374A4CF2503145
:1027B0000120FFF7E9F800E000BF00BF0120FEF7AD
:1027C000A5FF1420FFF7BEFDC4E700003D3D3D3DE1
:1027D0003D3D3D3D3D3D3D3D3D3D3D3D3D3D3D3D29
:1027E0003D3D3D3D3D3D3D3D3D3D3D3D3D3D3D3D19
:1027F0003D3D3D3D3D3D3D3D3D3D3D3D3D0D0A00A9
:10280000C8CECEF1C3FB202020202020C8CECEF1A0
:10281000D7B4CCAC20D3C5CFC8BCB6202020CAA327
:10282000D3E0D5BB20C8CECEF1D0F2BAC50D0A0098
:1028300025730D0A000000000D0AC8CECEF1C3FBBF
:1028400020202020202020D4CBD0D0BCC6CAFD2000
:102850002020202020202020CAB9D3C3C2CA0D0ABC
:10286000000000004B32BCFCB0B4CFC2A3ACC4A388
:10287000C4E2C8CECEF1D5BBD2E7B3F6BCECB2E22F
:102880000D0A00001C2D00086D0B00081CB5224825
:10289000014609780191FF2102461170014609782D
:1028A00000919DF8001001F010011C4A11700721E1
:1028B0001B4A116009E01A490968491E184A11604B
:1028C0009DF800104906090E00919DF8001001F0D6
:1028D00080018029EFD0124909680902104A11606D
:1028E0001146098801F4E06111600B4A01991170E9
:1028F0000C48006840F470000A4908600846006807
:1029000040F070400860FFF7CDFC002006490860E9
:10291000FDF72AFC00201CBD00E400E0940000202C
:102920009800002020ED00E0900000202DE9FF4FEE
:1029300081B0804616469A46DDE90E5BB8F1000F7D
:1029400003D1FDF743FC00BFFEE7052D01D20120B6
:1029500000E0002018B9FDF739FC00BFFEE7304663
:102960001099FFF7D5F80446002C5DD0701E216B3E
:1029700001EB800929F0070909F0070008B90120D7
:1029800000E0002018B9FDF721FC00BFFEE700962B
:102990002A462046119B0299FFF762F952464146AA
:1029A0004846FFF74BFB2060BBF1000F01D0CBF88E
:1029B0000040FFF703FC25480068401C23490860DD
:1029C0002348006840B9224804600846006801288E
:1029D0000CD1FFF775F909E01E48006830B91C48B2
:1029E0000068C06AA84201D8194804601A48006803
:1029F000401C1949086008460068606494F82C106F
:102A00000120884015490968084314490860E16AB3
:102A100001EB8101124A02EB8100211DFFF7C2FB8D
:102A20000127FFF7EDFB01E04FF0FF37012F09D140
:102A30000848006830B106480068C06AA84201D260
:102A4000FFF768FC384605B0BDE8F08F6000002055
:102A5000500000206C0000207C0000206800002056
:102A6000900900202DE9F0414FF00008414800682E
:102A7000002872D140480068401C3F490860084661
:102A80000668DEB93D480068006808B9012000E02A
:102A9000002018B9FDF79AFB00BFFEE7374807682A
:102AA0003748006835490860354807603548006890
:102AB000401C34490860FFF7C3F900BF3248006882
:102AC00086423CD300BF2D480068006808B9012049
:102AD00000E0002020B14FF0FF302B4908602DE0CE
:102AE00026480068C068C4686568AE4202D22648BD
:102AF000056023E0201DFFF7B1FAA06A18B104F1C8
:102B00001800FFF7ABFA94F82C10012088401F49F9
:102B1000096808431D490860E16A01EB81011C4A0C
:102B200002EB8100211DFFF73DFB1A49E06A0968AD
:102B3000C96A8842C7D34FF00108C4E700BF1548EF
:102B40000068C06A00EB8000114951F8200001289C
:102B500008D94FF0010805E0FFE70F480068401C66
:102B60000D4908600D48006808B14FF00108404663
:102B7000BDE8F081840000206400002054000020A3
:102B8000580000207800002080000020680000200D
:102B900090090020500000207000002074000020E8
:102BA00070B500253048006818B9FDF70FFB00BF6D
:102BB000FEE7FFF703FB2C480068401E2A49086027
:102BC0000846006800284BD128480068002847D0F4
:102BD00024E02748C068C46804F11800FFF73EFAF3
:102BE000201DFFF73BFA94F82C1001208840214962
:102BF000096808431F490860E16A01EB81011E4A28
:102C000002EB8100211DFFF7CDFA1C49E06A09683B
:102C1000C96A884202D30120194908601448006833
:102C200008B9012000E000200028D2D01548006833
:102C300078B10AE0FFF716FF10B1012010490860D3
:102C400010480068401E0F4908600E4800680028C0
:102C5000F0D10B480068012802D10125FFF75AFB8B
:102C6000FFF7CEFA284670BD8400002060000020E7
:102C70001C0A00206800002090090020500000205D
:102C800074000020700000202DE9F0410546002668
:102C90002C461DB9FDF79AFA00BFFEE7FFF70CFBC3
:102CA000FDF794FA07462046FFF702F9012824D1E0
:102CB00015480068E0B91549E06A0968C96A8842A0
:102CC00000D30126201DFFF7C9F994F82C1001202C
:102CD00088400F49096808430D490860E16A01EB23
:102CE00081010C4A02EB8100211DFFF75BFA04E031
:102CF00004F118010848FFF755FA3846FDF76DFA58
:102D00003046BDE8F0810000840000205000002023
:102D100068000020900900201C0A00204B33BCFCF6
:102D2000B0B4CFC2A3ACC6F4B6AFB5A5B4CEB6A806
:102D3000CAB1C6F7D6D0B6CFA3AC35306D73BAF3EF
:102D4000D4DAB6A8CAB1C6F7D6D0B6CFBDABC8CE16
:102D5000CEF1765461736B4C4544BBD6B8B40D0AC2
:102D600000000000842D000800000020B8000000D2
:102D70003C1000083C2E0008B8000020A0550000C0
:102D80004C100008000000000000000000000000DF
:102D90000000000000000000000000000000000033
:102DA0000000000000000000000000000000000023
:102DB00001020304010203040607080902040608CD
:102DC00000A24A0400000000000000000102030409
:102DD00006070809000000000000000000000000D5
:102DE00000000000000000000000000000000000E3
:102DF00000000000000000000000000000000000D3
:102E000000000000000000000000000000000000C2
:102E100000000000AAAAAAAA00000000000000000A
:102E200000000000000000000000000000000000A2
:0C2E300000000000000000000000000096
:0400000508000131BD
:00000001FF
