:020000040800F2
:1000000070560020E90100084B0700082105000890
:1000100047070008B10300080110000800000000B5
:100020000000000000000000000000004501000882
:100030000704000800000000890100085D0A0008AC
:10004000030200080302000803020008030200087C
:10005000030200080302000803020008030200086C
:10006000030200080302000803020008030200085C
:10007000030200080302000803020008030200084C
:10008000030200080302000803020008030200083C
:10009000030200080302000803020008030200082C
:1000A000030200080302000803020008030200081C
:1000B000DD0A00080302000803020008030200082A
:1000C00003020008030200080302000803020008FC
:1000D00003020008B10C0008030200080302000834
:1000E00003020008030200080302000803020008DC
:1000F00003020008030200080302000803020008CC
:1001000003020008030200080302000803020008BB
:100110000302000803020008790B0008030200082C
:10012000030200080302000803020008030200089B
:10013000DFF80CD000F0B4F800480047E9190008D7
:1001400070560020204B19680868B0E8F00F80F363
:100150000988BFF36F8F4FF0000080F311884EF0D5
:100160000D0E70470000000006480068006880F32C
:10017000088862B661B6BFF34F8FBFF36F8F00DFA1
:1001800000BF00BF08ED00E0EFF30980BFF36F8F01
:100190000D4B1A6820E9F00F106008B54FF0100001
:1001A00080F3118802F0FAFA4FF0000080F3118812
:1001B000BDE8084019680868B0E8F00F80F30988C6
:1001C000BFF36F8F704700BF54000020EFF3118022
:1001D0004FF0100181F31188704780F31188704748
:1001E000EFF3058070470000064880470648004747
:1001F000FEE7FEE7FEE7FEE7FEE7FEE7FEE7FEE7D7
:10020000FEE7FEE77D0A00083101000840EA01032D
:100210009B0703D009E008C9121F08C0042AFAD2BC
:1002200003E011F8013B00F8013B521EF9D2704780
:10023000D2B201E000F8012B491EFBD27047002228
:10024000F6E710B513460A4604461946FFF7F0FFD5
:10025000204610BD421C10F8011B0029FBD1801A5A
:100260007047034611F8012B00F8012B002AF9D141
:100270001846704730B50B46014600202022012465
:1002800009E021FA02F59D4205D303FA02F5491B64
:1002900004FA02F52844151EA2F10102F1DC30BD7A
:1002A000064C074D06E0E06840F0010394E80700C3
:1002B00098471034AC42F6D3FFF73EFFD83200081F
:1002C000F832000810B5002201210A2002F040FC9B
:1002D00004490860002204210A2002F039FC024986
:1002E000086010BD10000020140000201FB5002081
:1002F0001B4A0123CDE901200093039003464FF4EC
:10030000007218A11A4802F0F3FD0020194A0223D6
:10031000CDE901200093039003464FF4007216A12B
:10032000184802F0E5FD0020174A0323CDE901201B
:100330000093039003464FF4007214A1164802F094
:10034000D7FD0020154A0423CDE901200093039036
:1003500003464FF4007212A1144802F0C9FD1FBDFC
:1003600000000020765461736B5573657249460036
:100370007928000804000020765461736B4C4544D2
:100380000000000065240008080000207654617316
:100390006B4D736750726F00092600080C00002037
:1003A000765461736B53746172740000B126000857
:1003B00000BFFEE7014609B909487047012901D18C
:1003C0000020FAE7022901D10020F6E7032901D134
:1003D0000020F2E7042901D10020EEE70020ECE73D
:1003E0007C01002008B525208DF8000001208DF843
:1003F000010000208DF8020001208DF803006846FE
:1004000000F0A4F908BD70472DE9F041024600252F
:100410000026002000230024002791F803C00CF0E0
:100420000F0591F803C00CF0100CBCF1000F03D0C5
:1004300091F802C04CEA050591F800C0BCF1000F2C
:1004400031D0146800202BE04FF0010C0CFA00F3BF
:10045000B1F800C00CEA03069E4220D183004FF0A1
:100460000F0C0CFA03F7BC4305FA03FC4CEA040436
:1004700091F803C0BCF1280F06D14FF0010C0CFA23
:1004800000FCC2F814C00AE091F803C0BCF1480FA8
:1004900005D14FF0010C0CFA00FCC2F810C0401C52
:1004A0000828D1D31460B1F800C0BCF1FF0F34DDCF
:1004B000546800202EE000F1080C4FF0010808FA03
:1004C0000CF3B1F800C00CEA03069E4221D1830070
:1004D0004FF00F0C0CFA03F7BC4305FA03FC4CEA8F
:1004E000040491F803C0BCF1280F05D100F1080CF9
:1004F00008FA0CF8C2F8148091F803C0BCF1480F58
:1005000007D100F1080C4FF0010808FA0CF8C2F806
:100510001080401C0828CED35460BDE8F081000054
:1005200009A100200CE00A5C124B1A8000BF114A9E
:10053000121F128802F04002002AF8D0421CD0B2EA
:100540002A28F0D300BFFEE70D0A456E74657220BD
:10055000486172644661756C745F48616E646C6575
:10056000722C2053797374656D2048616C742E0D64
:100570000A000000043801404CF6CC4001490860F4
:10058000704700000030004010B500F001F810BDC9
:100590004AF6AA2001490860704700000030004078
:1005A0000149486070470000003000400149886000
:1005B00070470000003000400149086070470000AB
:1005C0000030004000B585B00121052000F010F991
:1005D0000121880300F00CF94FF40070ADF8100011
:1005E00018208DF8130003208DF8120004A9184874
:1005F000FFF70AFF4FF48060ADF8100004208DF87B
:10060000130004A91248FFF7FFFE4FF4E1300090F9
:100610000020ADF80400ADF80600ADF80800ADF814
:100620000C000C20ADF80A0069460A4800F0ACFB4B
:10063000012240F22551074800F081FB01210548C5
:1006400000F047FB4021034800F03AFB05B000BD35
:1006500000080140003801400448806800F4006050
:1006600008B9012070470020FCE70000001001409D
:1006700010B500F009F820B100F012F808B101201F
:1006800010BD0020FCE700000448806800F48050A2
:1006900008B9012070470020FCE70000001001406D
:1006A0000448006800F0040008B9012070470020E9
:1006B000FCE70000081401400448806800F4005082
:1006C00008B9012070470020FCE70000001001403D
:1006D0000448006800F0080008B9012070470020B5
:1006E000FCE70000081401400448806800F48040E2
:1006F00008B9012070470020FCE7000000200140FD
:100700000448806800F4005008B9012070470020B8
:10071000FCE70000002001400448806800F08000F1
:1007200008B9012070470020FCE7000000200140CC
:1007300010B5FFF791FF20B1FFF7A6FF08B1012028
:1007400010BD0020FCE700BFFEE7704770B5002138
:1007500000230F22C47804B3154C246804F4E06429
:10076000C4F5E064210AC1F10403CA40447804FAE4
:1007700003F184781440214309010E4C0678A155F9
:10078000047804F01F050124AC4005786D11AD001C
:1007900005F1E025C5F8004109E0047804F01F05E3
:1007A0000124AC40044D0678761145F8264070BD12
:1007B0000CED00E000E400E080E100E002490143CC
:1007C000024A1160704700000000FA050CED00E0DD
:1007D00029B1064AD2690243044BDA6104E0034AB4
:1007E000D2698243014BDA61704700000010024079
:1007F00029B1064A92690243044B9A6104E0034A14
:1008000092698243014B9A617047000000100240D8
:100810000348406A40F08070014948627047000018
:100820000010024030B500210022002400232D4D8D
:100830006D6805F00C0121B1042905D0082923D1E8
:1008400005E0294D056022E0284D05601FE0254D9B
:100850006D6805F47012234D6D6805F4803402252F
:1008600005EB92421CB9224D554305600BE01D4D2E
:100870006D6805F400351DB11E4D5543056002E05D
:100880001A4D5543056002E0174D056000BF00BFDB
:10089000144D6D6805F0F0010909174D6B5C056892
:1008A000DD4045600F4D6D6805F4E061090A124DA9
:1008B0006B5C4568DD4085600A4D6D6805F46051EC
:1008C000C90A0D4D6B5C4568DD40C560054D6D681E
:1008D00005F44041890B094D6B5CC568B5FBF3F528
:1008E000056130BD0010024000127A00001BB70005
:1008F00000093D00808D5B002C0000203C000020A2
:1009000010B501460022002300204A11012A02D11D
:10091000094C236806E0022A02D1074C236A01E051
:10092000054C636A01F01F02012494401C400CB185
:10093000012000E0002010BD0010024001490860C5
:10094000704700008004424208B501210820FFF7EB
:100950004FFF03208DF8020010208DF803000420C3
:10096000ADF8000069460248FFF74EFD08BD0000E3
:10097000000C014010B500F001F810BD0CB50020CE
:10098000019000903348006840F48030314908609D
:1009900000BF3048006800F4003000900198401C0F
:1009A0000190009818B90198B0F5A06FF1D12948CD
:1009B000006800F4003010B10120009001E0002038
:1009C00000900098012843D12348006840F01000AF
:1009D000214908600846006820F0030008600846C6
:1009E000006840F0020008601A48406819494860F1
:1009F0000846406848600846406840F480604860A7
:100A00000846406820F47C1048600846406840F47E
:100A1000881048600846006840F08070086000BF99
:100A20000C48006800F000700028F9D009484068C0
:100A300020F00300074948600846406840F0020083
:100A4000486000BF0348406800F00C000828F9D156
:100A50000CBD0000001002400020024010B5FFF75E
:100A6000B5FB02F0E1FA18B14FF08050024908607E
:100A70000020FFF7B2FB10BD04ED00E010B51348F5
:100A8000006840F0010011490860084640681049BC
:100A900008400E494860084600680E4908400B4966
:100AA00008600846006820F4802008600846406816
:100AB00020F4FE0048604FF41F008860FFF75AFFE3
:100AC0004FF000600449086010BD000000100240B3
:100AD0000000FFF8FFFFF6FE08ED00E010B5022170
:100AE000480700F078F858B10221480700F064F890
:100AF00000220221480700F07FF81B480068804769
:100B00000421080700F067F858B10421080700F035
:100B100053F800220421080700F06EF8134800681B
:100B200080470821C80600F056F858B10821C806C9
:100B300000F042F800220821C80600F05DF80C48D9
:100B4000006880471021880600F045F858B1102150
:100B5000880600F031F800221021880600F04CF8D9
:100B600004480068804710BD1C00002020000020C1
:100B7000240000202800002010B50121064800F0C4
:100B80002AF840B105480068401C0449086001216A
:100B9000014800F011F810BD0010004018000020BE
:100BA00021B1028842F08002028004E002884FF600
:100BB0007F731A4002807047CA430282704721B196
:100BC000028842F00102028004E002884FF6FE73C0
:100BD0001A400280704730B50246002000230024EE
:100BE000158A05EA0103958905EA010413B10CB1E0
:100BF000012000E0002030BD1AB183890B438381BE
:100C000002E083898B4383817047000000220288C1
:100C10001D4B98420ED01D4B98420BD0B0F1804F27
:100C200008D01B4B984205D01A4B984202D01A4B61
:100C3000984204D14FF68F731A404B881A43174BD2
:100C4000984207D0164B984204D04FF6FF431A4003
:100C5000CB881A4302808B8883850B8803850A4BD7
:100C600098420BD0094B984208D00E4B984205D0C1
:100C70000D4B984202D00D4B984201D10B7A03865E
:100C80000123838270470000002C014000340140A2
:100C90000004004000080040000C0040001000402C
:100CA0000014004000400140004401400048014061
:100CB00010B5024800F0DDF810BD00007C010020F6
:100CC00001F40072B2F5007F00D100BFCA43028078
:100CD000704721B1828942F40052828104E0828906
:100CE0004DF6FF731A408281704770B502460024AA
:100CF00000230025002040F66A16B14200D100BF53
:100D0000C1F3421501F01F03012606FA03F3012D7A
:100D100002D19689334006E0022D02D1168A334073
:100D200001E0968A33400C12012606FA04F4168874
:100D3000344013B10CB1012000E0002070BDF0B5CB
:100D40000346002400260025002040F66A17B94219
:100D500000D100BF1846C1F3421401F01F0601275D
:100D600007FA06F5012C01D10C3004E0022C01D168
:100D7000103000E014301AB107682F43076002E01A
:100D80000768AF430760F0BD2DE9F04786B0054620
:100D90000E460024A24600BFA1460027B08900B13C
:100DA00000BF2F462C8A4CF6FF700440F0880443A5
:100DB0002C82AC894EF6F3100440B0883189084388
:100DC000718908430443AC81AC8A4FF6FF4004406C
:100DD000B0890443AC8201A8FFF724FD1F48874275
:100DE00002D1DDF810A001E0DDF80CA0A88900F424
:100DF000004040B10AEBCA0000EB0A10316849001C
:100E0000B0FBF1F807E00AEBCA0000EB0A1031680A
:100E10008900B0FBF1F86420B8FBF0F00401200970
:100E2000642101FB1089A88900F4004040B1322000
:100E300000EBC900B0FBF1F000F00700044308E04C
:100E4000322000EB09106421B0FBF1F000F00F003C
:100E500004432C8106B0BDE8F08700000038014053
:100E600001468888C0F308007047C1F308028280F9
:100E7000704770B5044640F225512068FFF735FFF2
:100E8000E0B12068FFF7ECFFC5B2E18AA0684554E5
:100E9000E08A401C80B2E082E189884201DB0020C8
:100EA000E082608BE189884202DA608B401C6083BB
:100EB000606A10B12846616A884700BF40F2277116
:100EC0002068FFF712FF08B3A08A60B9002240F241
:100ED00027712068FFF733FF012240F22661206866
:100EE000FFF72DFF37E0638A6268D15C2068FFF767
:100EF000BCFF608A401C80B26082A189884201DB0D
:100F000000206082A08A401EA08224E040F2266178
:100F10002068FFF7EAFEF0B1A08A50B9002240F243
:100F200026612068FFF70BFF206AA0B1206A804786
:100F300011E0638A6268D15C2068FFF796FF608ADF
:100F4000401C80B26082A189884201DB002060825F
:100F5000A08A401EA08270BDF8B504460E46174612
:100F6000002525E00CE001F04FF9A08A009001F087
:100F70006DF9A089BDF80010884200DD01E000BFD6
:100F8000F1E700BF705D228A6168885401F03CF986
:100F9000208A401C80B22082A189884201DB002087
:100FA0002082A08A401CA08201F050F9681C85B202
:100FB000BD42D7DB012240F227712068FFF7BFFE58
:100FC000F8BD00000A480B4908600B4848600B4810
:100FD00088604FF480608881C88100200882488240
:100FE000C882088348838882C86108624862704763
:100FF000003801407C010020A4010020A40500204D
:1010000000BFFEE70FB4054B10B503A9044A0298D0
:1010100000F02CF810BC5DF814FB0000D719000894
:10102000B80000200FB4084B10B504A902AA039819
:1010300000F01CF8044602A9002000F0F3F8204656
:1010400010BC5DF814FB00002512000802E008C87F
:10105000121F08C1002AFAD170477047002001E032
:1010600001C1121F002AFBD1704700002DE9FF4F7C
:101070008BB09A460F460546002606E025280BD081
:1010800052460D9990476D1C761C28780028F5D1A2
:101090000FB03046BDE8F08F0024A0460122604921
:1010A00000E0044315F8013F203B02FA03F0084238
:1010B000F7D128782E2817D115F8010F44F0040431
:1010C0002A280ED06FF02F022878A0F130010929CC
:1010D0000AD808EB880102EB410100EB01086D1C06
:1010E000F2E757F8048B6D1C287869283ED006DC9F
:1010F0000028CDD063280BD0642804D136E07328B3
:1011000010D075284BD052460D999047761C85E03B
:1011100017F8040B8DF8000000208DF80100E94657
:10112000012003E057F8049B4FF0FF3061074FF0B8
:10113000000401D40AE0641C44450DDA8442FADB61
:1011400019F804100029F6D106E0641C8442FCDB87
:1011500019F804100029F8D1264404E019F8010B0D
:1011600052460D999047641EF8D257E001CF4FF0D8
:101170000A0B002802DA40422D2102E0210504D5A5
:101180002B218DF82410012103E0E10705D0202157
:10119000F7E70DF1200908910CE00021F9E701CFF4
:1011A0004FF00A0BF9E75946FFF764F801F13002F6
:1011B00009F8012D0028F6D1ADEB090000F1200B54
:1011C000600701D44FF00108D84502DDA8EB0B0001
:1011D00000E000208046002406E009A85246005D99
:1011E0000D999047641C761C08988442F5DB04E056
:1011F000302052460D999047761CB8F10001A8F1B5
:101200000108F5DC05E019F8010B52460D999047ED
:10121000761CBBF10001ABF1010BF4DC6D1C34E773
:10122000092801000A68531C0B6010707047000009
:1012300070B50546304800EB05142068804700284B
:101240003ED02079052802DA0520207152E020796D
:101250000A2803DA2079401C20714BE0A07A38B9C3
:101260000120A07205EB4501491CC8B200F07EFACE
:10127000208900283EDDE088218988420DDAE08857
:10128000401C80B2E0802189884233D105EB4501C2
:10129000C91CC8B200F06AFA2CE0E07A002829DD07
:1012A000207B401CC0B22073E17A884222DB002000
:1012B000207305EB4501491CC8B200F057FA19E04C
:1012C0002079052802DD0520207110E0207918B171
:1012D0002079401E20710AE0A07A012807D1002061
:1012E000A07205EB4501891CC8B200F03FFA00204E
:1012F000E080207370BD0000CC0000200B48807A95
:101300000A4AD27A904201D1002070470748807A79
:10131000064A115C1046807A401CC0B290720A28BE
:1013200001DB002090720846EFE700006C0100200E
:1013300001460020244A914201D1C81442E0234AC8
:10134000914201D148143DE0214A914202D14FF42B
:10135000002037E01F4A914202D14FF4801031E063
:101360001D4A914202D14FF400102BE0B1F1804FA1
:1013700001D1012026E0194A914201D1022021E049
:10138000174A914201D104201CE0164A914201D132
:10139000082017E0144A914201D1102012E0134AAC
:1013A000914201D120200DE0114A914201D140200B
:1013B00008E0104A914201D1802003E00E4A914298
:1013C00000D1881570470000002C01400034014016
:1013D000004C014000500140005401400004004016
:1013E00000080040000C00400010004000140040C5
:1013F00000180040001C00400020004010B54FF4D1
:101400004070FFF7DBF900F055F900F017F900F034
:1014100057F800F001F810BD7FB501210846FFF72D
:10142000D7F91548006846081448B6FBF0F085B2B5
:101430004FF6FF74ADF80840ADF804500020ADF849
:101440000A00ADF8060001A94FF08040FFF7DEFB6F
:1014500001218807FFF7B3FB1C208DF80000042052
:101460008DF8010000208DF8020001208DF80300A6
:101470006846FFF76BF97FBD4000002040420F0037
:1014800010B504467D20FFF73BFA08B1FFF7C0F91D
:101490000120FFF753FA00BF6120FFF731FA00285F
:1014A000FAD045F25550FFF787F80520FFF778F896
:1014B000A0B2FFF77BF8FFF76BF8FFF75DF810BD00
:1014C00010B500F051F800F001F810BD08B5012189
:1014D0003020FFF78DF903208DF8020004208DF8ED
:1014E00003004002ADF8000069461C48FEF78CFF7F
:1014F0004FF48050ADF8000069461848FEF784FFAD
:101500000420ADF8000069461548FEF77DFF4FF452
:101510000050ADF8000069461048FEF775FF08203E
:10152000ADF8000069460E48FEF76EFF4FF48040AC
:10153000ADF8000069460B48FEF766FF4FF4005017
:10154000ADF8000069460748FEF75EFF8020ADF861
:10155000000069460348FEF757FF08BD0010014030
:1015600000140140002001400021284A9172D172EC
:101570001173002018E06421254A02EB001211814A
:101580000221234A02EB001211710021204A02EBD2
:10159000001291721E4A02EB0012D1721C4A02EB39
:1015A00000121173411CC8B20A28E4DB64221849F6
:1015B0000A87052281F83B206422A1F848200522F1
:1015C00081F84B206422A1F85820052281F85B2085
:1015D0006422A1F86820052281F86B200D490C4A8D
:1015E00011600D4911610D4911620D4911630D49D9
:1015F00011640D4911650D4911660D4911670D49B9
:10160000C2F880100C49C2F8901070476C0100209D
:10161000CC0000205906000889060008A106000831
:10162000B9060008D1060008E9060008010700080D
:1016300019070008310700087106000808B50121E4
:101640001420FFF7D5F8012000F04AF8022000F03E
:1016500047F8032000F044F8042000F041F803208C
:101660008DF8020010208DF803008020ADF80000F6
:1016700069460E48FEF7C8FE4FF48070ADF80000D2
:1016800069460A48FEF7C0FE4FF48050ADF80000EE
:1016900069460748FEF7B8FE4FF48060ADF80000D9
:1016A00069460248FEF7B0FE08BD00000010014088
:1016B0000008014010B5FFF785FCFEF783FFFFF738
:1016C00043F9FEF78FFE10BD10B5002404E020465C
:1016D000FFF7AEFD601CC4B2032CF8DB10BD0000A8
:1016E000411EC8B218B980210A4A116111E00128CF
:1016F00003D10102074A11610BE0022803D1C102A4
:10170000054A116005E0032803D14FF48061014AC6
:10171000116170470010014010080140012806D1F6
:101720001049C96881F080010E4AD16019E0022891
:1017300006D10C49C96881F480710A4AD16010E071
:10174000032806D10849096881F48051064A1160CE
:1017500007E0042805D10349C96881F48061014A82
:10176000D1607047001001400C0801400649C97A59
:10177000054A50541146C97A491CC9B2D1720A2986
:1017800001DB0021D17270476C0100202DE9FF5F61
:1017900004460D4691469A467448844202D07448E5
:1017A000844207D12046FFF7C3FD83460121FFF79E
:1017B0001FF806E02046FFF7BBFD83460121FFF737
:1017C00007F8002D41D100212046FFF7F8F9AB467C
:1017D0006648844202D14FF0190B28E0B4F1804FE3
:1017E00002D14FF01C0B22E06248844202D14FF03C
:1017F0001D0B1CE06048844202D14FF01E0B16E026
:101800005E48844202D14FF0320B10E05C488442C3
:1018100002D14FF0360B0AE05A48844202D14FF011
:10182000370B04E05248844201D14FF02C0B8DF865
:1018300000B08DF801908DF802A000208DF8030013
:101840006846FEF783FFBDE8FF9F484884420BD0FF
:101850004748844208D04C48844205D04B488442D3
:1018600002D04B48844202D14A48066801E0494808
:101870000668642D0AD242F20F7842F21070B6FB6D
:10188000F0F0B0FBF5F0401E87B213E040F6B83040
:10189000854209D24FF063086420B6FBF0F0B0FB3C
:1018A000F5F0401E87B205E04FF00008B6FBF5F0FA
:1018B000401E87B2ADF80870ADF804800020ADF886
:1018C0000A00ADF806008DF80C0001A92046FFF7CC
:1018D0009DF901212046FFF763F9012211462046B8
:1018E000FFF78AF901212046FFF769F94FF0000B55
:1018F0001E48844202D14FF0190B28E0B4F1804F0A
:1019000002D14FF01C0B22E01A48844202D14FF062
:101910001D0B1CE01848844202D14FF01E0B16E04C
:101920001648844202D14FF0320B10E01448844232
:1019300002D14FF0360B0AE01248844202D14FF038
:10194000370B04E00A48844201D14FF02C0B8DF88C
:1019500000B08DF801908DF802A001208DF80300F1
:101960006846FEF7F3FE00BF6DE70000002C014063
:10197000003401400004004000080040000C00401A
:101980000010004000140040004C01400050014095
:1019900000540140400000202DE9F04105460E466C
:1019A00017462846FEF706FD04460CB9BDE8F0814F
:1019B000E06908B1E06980473A4631462046FFF7C2
:1019C000CBFA00BFF2E713B50446012201A9204675
:1019D000FFF7E2FF1CBD70B504460D46E1B20020E2
:1019E000FFF7F1FF204670BD012080F3108800BF93
:1019F000FFF704FD00F092FCFEF778FCFEF762FCB6
:101A000000F090FE00BFFEE710B504460E480068E7
:101A100044600E480068844207D20B480168091DE3
:101A20000B48006800F0CAFB0CE007480168091D7C
:101A30000848006800F0C2FB07480068844201D2F1
:101A40000548046010BD000054000020680000201C
:101A50005C00002058000020840000202DE9F041A7
:101A600005460F461FB9A80000F084FA00E038468A
:101A7000064656B1582000F07DFA04460CB12663A4
:101A800004E0304600F0F8FB00E0002424B1A90097
:101A9000A522206BFEF7CCFB2046BDE8F0810000BC
:101AA00070B523E000F072FE1348006808B9012009
:101AB00000E00020054601F09BFBBDB900F0A4FB4F
:101AC0000D48C068C468201D00F0EEFA0B4800689D
:101AD000401E0A4908600A480068401E084908601C
:101AE00000F0B4FB204600F059F800BF044800683D
:101AF0000028D7D170BD0000440A002064000020F7
:101B00006000002070B504460D46206C70B1216C59
:101B1000E0680844E0606168E068884201D32068BA
:101B2000E0602846226CE168FEF770FB70BD2DE98D
:101B3000F04104460E4615460027206C40B37DB99F
:101B40003146226CA068FEF761FB216CA068084456
:101B5000A060D4E9011088421AD32068A06017E081
:101B60003146226CE068FEF751FB216CE068401AB8
:101B7000E0602168E068884203D2216C6068401A06
:101B8000E060022D04D1A06B10B1A06B401EA063D9
:101B9000A06B401CA0633846BDE8F08110B5044638
:101BA000206B00F069FB204600F066FB10BD0000D2
:101BB00030B54FF48843174800F007042CB1C01D1E
:101BC00020F00700134C041B1B1B0246124C226022
:101BD0000024114D6C60D018083820F007000F4C1D
:101BE000206000240D4D2D686C600C4D2D682C601C
:101BF0001146441A4C60094C24680C60084D4C682E
:101C00002C60084D4C682C604FF00044064D2C6051
:101C100030BD00006C0A0020A0000020A8000020B9
:101C2000B0000020AC000020B400002000BFFFF78F
:101C300037FF034800680128F9D900F063FBF6E795
:101C4000A40900202DE9F04704460F4616469946A0
:101C5000DDF82080002507E0795D04F1340041556E
:101C6000785D00B902E06D1C102DF5D300BF002196
:101C700043200155052E00D30426E662201D00F006
:101C80009AFA04F1180000F096FA2461C6F10500F2
:101C9000A06164620020E064206584F85400BDE81F
:101CA000F087000010B5002407E004EB84010F4A20
:101CB00002EB810000F072FA641C052CF5D30C488D
:101CC00000F06CFA0B4800F069FA0B4800F066FA75
:101CD0000A4800F063FA0A4800F060FA044809492B
:101CE000086004480849086010BD0000A4090020ED
:101CF000080A00201C0A0020300A0020440A0020A4
:101D0000580A0020580000205C00002010B5014651
:101D1000164800E0006803688B42FBD30246436824
:101D200013448B4204D143684C682344436001460A
:101D30000A464B6813440468A34211D10C4C036853
:101D40002468A34208D04B680468646823444B604D
:101D500003681B680B6005E0054B1B680B6001E026
:101D600003680B60884200D0016010BDA000002015
:101D7000A800002070B5054600F046FAA86B08B927
:101D8000012400E0002400F061FA204670BD70B527
:101D9000054600F039FAA86BE96B884201D10124AD
:101DA00000E0002400F052FA204670BD2DE9F04713
:101DB00006460C4690460025206800284BD0204659
:101DC00041684968416000F1080142688A4202D1D5
:101DD0004168496841604168D1F80C9000BF2046D5
:101DE00041684968416000F1080142688A4202D1B5
:101DF0004168496841604168CF6806EB451007605B
:101E000007F1340006EB45114860786C06EB45118C
:101E1000886006EB451080F80C80F86A06EB4511E7
:101E20000861B8F1030F05D1B86A18B1022006EBBA
:101E300045110873002006EB45114861F86C06EB6C
:101E400045118861386B00F023F806EB4511888353
:101E50006D1C4F45C3D12846BDE8F0870A49096883
:101E6000096809B9012100E0002121B14FF0FF31DB
:101E7000064A116006E004490968C968C868034A4F
:101E80004168116070470000580000208400002065
:101E90000246002101E0521C491C1078A528FAD006
:101EA000890888B27047000007480068401C08B9DC
:101EB000012000E0002018B9FEF788F900BFFEE716
:101EC000FEF784F900BFFEE79400002010B5044639
:101ED00000F09AF911E0606A08B9012000E00020E2
:101EE00038B904F1240001F03DF918B100F086FB87
:101EF00000E005E0A06C401EA064A06C0028EADCB5
:101F000000BF4FF0FF30A06400F0A0F900F07CF9B2
:101F100011E0206908B9012000E0002050B904F167
:101F2000100001F01FF908B100F068FB606C401E62
:101F3000606400E002E0606C0028EADC00BF4FF063
:101F4000FF30606400F082F910BD70B505460E46A2
:101F500031462846FEF785F92846FEF77BF9044608
:101F600002E020202855641C0F2CFAD300202855AD
:101F7000281970BD2DE9F04104464FF0000800F02B
:101F800005FC3C48006808B9FFF712FE3A480068B3
:101F9000204000285DD19CB1083404F0070078B1DE
:101FA00004F00700C0F10800044404F0070008B979
:101FB000012000E0002018B9FEF708F900BFFEE795
:101FC000002C46D02D480068844242D82C4E304622
:101FD000056801E02E462D686868A04202D2286894
:101FE0000028F7D123480068854232D0306800F1DC
:101FF0000808286830606868001B102812D92F195B
:1020000007F0070008B9012000E0002018B9FEF72A
:10201000DDF800BFFEE76868001B78606C6038463A
:10202000FFF774FE154968680968081A13490860C3
:102030000846006813490968884203D20F480068BF
:10204000104908600C496868096808436860002006
:10205000286001F0CDF808F0070008B9012000E081
:10206000002018B9FEF7B2F800BFFEE74046BDE811
:10207000F0810000A8000020B4000020AC00002087
:10208000A0000020B0000020001F4FF0807303600C
:10209000001F0160001F034B0360143802602038EA
:1020A00070470000A91E000801460A69D1E9013005
:1020B0009860D1E9010358605068884201D188686E
:1020C0005060002008611068401E10601068704762
:1020D0002DE9F0410546884616460024052700F004
:1020E00055FB1D480068804530D300BF7F1E07EBBD
:1020F00087021A4B03EB820105EB44100122FFF724
:1021000055FE0444002FF1D105EB4410022214497E
:102110000968FFF74BFE044405EB44100222114905
:102120000968FFF743FE044405EB441004220E49FE
:10213000FFF73CFE044405EB441003220B49FFF774
:1021400035FE044416B10A480068306001F050F8CA
:102150002046BDE8F081000064000020A4090020B2
:10216000580000205C000020440A0020580A00208B
:102170001800002070B505460C46214601A0FEF768
:1021800041FF70BDC8CECEF1A3BA257320B7A2CF50
:10219000D6D5BBD2E7B3F60D0A00000000F1080166
:1021A00041604FF0FF31816000F10801C1600161C1
:1021B00000210160704700210161704710B502469F
:1021C0000B685C1C0CB9106907E002F1080000E024
:1021D0004068446824689C42FAD944684C604C6862
:1021E000A160886041600A611468641C146010BDBD
:1021F00042684A6093688B60936859609160086197
:1022000003685B1C0360704710B5FDF7DFFF0D48E6
:102210000068401C0B490860BFF34F8FBFF36F8FFE
:102220000846006801280BD107480068C0B208B909
:10223000012000E0002018B9FDF7C8FF00BFFEE74D
:1022400010BD00009400002004ED00E010B5094826
:10225000006818B9FDF7BAFF00BFFEE7054800683F
:10226000401E044908600846006810B90020FDF7C8
:10227000B4FF10BD9400002070B506463546002E10
:1022800031D0083D2C46184960680968084008B1FB
:10229000012000E0002018B9FDF798FF00BFFEE71D
:1022A000206808B9012000E0002018B9FDF78EFF72
:1022B00000BFFEE70C4960680968084098B12068D3
:1022C00088B90949606809688843606000F05EFA6F
:1022D0000649606809680844044908602046FFF719
:1022E00015FD00F085FF70BDB4000020AC0000209B
:1022F00003484FF0E0214861072008617047000063
:102300003F1901004FF0805003490860BFF34F8F21
:10231000BFF36F8F7047000004ED00E010B500239D
:10232000012244F620610248FFF730FA10BD000098
:102330000010004070B50446002634B3154800680C
:1023400008B9012000E0002018B9FDF73FFF00BFE9
:10235000FEE700F01BFA1048006805190F480068F6
:10236000001DFFF7A1FE50B90C48006890F82C1032
:10237000012088400A4909688143094801602846CC
:10238000FFF742FB00F034FF06460EB9FFF7BAFF35
:1023900070BD00008800002068000020540000206C
:1023A0006C000020FEB50546002028702648006815
:1023B0000290254909684801FFF7DCFD0446002C1E
:1023C00040D06A4620460299FFF782FE02906421BF
:1023D0000098B0FBF1F00090009800282FD000206A
:1023E000019028E0019804EB401080690099B0FB4F
:1023F000F1F6019804EB401041682846FFF7A5FD6F
:1024000005464EB1019804EB401033460FA1826996
:102410002846FEF707FE07E0019804EB40100EA1E6
:1024200082692846FEF7FEFD2846FDF713FF0544A6
:102430000198401C0190DDE901018842D2D3204679
:10244000FFF71AFFFEBD0000640000200925750992
:1024500009257525250D0A0009257509093C312531
:10246000250D0A0008B500BF1FE00023C8226946F9
:102470000E48006800F0A1FB0446012C0FD1009823
:1024800001780BA0FEF7BEFD0098816813A0FEF74F
:10249000B9FD009841881CA0FEF7B4FD05E00220BC
:1024A000FFF73CF90320FFF739F9DEE714000020BD
:1024B000BDD3CAD5B5BDCFFBCFA2B6D3C1D0CAFD5F
:1024C000BEDD70744D73672D3E75634D657373612A
:1024D00067654944203D2025640D0A00BDD3CAD557
:1024E000B5BDCFFBCFA2B6D3C1D0CAFDBEDD7074DF
:1024F0004D73672D3E756C446174615B305D203DAA
:102500002025640D0A000000BDD3CAD5B5BDCFFBA0
:10251000CFA2B6D3C1D0CAFDBEDD70744D73672D96
:102520003E7573446174615B305D203D2025640D10
:102530000A0000007FB50546002028702A48006880
:102540000390294909684801FFF714FD0446002C4F
:1025500049D0002220460399FFF7BAFD03900020DE
:10256000029039E0029804EB4010007B012806D06D
:10257000022806D0032806D0042808D105E05226F8
:1025800007E0422605E0532603E0442601E000264A
:1025900000BF00BF029804EB401041682846FFF7D7
:1025A000D4FC0546029804EB40108068029904EBC5
:1025B0004111898BCDE90010029804EB401032469E
:1025C0000AA103692846FEF72DFD2846FDF742FEC5
:1025D00005440298401C0290DDE902018842C1D303
:1025E0002046FFF749FE7FBD6400002009256309EE
:1025F00025750925750925750D0A00000120014979
:10260000086070477800002006E00320FFF786F896
:102610004FF4FA70FFF78EFEF7E7000070B505463D
:102620000C461DB9FDF7D2FD00BFFEE71348016857
:1026300018312846FFF7C2FD10480068001DFFF75B
:1026400033FD50B90D48006890F82C1001208840E7
:102650000B49096881430A480160601C30B907488A
:102660000168091D0748FFF7C3FD05E0064800683B
:1026700006193046FFF7C8F970BD0000540000206D
:102680006C000020580A00206800002010B50446A5
:102690001CB9FDF79BFD00BFFEE703480068206002
:1026A00002480068606010BD7C00002068000020C7
:1026B0003520FEF7E5FE09A0FEF7A4FC15A0FEF705
:1026C000A1FC06A0FEF79EFC06E0FDF75DFFFEF70D
:1026D000FBFF0A20FFF72EFEF7E700003D3D3D3DE2
:1026E0003D3D3D3D3D3D3D3D3D3D3D3D3D3D3D3D1A
:1026F0003D3D3D3D3D3D3D3D3D3D3D3D3D3D3D3D0A
:102700003D3D3D3D3D3D3D3D3D3D3D3D3D3D3D3DF9
:102710003D0D0A003DCFB5CDB3BFAABBFAD6B4D0AC
:10272000D00D0A001FB500200090019002900346D2
:1027300080220FA10390104800F0DAFB0446012C20
:102740000FD1FDF743FDA01E0C49086001200C4984
:10275000086000200B4908600B49086000F0A8F9E8
:1027600004E01CB9FDF732FD00BFFEE71FBD00000D
:1027700049444C45000000002D1C00088400002046
:102780007000002068000020180000200248006847
:10279000401C0149086070478800002010B52E4891
:1027A000006818B101202D49086053E000202B4932
:1027B00008602B4800682B490860084600682A49D1
:1027C000096888420BD92949096801F14C00C96C94
:1027D000244A1268244B1B68D21A11440160214814
:1027E0000068214908602148006800681F4909689D
:1027F000096B884205D81D48016834310068FFF72D
:10280000B9FC1B480068B0FA80F0C0F11F0404EB6B
:102810008400184951F8200008B1012000E0002090
:1028200018B9FDF7D3FC00BFFEE704EB8401114AA1
:1028300002EB810041684968416000F1080142688B
:102840008A4202D14168496841604168C968074AC3
:10285000116000BF10BD000088000020780000203B
:1028600018000020900000208C0000205400002060
:102870006C000020A4090020ADF5007D00207E90B2
:1028800032487F9061E0FEF739FD0446002C59D0B4
:10289000012C04D0042C1AD0072C4ED12DE02CA0F2
:1028A000FEF7B0FB37A0FEF7ADFB01A8FFF742FE35
:1028B00001A940A0FEF7A6FB40A0FEF7A3FB01A8DC
:1028C000FFF770FD01A93BA0FEF79CFB36E09DF8E9
:1028D000F801401CC0B27E9000230A227EA9424823
:1028E000006800F037FA012803D040A0FEF78AFB09
:1028F00002E04DA0FEF786FB20E07F980078401CA8
:102900007F9908707F988068401C7F9988607F98C5
:102910004088401C7F99488000230A227FA94B48A9
:10292000006800F017FA012803D049A0FEF76AFBFF
:1029300002E056A0FEF766FB00BF00BF00BF01200B
:10294000FEF7ECFE1420FFF7F5FC9CE7BC0000202E
:102950003D3D3D3D3D3D3D3D3D3D3D3D3D3D3D3DA7
:102960003D3D3D3D3D3D3D3D3D3D3D3D3D3D3D3D97
:102970003D3D3D3D3D3D3D3D3D3D3D3D3D3D3D3D87
:102980003D0D0A00C8CECEF1C3FB20202020202020
:10299000C8CECEF1D7B4CCAC20D3C5CFC8BCB620FE
:1029A0002020CAA3D3E0D5BB20C8CECEF1D0F2BA46
:1029B000C50D0A0025730D0A000000000D0AC8CEDF
:1029C000CEF1C3FB20202020202020D4CBD0D0BCAF
:1029D000C6CAFD202020202020202020CAB9D3C331
:1029E000C2CA0D0A00000000100000204B32BCFCDF
:1029F000B0B4CFC2A3ACCFF278517565756531B76D
:102A0000A2CBCDCAFDBEDDCAA7B0DCA3ACBCB4CAA4
:102A1000B9B5C8B4FDC1CB3130B8F6CAB1D6D3BD53
:102A2000DAC5C40D0A0000004B32BCFCB0B4CFC202
:102A3000A3ACCFF278517565756531B7A2CBCDCA1D
:102A4000FDBEDDB3C9B9A60D0A00000014000020C8
:102A50004B33BCFCB0B4CFC2A3ACCFF27851756598
:102A6000756532B7A2CBCDCAFDBEDDCAA7B0DCA367
:102A7000ACBCB4CAB9B5C8B4FDC1CB3130B8F6CA24
:102A8000B1D6D3BDDAC5C40D0A0000004B33BCFC7F
:102A9000B0B4CFC2A3ACCFF278517565756532B7CB
:102AA000A2CBCDCAFDBEDDB3C9B9A60D0A00000098
:102AB0001CB52248014609780191FF210246117098
:102AC0000146097800919DF8001001F010011C4AA0
:102AD000117007211B4A116009E01A490968491E53
:102AE000184A11609DF800104906090E00919DF8E2
:102AF000001001F080018029EFD012490968090215
:102B0000104A11601146098801F4E06111600B4A16
:102B1000019911700C48006840F470000A4908607F
:102B20000846006840F070400860FFF7E1FB0020B5
:102B300006490860FDF718FB00201CBD00E400E01A
:102B4000980000209C00002020ED00E09400002070
:102B50002DE9F04706460D4690464FF000090EB1AC
:102B6000012000E0002018B9FDF730FB00BFFEE7B0
:102B70000DB9002702E006FB05F0471C07F15400E1
:102B8000FFF7F8F9044674B10DB9246002E004F1CE
:102B900054002060E66325640121204600F09EF881
:102BA00084F85080A146B9F1000F03D1FDF70EFB68
:102BB00000BFFEE74846BDE8F0872DE9FF4383B03C
:102BC00005460E461F464FF000092C461CB9FDF77E
:102BD000FDFA00BFFEE70EB9206C08B9012000E045
:102BE000002018B9FDF7F2FA00BFFEE700BFFFF7BB
:102BF0000BFBA06B68B3D4F80C8031462046FEF77F
:102C000081FF8FB9A06B401EA063206908B9012025
:102C100000E00020B8B904F1100000F0A3FA012888
:102C200011D1FFF76FFB0EE0C4F80C80606A08B9A1
:102C3000012000E0002030B904F1240000F092FAF5
:102C400008B1FFF75FFBFFF701FB012007B0BDE80C
:102C5000F083059818B9FFF7F9FA0020F6E7B9F103
:102C6000000F04D101A8FFF711FD4FF00109FFF794
:102C7000EDFAFFF78BFDFFF7C7FA606C401C08B94F
:102C800000206064A06C401C08B90020A064FFF71D
:102C9000DDFA05A901A800F0F1F8C0B92046FFF758
:102CA00069F870B104F124000599FFF7B7FC2046DC
:102CB000FFF70CF900F09CFA002898D1FFF722FBEF
:102CC00095E72046FFF702F900F092FA8FE72046D9
:102CD000FFF7FCF800F08CFA0020B7E770B5054666
:102CE0000E462C461CB9FDF771FA00BFFEE7FFF750
:102CF0008BFAD4E90F12206801FB0200606000200B
:102D0000A0632068A060E06B401E226C216800FB7D
:102D10000210E0604FF0FF306064A06476B9206973
:102D200008B9012000E0002080B904F1100000F093
:102D300019FA01280AD1FFF7E5FA07E004F11000BB
:102D4000FFF72CFA04F12400FFF728FAFFF77EFAC8
:102D5000012070BD2DE9FF4383B0064688461D461D
:102D60004FF0000934461CB9FDF730FA00BFFEE70A
:102D7000B8F1000F01D1206C08B9012000E000205B
:102D800018B9FDF723FA00BFFEE7022D02D1E06B70
:102D9000012801D1012000E0002018B9FDF716FA42
:102DA00000BFFEE700BFFFF72FFAA06BE16B884280
:102DB00001D3022D1DD12A4641462046FEF7B7FE1B
:102DC0000746606A08B9012000E0002040B904F11C
:102DD000240000F0C7F9012805D1FFF793FA02E0BB
:102DE0000FB1FFF78FFAFFF731FA012007B0BDE806
:102DF000F083059818B9FFF729FA0020F6E7B9F132
:102E0000000F04D101A8FFF741FC4FF00109FFF7C3
:102E10001DFAFFF7BBFCFFF7F7F9606C401C08B91F
:102E200000206064A06C401C08B90020A064FFF77B
:102E30000DFA05A901A800F021F8C0B92046FEF757
:102E4000A6FF70B104F110000599FFF7E7FB2046DB
:102E5000FFF73CF800F0CCF90028A4D1FFF752FAB4
:102E6000A1E72046FFF732F800F0C2F99BE72046C1
:102E7000FFF72CF800F0BCF90020B7E72DE9F0418E
:102E800004460D461CB9FDF7A1F900BFFEE71DB9C8
:102E9000FDF79CF900BFFEE7FFF7B6F91248076897
:102EA0002868401C08B9002619E010492068096804
:102EB000884204D06068B84201D801260FE06068FB
:102EC000381A2968884209D228686168791A401A34
:102ED00028602046FFF7DAFB002600E00126FFF716
:102EE000B5F93046BDE8F081680000207C00002084
:102EF0002DE9FF4F81B0804616469A46DDE90E5B0C
:102F0000B8F1000F03D1FDF761F900BFFEE7052D11
:102F100001D2012000E0002018B9FDF757F900BFE9
:102F2000FEE730461099FEF799FD0446002C5DD06F
:102F3000701E216B01EB800929F0070909F00700D9
:102F400008B9012000E0002018B9FDF73FF900BFE3
:102F5000FEE700962A462046119B0299FEF772FE74
:102F6000524641464846FFF78FF82060BBF1000FFC
:102F700001D0CBF80040FFF747F925480068401C16
:102F8000234908602348006840B922480460084685
:102F9000006801280CD1FEF785FE09E01E48006894
:102FA00030B91C480068C06AA84201D819480460BA
:102FB0001A480068401C19490860084600686064A7
:102FC00094F82C10012088401549096808431449D9
:102FD0000860E16A01EB8101124A02EB8100211DC8
:102FE000FFF706F90127FFF731F901E04FF0FF374E
:102FF000012F09D10848006830B106480068C06A4E
:10300000A84201D2FFF77EF9384605B0BDE8F08F3F
:103010006400002054000020700000208000002088
:103020006C000020A40900202DE9F0414FF00008B9
:1030300041480068002872D140480068401C3F4960
:10304000086008460668DEB93D480068006808B9AF
:10305000012000E0002018B9FDF7B8F800BFFEE736
:1030600037480768374800683549086035480760C1
:1030700035480068401C34490860FEF7EFFE00BF89
:103080003248006886423CD300BF2D480068006883
:1030900008B9012000E0002020B14FF0FF302B499B
:1030A00008602DE026480068C068C4686568AE42C4
:1030B00002D22648056023E0201DFEF7F5FFA06A36
:1030C00018B104F11800FEF7EFFF94F82C1001205E
:1030D00088401F49096808431D490860E16A01EBFF
:1030E00081011C4A02EB8100211DFFF781F81A497A
:1030F000E06A0968C96A8842C7D34FF00108C4E78B
:1031000000BF15480068C06A00EB8000114951F803
:103110002000012808D94FF0010805E0FFE70F481B
:103120000068401C0D4908600D48006808B14FF068
:1031300001084046BDE8F0818800002068000020BA
:10314000580000205C0000207C000020840000204B
:103150006C000020A409002054000020740000200E
:103160007800002070B50646F068C4681CB9FDF709
:103170002DF800BFFEE704F11800FEF795FF164892
:103180000068A8B9201DFEF78FFF94F82C100120CD
:10319000884012490968084310490860E16A01EB58
:1031A00081010F4A02EB8100211DFFF721F804E0A5
:1031B00004F118010B48FFF71BF80B49E06A096896
:1031C000C96A884204D9012501200849086000E045
:1031D0000025284670BD0000880000206C000020FB
:1031E000A4090020300A00205400002078000020AC
:1031F00070B500253048006818B9FCF7E7FF00BF3C
:10320000FEE7FFF701F82C480068401E2A490860D5
:103210000846006800284BD128480068002847D09D
:1032200024E02748C068C46804F11800FEF73CFF9A
:10323000201DFEF739FF94F82C1001208840214909
:10324000096808431F490860E16A01EB81011E4AD1
:1032500002EB8100211DFEF7CBFF1C49E06A0968E3
:10326000C96A884202D301201949086014480068DD
:1032700008B9012000E000200028D2D015480068DD
:1032800078B10AE0FFF7D0FE10B1012010490860C4
:1032900010480068401E0F4908600E48006800286A
:1032A000F0D10B480068012802D10125FFF72AF868
:1032B000FEF7CCFF284670BD880000206400002087
:1032C000300A00206C000020A409002054000020D7
:1032D0007800002074000020F83200080000002070
:1032E000BC0000004C100008B4330008BC000020F3
:1032F000B45500005C100008000000000000000051
:1033000000000000000000000000000000000000BD
:1033100000000000000000000000000000000000AD
:103320000000000000000000010203040102030489
:10333000060708090204060800A24A04000000006B
:103340000000000001020304060708090000000055
:10335000000000000000000000000000000000006D
:10336000000000000000000000000000000000005D
:10337000000000000000000000000000000000004D
:10338000000000000000000000000000AAAAAAAA95
:10339000000000000000000000000000000000002D
:1033A000000000000000000000000000000000001D
:0433B0000000000019
:0400000508000131BD
:00000001FF
